:20000000004000204D6F000001C9011001C9011001C9011001C9011001C9011001C90110A2
:1C00200001C9011001C9011001C9011001C9011001C9011001C901103FC9011089
:20003C002DE9FE4F0178D02940F088810646C44CB07894F8018065680FF24039002800F0A6
:20005C006881DFF800B3401E4FD00C3840F0768196F804A0B8F1080F06F105091EDA5FEAF1
:20007C0008000CD004F11E07054648463946062208F088F890B16D1E07F10807F5D14A4645
:20009C00136804EBC8001C30811C0B6092888A8008F1010780F801A0F8B260703169AAA022
:2000BC00072208F06FF8002840F048815C4696F90B1094F92500884208DB04F11F01A4A077
:2000DC00062208F05FF8002840F03881701D026804F11F010A608088888096F90B0084F8E0
:2000FC0025000127A777BDE8FE8F7078002840F005814FF0000884F80380F078716860702A
:20011C00F77804F11C00FA0004F02EFE2846022191A34246009707F011FF607828B16068C5
:20013C000321424691A307F009FF4FF0FF30A0706068052142464B4607F000FF5C4692A174
:20015C00A07F0968C0EBC0000D30C5B204F114000160A04A04F11807136892883B60A91E75
:20017C00BA8001AA07F0E2FD9DF80400BDF80470661912360C214246307038127070206818
:20019C0084F88F8007F0E8F994489349DFF854920068AB46474604F12806B1FBF0F0029044
:2001BC008F4907F0010051F8200003F00DFA94F88F0048B920680721012207F0CDF92068BC
:2001DC000A21424607F0C8F9012008F066FA2420414608F097FC1120F72108F093FC2220B7
:2001FC00594608F08FFC0E20414608F08BFC0D20414608F087FC7C4940465A4606F00AFE75
:20021C004020014608F07EFC4120414608F07AFC032008F042FA6FF07F45122008F06AFC49
:20023C0089F80000000904D26D1EB5F1FF3FF4D115E0012008F031FA11209F2108F062FC8E
:20025C002420FF2108F05EFC4020414608F05AFC4120414608F056FC052008F01EFA94F8A4
:20027C008F0048B920680721424607F075F920680A21012207F070F9029800F0B9F805F0CF
:20029C0091FD94F8280010B3717B480000EB81000D30C1B272185578907806F1030A891EE3
:2002BC000DF1060205EB0025504607F03FFD38A15046042207F066FF48B94C49F01D062282
:2002DC0007F060FF18B9BDF80600854203D07F1C062FFFF665AF84F82880F01C4146642270
:2002FC0005F092FB20680C21012207F035F9404608F0D3F940466060BDE8FE8F122804D093
:20031C000C2814BF24A326A300E02AA30321284611E0F01C06F074FC03460121002228468D
:20033C0007F00CFE60680221002227A307F006FE606805214B46002207F000FEBDE8FE8F06
:20035C0008020020D80A00200201060303F5FE0000000000000000C04465766963657320B0
:20037C00466F756E6420256400C046C03C2D20546F2053656C65637400C046C044697363E1
:20039C006F766572202D3E00F1F2F3F400C046C0F4F3F2F100C046C04552524F5200C0464A
:2003BC00434F4D4D414E4420444953414C4C4F57454400C0494E56414C494420504152410F
:2003DC004D455445525300C0496E697469616C697A656400E8120050C0C62D00C0A100009D
:2003FC009C9E000064090020EC0A0020F00A0020DFF800F0A5A501102DE9F84FDFF8DC8236
:20041C00B749B84E88F80000002008600821B64801700D21418040F221318180B348066045
:20043C00B47EB3480470FF2CF17E417008BFFF29327F8270737FC370B57F0571F67F467127
:20045C0014D1FF2A08BFFF2B10D1FF2D08BFFF2E0CD1A8490A7802704A7842708A78827056
:20047C00CA78C2700A79027149794171A2490278DFF88892DFF888A20A70FF2642784A7018
:20049C0082788A70C278CA7002790A7140799D4A487189F8006089F8016089F8026089F862
:2004BC00036089F8046089F80560002096490880DAF8344095496078087021781170A078C5
:2004DC0093490870A16808799249421E0A70E07891490870E0689149086008B908F08AF8FE
:2004FC0060698F49086008B908F084F8A0698D49086008B908F07EF8E0698B49086008B9E6
:20051C0008F078F8894C8A4D207908F01BFB286000283ED06079874F08F014FB386008B937
:20053C00286833E0A079DFF810B208F00BFBCBF8000020B9286808F00DFB386826E0E07921
:20055C0008F000FB7D49086040B9286808F002FB386808F0FFFADBF8000017E069490A7851
:20057C002078921C504380B208F0ECFA74498860296898B9084608F0EDFA386808F0EAFA46
:20059C00DBF8000008F0E6FA6C48006808F0E2FA002008F02FF84FF4804198E0012008714F
:2005BC00604C2868067329684E73286886732968CE7328680674002029684E742A68D0726C
:2005DC00A0222968487103212868C280017207202968487200202A689072282128684182C8
:2005FC000121C1760020296848772A6882F85E000120296808772A6882F85D0039680871F8
:20061C003868067339684E73386886733968CE7338680674002039684E743A68D0723968A6
:20063C0048713A6890724FF4207039680022C88008818A7401213A68D174DBF800100E736F
:20065C00DBF800205673DBF800108E73DBF80020D673DBF800100E740021DBF8002056745F
:20067C00DBF80030D9720121DBF8002011710021DBF800305971DBF80010C88008810020B7
:20069C008872DBF8001088740520DBF80020D0742C480168884721680646086880472268C7
:2006BC0052F8041F00208847DAF80C101A4B0A881878254902430A80304624490A689047E4
:2006DC00484600F045F800F047F84FF4005198F80000BDE8F44F03F03DBE00BF6E4F00207E
:2006FC00044F0020B63F0050604E0020084F00202C4E0020E81200503C4E0020344E0020B1
:20071C00C8A100007B4F00200C4F00206D4F00206B4F0020724F00206C4F0020F04E00201F
:20073C00F84E0020FC4E002050170020180F0020104F0020144F0020184F00201C4F0020EB
:20075C0034170020440A0020544F0020480A0020DFF800F01D6E0110DFF800F04D71011076
:20077C00BB482DE9F84F0025BA4CB849056094F8E200002800F06581012800F02F81B64E33
:20079C0002283CD0032840F05C8151F8250CD4F8B8100029A0F5C060C4F8D400B8BF494251
:2007BC000028B8BF4042814226DA4FF08057D7F8A4014568B4F8BC0030214FF47F4208231A
:2007DC0000903046A847D7F8A4014568B4F8C00004214FF4F802122300903046A847D7F820
:2007FC00A401B4F8D070456820214FF440620A2330460097A847012584F8D8501CE151F840
:20081C00258C08F007FA2F4600B901273946934F38680028FCD0B146012609F10409D9F8D1
:20083C002CA03E6009B108F0FBF9CAF30720C4F8BC0008F0EFF9AA4600B9B2463B68002BE1
:20085C00FCD0D9F800B0BAF1000F3E6001D008F0E7F9CBF38440C4F8C00008F0DBF9AA4674
:20087C0000B9B2463B68002BFCD0D9F81C90BAF1000F3E6001D008F0D3F9C9F38120C4F88E
:20089C00D000B8F5C061C4F8B81000F09C8094F8D80068B9C4F8D410D4F8C000C4F8C800D9
:2008BC00D4F8BC70C4F8C470D4F8D030C4F8CC30D4F8D400D4F8BC30002854BF02226FF09A
:2008DC00010204F1C8010F6800EB40008018421000EB927207EBA2000860D4F8C810C4F864
:2008FC00C43000291CDD1E293CDDD4F8CC0030B93429B4BF15391E21C4F8C81025E02A299C
:20091C00BABFD4F8C8000B381E20C4F8C800D4F8C4003F28B4BF401C3F20C4F8C4001FE005
:20093C00D4F8CC00032812D011F10B0FC6BFD4F8C8000B30301CC4F8C800D4F8C4000028FE
:20095C00C4BF401E051CC4F8C450032508E011F1150FC6BFD4F8C8001530301CC4F8C80045
:20097C00C4F8CC504FF08057D7F8A401B4F8C43030214FF47F424568374800930823A8472B
:20099C00D7F8A40104214FF400321123456832480096A847B4F8C860D7F8A40104214FF49D
:2009BC00F802122345682C480096A847D7F8A40120214FF440620A23B4F8CC60456826488C
:2009DC000096A84701E084F8D85040F2FF50404502D8801C40452FD2082030E051F8251C2D
:2009FC001F4F4BF2F5204843060A3868C0F3814001280CD11B4800680068804706F062FC18
:200A1C0008F014F93111C010484306EBE03694F8E50030B91448006820F07F403618760858
:200A3C0001E084F8E5501148310C0660012741600F4D8760287808B90B2000E0052084F8F3
:200A5C00E40001F023FFBDE8F88FC0462D400C402C500C405008002000A00C4000800C40A0
:200A7C00B43F0050EC010010102009403C600C40CDA000002DE9F84FDFF8B4B20F46054612
:200A9C00F80B80F01F81DFF88482B80880F01081A14EDFF888A2B80F80F0BE80B80B80F0F1
:200ABC00AB803809C0F02A81082008F0D7F8002840F09D80802008F0D1F8002840F097801F
:200ADC00684604F067F8012803D10098002800F08E8000250124E8B207F02AFE48B1837A45
:200AFC003BB1847290F9090004FA00F0C0B206F04FFD6D1C032DEED345464FF003096868A4
:200B1C0085F81090703008F065F98148002301680360804950F8082C98461A4640F8088C9F
:200B3C0005F1340008F05EF93068006B80470146AA68A869891A090BC1F1FF3282422CBFA3
:200B5C0008444FF0FF30A8612E7F1EB1E968B0EBC12F1ED907F0F6FB414600B12146081CBC
:200B7C0014D0504640F60901018041464180427B64F303024273027B61F30302027341601C
:200B9C0007F0B0FF418811F4406FFBD02C774146A9616348016821F0020141F400710160E8
:200BBC00604941F8049C41F230028A600C6050268E600C604FF4CA628A600C6041F80C4CB6
:200BDC0044460460022006F063FE112003F022FC287818B96868383008F00EF9687F18B1F8
:200BFC006C77052006F054FE2C744F48686105F0AFFD27F0080781E046467C36366846B18E
:200C1C00B06830B13069B6F92C10B46800222023A04727F4005771E03446606D016804203C
:200C3C008847D0B1287CC0B1464608363068A0B106462068006B8047E968801BE860000B3B
:200C5C008842E86002D240184008E86040F6C41181422CBFB0F5FA7FE96051460D31097834
:200C7C00002011F00F0F18BF0120464660B9688C40F60901814207D1AC6928466FF48071D6
:200C9C0000224FF00073A047284906F13400002208F0A8F80220307405F05AFD6C6900211F
:200CBC0028464FF080630A46A04727F0005725E002F0AAFE454605F17406306808B927F0D9
:200CDC0002071BE008F088F859460E6896B1B16A89080FD2B46AB16AA143B16200F02AF851
:200CFC00B06848B130692246B6F92C10B4680023A04701E000F01EF827F4804727B1584676
:200D1C0039462C3008F07EF8BDE8F88FE80F0020141004407D8100008C010010F016002002
:200D3C00000004600C410440F14100000927000068100020DFF800F061C001102DE9F04F5A
:200D5C000F46864C0168E16241688068ADF1140DE0608348A16080478248E16A0160A16802
:200D7C00DFF820A24160E168DFF8149281607E49002FA346C16061D03D68A86808B17B4913
:200D9C000160E86808B17A4901607A4C2878207068786070A878BE68A0703178B268E17099
:200DBC007368A2602E696360EA6926627968E2620868E06068697B686062A8699E68A062A1
:200DDC00286A20631EB9002007F014FC00E066617868C06818B9002007F00CFC00E0A06164
:200DFC007868006918B9002007F004FC00E0E0617868406818B9002007F0FCFB00E02061BD
:200E1C0028692062F86881680E6806B95B4E5A494FF001084E60C66881F801802EB90020B4
:200E3C0007F0E8FBF8684D4601E04D462E6000685446FE68A0617068E06106E0002007F048
:200E5C00D9FB4FF0010854464D4628684E494668621C04F114035020B04710B1286880682E
:200E7C008047DBF8080080470026494F039069467E7046483E7004222061304606F00AFEA8
:200E9C000098B0F5801F0ED020B907F02BF802F02DFC0AE006F0B2F807F064FE4FF004093F
:200EBC00A7F8029003E007F01DF84FF00409394FB2462868C7F808A08069A66080477860A5
:200EDC003548468080F800800A2007F03BFEFF210A22A06207F0A0FFE01CFF21022207F046
:200EFC009BFF0A2007F02EFE2C49086008680A22314607F091FF3046FFF77EFA404606F018
:200F1C0077FA27480188FF2906D1022101807822001D314607F080FF032000F045F82F681E
:200F3C002048314602AA01AB7D6880F800901020A847A06ADBF80C10E2690527401D9DF8F0
:200F5C0008307F1E00F8013BF9D1921E0398E261884701F03FF905B0BDE8F08F3C0A0020DD
:200F7C0041490010F844002044910000BD8D0000C38D0000080D0020380F0020D768000015
:200F9C00CC0F0020FC0D0020E9810000DD870000BC0F002028170020B80F00205817002083
:200FBC006C0B002068170020DFF800F0598801100EB55020ADF800000020ADF80200074838
:200FDC0000788DF806000648016868468847002814BFFF209DF807000EBDC04648050020CA
:040FFC00680A00205F
:20100000B41200001810000015AB0110FDB301106DC00110FDAE011099B5011000000000F7
:08102000000000002D0000009B
:20102800B01200003C100000B1C00110A9BF011067C0011069B80110000000000000000035
:041048003000000074
:20104C00B012000060100000BDC00110CDB30110D9BD01106DB3011000000000000000005B
:04106C00310000004F
:2010700000000000500F002004000000000000000000000020000000E8C9011030000000CB
:2010900028100000580F00200400000000000000000000000C000000D8CA011018000000A6
:2010B0004C100000600F002004000000000000000000000024000000F0CA0110180000002A
:2010D00000000000680F00200400000000000000000000001000000018CA01102C00000036
:2010F00000100000780F0020040000000000000000000000200000006CCA0110240000009A
:20111000FFFFFFFF800F00200400000000000000000000002800000090CA01102400000059
:20113000FFFFFFFF880F00200400000000000000000000001400000008CB011018000000D8
:20115000FFFFFFFF900F002004000000000000000000000058000000B4C9011034000000A6
:20117000FFFFFFFF980F00200400000000000000000000001000000020CB01101800000074
:20119000FFFFFFFFA00F00200400000000000000000000001C000000B4CA011024000000A1
:2011B000FFFFFFFFA80F00200400000000000000000000003800000044CA011028000000C9
:2011D000FFFFFFFFB00F00200400000000000000000000005400000078C901103C0000003E
:0811F00001000000C4A1000091
:0411F80001000000F2
:0411FC0000000E00E1
:0412000000000F00DB
:0412040032000000B4
:0412080001000000E1
:04120C00B00E002000
:0412100000020000D8
:0412140000000000D6
:0412180001C90110F7
:04121C0000000000CE
:0412200000000000CA
:0412240008000000BE
:0412280000002200A0
:04122C00D00C0020C2
:0412300000000000BA
:0412340000000000B6
:0412380008000000AA
:04123C00700E002010
:0412400000000000AA
:0412440000000000A6
:04124800080000009A
:04124C00000000009E
:04125000000000009A
:041254000000000096
:041258000000000092
:04125C00010000008D
:041260009C0D0020C1
:041264000600000080
:041268000100000081
:04126C003C0C002016
:04127000000000007A
:041274000000000076
:041278000002000070
:04127C00000000006E
:02128000290043
:02128200010069
:02128400250043
:02128600300036
:02128800310033
:02128A002D0035
:02128C0001005F
:01128E00015E
:08129000030000005CA1000056
:0812980000000000000000004E
:0412A0000000010049
:0412A4000000030043
:0412A80013C401105A
:0412AC006389000052
:0412B000B812000070
:0412B400B81200006C
:0412B8000000000032
:0412BC00240F0020DB
:0412C0007D8A000023
:0412C4002000000006
:0412C800FCA0000086
:0412CC00D49F0000AB
:0412D00029C101101F
:0412D4009F8A0000ED
:0412D800418E000043
:0412DC00A1C7011095
:0412E000A3C701108F
:0412E4000000000006
:0412E80021A1000040
:0412EC00249E00003C
:0412F0003C9E000020
:0412F4000C9E00004C
:0212F8000200F2
:0212FA000900E9
:0212FC000100EF
:0212FE000000EE
:0113000001EB
:041304001D8A00003E
:04130800A5770000C5
:04130C005582000006
:04131000E57900007B
:041314007F7A0000DC
:04131800C16E0000A2
:04131C00ED5300008D
:041320000B8C000032
:04132400C967000095
:0413280015C70110D4
:04132C0025C70110C0
:201330002DE9F0438B4D05F108012846ADF11C0D05F01CFC05F110040021204607F0F6FEBF
:2013500000200146EC6005F051F9844E824C6860022242F21073082031466070102001F0B8
:2013700063FB1020032242F21073314601F05CFB7B48A060FFF722FE024602236078794954
:201390000090002001908046CDF808801020CDF80C8001F049FB686841466AA30A4606F089
:2013B000D3FD714C6922414604F1280004F032FB714E04F1080006F1080103F029FD2060EB
:2013D000002800F0BE80694907F03CFC20680C21424606F0C7F820680C21012206F0C2F84C
:2013F00020684146012206F0BDF820680421424606F0B8F820680321424606F0B3F884F8D4
:201410008F80B8F1000F04D120680421424606F0A9F85748574B0768B3FBF7F94846FEF783
:20143000EDFF94F88F0020B920680421012206F099F84846FEF7E2FF072007F061FB8028DF
:201450002DD194F8900040F0010084F8900020680721424606F086F820680A21012206F0AD
:2014700081F8306802F0B6F8404607F01CF943480226B0FBF7F720680C21424606F072F830
:201490003846FEF7BBFF20680C21012206F06AF83846FEF7B3FF761EB6F1FF3FEBD104F091
:2014B000F3FAA86841464FF040424FF0FF3307F039FE071C18D0CDF8108005A80DF1160116
:2014D00004AA06F0BBFA78B9BDF81400102807D128789DF81610884202D10498FEF7A6FD6D
:2014F000049808B107F053FCF80FDAD3E86807F015FE0028D5D1E868044607F00BFE844205
:2015100008BF444602D0846806F060F9002CEDD02088401E0BD0401E0FD1A678700801D3EB
:2015300004F0B2FAB00808D304F0AEFA05E06068FEF77CFD606807F02AFC204606F046F931
:20155000D4E7FEE7424C45204F6273657276657200C046C008020020480500204979000081
:2015700090A10000C5800000D80A0020D1860000C0A10000A08601009C9E000020A1070002
:201590002DE9F04F8246DAF800600C465FEA0208ADF11C0D14BF00214FF0FF3106F14800DE
:2015B000834607F051FA002818BF0B2040F00D8100258848F460B8F1010F057007D0657005
:2015D000022006F0B5FA062006F0B2FA01E0012060702078012840F2AB80801E012868D974
:2015F000801E012833D9801E012800F2DF8007F0F9FB06904FF0805000F5EE77D0F8DC0161
:20161000A378466A009321782846062908BF0120019001200290A068228AE1686368B0473B
:2016300081460698FFF78CFBB9F1000F40F0C080B8F1000F02D007F0BDF802E0504606F0EB
:201650004DFB002800F0A4803868806A2AE007F0C9FB06904FF0805000F5EE77D0F8DC0103
:20167000012306680093A168A27860682478AC46042C08BF9C466346B04781460698FFF7E8
:201690005FFBB9F1000F40F09380B8F1000F02D007F090F802E0504606F020FB002877D0E3
:2016B0003868406880474A49C1F8B0510D6081467EE007F097FB06904FF0805000F5EE76A5
:2016D000D0F8DC01E38A87690093E0680190208B0290A0780390207D049001210591227821
:2016F0002846022A08BF081CE1786268A368B84781460698FFF724FBB9F1000F58D1B8F123
:20171000000F02D007F056F802E0504606F0E6FA00283DD03068006A80475FEA000947D1DD
:201730003068C569A168E28A2369E078A847BEE707F058FB06904FF0805000F5EE76D0F8D6
:20175000DC01E38AC7680093E0680190208B0290A0780390207D29460490012005902578B9
:2017700005B9014608466268A368E178B84781460698FFF7E5FAB9F1000F19D1B8F1000F44
:2017900002D007F017F802E0504606F0A7FA08B914201AE03068406980475FEA000907D131
:2017B000306802692169E078904780E74FF0FF39B8F1010F05D0022006F070F8062006F055
:2017D0006DF8584607F01EFB484607B0BDE8F08F50450240661700202DE9FE4F05467B4898
:2017F000002400680094C00905D37948007810B9202006F0BBF8012D40F0E280DFF8009204
:20181000D9F8DC00012840F0D8800220C9F8DC0006F06EFD012006F0A9F85FEA000805D05C
:201830000120C9F8DC0006F073FDCBE007F0ECFAA34602906748684DC0F800B0A86A01682A
:2018500001208847012804D1584604F0D7FC012000906248624FC0F800B03868112007F0E9
:20187000FDF900B10124102007F0F8F908B144F002040F2007F0F2F908B144F004040B2050
:2018900007F0ECF920B12868564E016B308888470A2007F0E3F920B12868534E016B308841
:2018B00088475248012606602868816944F0200088474F48066007F0CBF900F00101019149
:2018D000400814D2286A81684A4888478246BAF1040FF7D0BAF1010F04D1286A4268454848
:2018F000032190474449086820F003000860584600F088F82B683868986B80470198012898
:201910000CD0BAF1010F04D1286A42683948314690473949086840F0030008602F480660D6
:2019300028684169204688470B2007F097F920B128682C4BC16A188888470A2007F08EF95C
:2019500020B12868284BC16A18888847274806600322C9F8DC20264BC3F800B02868416B3A
:20197000204688470128F9D13868042005F0FEFF0446184806603868144800688009FBD3AE
:201990000098012802D1304604F038FC07F04EF9082005F0EBFF07460298C9F8DC6007F0E5
:2019B000B5FB1648008804F0CBF906F0B1FC57EA040018BF4FF0FF3804E06FF0040801E064
:2019D0006FF001084046BDE8FE8FC04614100940380900200C400940B8010010000222433E
:2019F0002C200940EE9D0000EA9D000028200860800104430040034024220840C8A000003F
:201A1000500800202DE9F84FDFF804B20746ABF13500DFF8F0810068800880F0E28075486F
:201A30000068006880477E490831D1F8009000254FEA29715FEA995201F101010AD2C0F1F9
:201A50003E0210F10A0F4FEAE202D8BF08229142B8BF111C684BD3F87C21C2F30462162A51
:201A7000A8BF203A1B68C3F30443162BA8BF203B9A465218162A05DA12F10A0FB8BF6FF0B7
:201A9000090200E015225D4B5D4E02F01F0141F4F8511980316811F0030F18BF0125C9081E
:201AB00028BF45F002050FB145F00405434693F90710411A052904DA9979A94208BF99887D
:201AD0006FD0DFF844E10F28A0F10F0829DB08EB0011A1F1F0084FEA28210091072984BFC4
:201AF00007210091062988BF06215EF821600424774604EB81043C594FEA950CA41BEE082C
:201B100004F0FF0124BFC4F3072631446F08AE0824BFC4F3074631446E0828BF01EB14613E
:201B300004E000214FEA950C6F080091009C5EF824E05FEA5C060EF0FF0424BFCEF307263B
:201B500034447E0824BFCEF3074634446E0828BF04EB1E64009E89B2A8EB06267143803143
:201B700004EB1124AAEB02010029D8BF0121342209F0FF074A4391B24FF6FF727943B1FB74
:201B9000F4F18A4238BF111C802889B2998005DA10F1800FB8BF6FF07F0000E07F20D871D8
:201BB0009D711A4800681F2918604FF0000008D340F2FF128A4206D24908401C8A42FBD335
:201BD00001E01F219980134F0F39090940EAC10047EA0001CBF8FB1F0026CBF8FF6FBDE809
:201BF000F88F0D490D4F434608200F609B1D1870BDE8F88FEC0100103C1100506E6208405E
:201C100024220840481700209C130050082009403500094000E7A48030100940FDFDA40087
:201C3000AC3F00502DE9F04F044675488E46016894461F46BEF1000FADF1440D4DD0BCF10A
:201C5000000F4AD09EF8002001209040014244D0BCF80000B0F5C15F32D1DCF81400DCF815
:201C70001860684BDCF81C50DFF89CA10E904FF003080DF134090F9618681095C0F3036BC7
:201C900059F8046FCEB10021351F05200B4655F8042FB2F1FF3F10D0924506D0401E01F1C8
:201CB000040103F10103F2D107E0052B05DA705820F4702040EA0B407050B8F10108DFD15B
:201CD000C4F804E0C4F808C007F08CF84F4D8046287820B14046FFF733F800208CE001F05E
:201CF000BBFA4B4908680DF1280940F002000860484606F015FF002605F1AC0045490C96C2
:201D10004A4605F021FB444905F1E0004A4605F01BFB484606F0C4FEFF2019213F4A0B9051
:201D30004B4605F1340005F095FA3D4A05F150001A214B4605F08EFA3A49324605F18800C5
:201D5000134604F0C3FE384A05F120000421334606F038F90E2002F079FC05F1740006F013
:201D70000EFE05F16C0006F00AFE072385F878312E742E77AE616E772C48AE6005226861EA
:201D90002B49EA602B780E70581C28704046FEF7D7FFB1461FB903AF384606F005FE38685F
:201DB00001212060388A61746082786810B940F6C4100E46E06026741E48A0616061F8688F
:201DD00000B1A061B86800B160617822494604F1200003F01FFE04F13800494606F030F887
:201DF000684606F0ADFF1449029404F170004A466B4604F06BFE204611B0BDE8F08FC0463C
:201E1000D4210840541300500200F844E80F00200020094065870000594000007D8100007D
:201E3000B157000041830000B96C0000F1410000601700201F560000AB8D00002DE9F04FD6
:201E5000754F1E46ADF1340D01914FEA960902923D680090710809F1020221F0010105EBBE
:201E70008200091D0390901805EB80000490501805EB80038018059305EB8000079026F043
:201E9000030000F1080802EB080005EB800340180893801805EB80000990C6F39C0080005D
:201EB000083002EB4000411805EB800305EB810B0A938918831805EB8104404405EB83031D
:201ED000C6F3990105EB80008900069038680B930A010021803203F09DFD4849DFF820A13E
:201EF00009682846AAF1880290470746B94518BF6FF001007ED128465546394605F168023E
:201F100090470198314606F0C3FA002818BF012070D10298314606F0BBFA002818BF0220D9
:201F300068D103980199A84704980299A847009881680598A847334B0399059A2046994603
:201F5000C847012802D1BD0066590EB1032051E020460021424603F05DFD0499059A2046D9
:201F7000C847012801D166590EB1042042E0274B254D079803991E462A46B047089804995C
:201F90002A46B047079909980A46B0470A980999079AB0471E4D0B9807992A46B0472046EB
:201FB0000021282203F036FD1A4B0A990B9A20469946C847203520462A460146C84708995D
:201FD00058460A46B04706980021424603F022FDFDB25846002D0CBF0122FAB20021635CBF
:201FF000455CAB4218BF052004D1491C521EC9B2F5D100200DB0BDE8F08FC0468C4F00205A
:20201000B9DB0010C9DE0010300E0020F9E00010DC9E0000C9E60010884F00202DE9F04395
:20203000664C62680546880FADF1140DC0F0C2805068406808B1804762685168886808B96D
:20205000C86868B106F0BAFC5168886810B1804760684168C86800B18047594805F09EFFFE
:20207000584806F045FD584940F60A0CA1F800C0002048800A7B60F303020A7348604A7B83
:202090004FF0010969F303024A73AB686E7C58801A88A2F60202CAB141F21E07D21B15D011
:2020B00041F6E677D21B012A20D85A7E012E60F382025A7606D01A8B22F47C7242F4347263
:2020D0001A8313E01A8B60F30912F9E75A7C012E60F382025A7405D01A8A22F47C7242F410
:2020F000347202E01A8A60F309121A82D5F8088068746246464600E03E46776817B13B8867
:202110009A42F9D17160727B60F303027273E76E47B1FA681288ACF1070393421AD05B1CE8
:20213000934217D02F8CB7B1686205F12002508095F82C3060F3030385F82C3095F82D30F9
:2021500069F3030385F82D304A604A7B60F303024A7300E0A0601D4801688768C568009154
:2021700010226946406B019720F0784040F0805003901748029502F0FDFD06F01FFC154880
:202190006061607F68B91448006801684846884701280CD0707B69F3030070730F4F67618C
:2021B00005E004F0D7FF0028FBD006F029FE404606F09EFC05B0BDE8F083C046E80F002050
:2021D0000100070601010E04F01600204C13005018000021910A0000E0010010D9680000F2
:2021F0002DE9FE4F664D654C664F2868626A066904F1200339460120B04710B128688068A0
:202210008047DFF88481DFF8849105F03FFF5FEA000B03D003F008F84FF0FF3B002637E01C
:202230000098216910F8062CA0F10C07032A02D171B388472CE0A06A9DF805C0052132468D
:20225000401E10F8013F9C4506D0491E02F10102F7D14FF0FF0A01E05FFA82FA2868BAF1B3
:20227000FF0F00F1080011D0387905F03FFAB979012904D0022904BF0099887001E000995E
:2022900008700099504606F0B3F801E0006880472868C3690DF105016A4601A898470028B6
:2022B000BED0D9F800007700C35B23B9761CF6B2052EF8DB22E0052E20DAD8F80800804730
:2022D000D9F80010002231F807A0CA53D8F80C1088472F4850F826202670514630469047C4
:2022F0000646FF202070D8F808008047D9F800107A5A16437E52D8F80C10884705F0C6FEE2
:202310000746BB451AD0D8F8080007B9214FE169B94238BF0F1C804782462868016A206AF3
:202330008847626A286817491B4B521C6262C6683846B047D8F80C1050468847A7682968D6
:20235000606914318FB9D9F8000005270026835B33B10969606988472968D9F80000143181
:202370007F1E06F10206F2D103E0096988472968143109684FF0FF30884746E7FC0D0020F0
:20239000CC0F0020357700003C0A002058170020E8A000008EC2F5281C0E00202DE9F04FFD
:2023B000ADF1240D079000F057FF6048007805F0B9FE5F4D0024012806D90C3804D0401E47
:2023D0000ED0401E09D006E006F094F9022804BF01210C1C06D0696805E005211F2401E062
:2023F000032107246960534A1068C0F38150012806D152F80C0C0127020E07FA02F0044348
:2024100006F06EFB524AFF234018401E471C28607F1E02F8013BFBD1079A1268002702F01B
:20243000FF03FE2B20D0DDF81CC096463B4601260EF0FF02FF2A10D0904205D3914203D8DC
:2024500006FA02F2144201D002206CE017430EF0FF02DFF8FCE00EF802305CF804EF5B1CE1
:202470000EF0FF02FE2AE5D1092002F0EFF807980121A86005F1280005F0E2FC05F198061F
:20249000A8464FF0010A4FF0040B0025A9460AFA05F0044216D1074204BF05F0FF0141F436
:2024B000C04104D02A480799405D51F82010224801F088FCE8B24FF0FF3106F03FF8C6F83C
:2024D000009001E0C6F800B0D8F800006D1C361D8542DCD904A806F0E3FA184C184A207808
:2024F000102104AB059008F10C0004F0B3FE684606F016FBCDF80C906A4660681149029033
:2025100008F1640004F020FF0F4951F80D0C20F4F85040F4005041F80D0C0C4FC1F8FFAF8D
:202530004846C7F800A009B0BDE8F08F671700203C070020B43F0050007FC76770A10000BF
:2025500069850000257100000D30094008000940800700202DE9F04F0746ADF1140D039372
:20257000002F02920E9801910F9C049000F0B680081C00F0B380101C00F0B080181C00F034
:20259000AD800498002800F0A980002C00F0AB80206A002800F0A280564D666A281D0068F6
:2025B000002E00F09B80A16A06F0ACFD40B2002808BF6FF0020700F08D8084F82C002078A2
:2025D000618800EB80000918143188B2216A88474749086030B92846406806F08FFD4FF0E5
:2025F000FF3777E08B46628823786088DBF8001025789E1800EB010A701800F1040805EB5F
:20261000450002EB4306851876186D18C01805F10C098018401800F11005204604F0DCFB75
:202630002078C01C8010CAF800002078C01C8010C8F8000020780836C01C80103060207896
:20265000C01C8010C9F800002078C01C80102860227839460AF1040002F08CFB22780199EC
:2026700008F1040002F086FB22780299301D02F081FB2378204641463246FFF7DFFB071CF7
:2026900012D100955046414632464B4606F032FD47B22278039809F1040102F06BFB227848
:2026B0000498291D02F066FB21786288DBF8000001EB81015218002103F0ACF9616ADBF850
:2026D000000088470B48406806F018FDF8B2992808BF002784F82C70384606E01CB16FF014
:2026F000010084F82C006FF0010005B0BDE8F08F884F0020280E00202DE9F84F644C654FDA
:20271000103CE06F04F16C0500283BD02869806905F0FCFF296928312E690A6802430A6068
:2027300006F1200191E80003002343EA090340EA080281E80C00810806D218B328694FF4F0
:202750008041C4F8800019E0286982693E46A6F1100000F10803196822F0020291431960EC
:202770002969CA69066826EA02010160296905F1080005F09BFD00200221286104F1AC0018
:2027900006F046FB00264FF00108B9464FF0020B4FF0110AF0B205F0D1FF071C37D0B87A1C
:2027B000012834D197F90900A9F11401113008FA00F0C2430A604A681043486097F90900AB
:2027D00008FA00F0C0B205F0E3FE07F11000002105F020FB0146812909D1B86918B10021A0
:2027F00005F018FB0146812908BF87F80AB081290DD097F9090094F879110AFA00F008435B
:2028100084F87901002104F1E00006F001FB761C032EBFD3E16F28680029074636D180B3E5
:20283000684603F06DFF30B1009820B1082004F0B5FEBDE8F88F082005F0AAFE284605F00E
:2028500024FDE06707F1180090E806004846CA43A0F10C04226023681942FBD10838026858
:2028700011430160F969C94340F80C1CF96950F8082C114340F8081CF86805F08FFBBDE8B3
:20289000F88F04F1AC00594606F0C2FABDE8F88FF80F00201C1004402DE9F843614C5A4D47
:2028B0005A4EDFF870815E4F94F8E4100846401E0B2864D8DFE800F07B2C4306234306231A
:2028D00043067664042907D001220A2945F8212C14BF0220032004E0202045F8210C01201A
:2028F000024684F8E200002045F8390C0827C5F8FF7FC5F8F37F45F8392CBDE8F8830529F7
:2029100014BF09200620002784F8E400376075E094F8E170383D0120002FC5F81B0004BFD5
:202930000620002102D00021F160032084F8E400032045F8010C3160306880085ED294F89F
:20295000E4103348012703290ED00068456800216022052300914046A84794F8E400062842
:2029700014BF0A200720CFE700684568002160220523022000904046A8470420C4E7FEE7B2
:202990002548264F0026012506600E203D6001F047FD022004F082FF84F8E45084F8E3608D
:2029B000BDE8F883002038600C25786024E04FF08059D9F8A0010168202088472C3D0F2088
:2029D00045F8010C41F61D56C5F80360D9F8A401466800214FF4C0720723022540460095AD
:2029F000B047D9F8A401C66800214FF4C07207234046B0470120386084F8E45004F1780019
:202A100006F0ECF9BDE8F88339400C4038600C40A401001000A00C402C500C4004800C40C9
:202A300034600C40500800200FB42DE9F04106AF8046ADF1280D06F071F93E1D26F00306FC
:202A5000361D30F0010001D105F020FFCDF81A601420ADF816000025CDF80E50FF248DF8EE
:202A700018407B68CDF81E3006F040FB064606F055F930F0010015D005F008FE4D492A4630
:202A90008446062031F80C7F4FB14B681B689E4204D0401E02F10102F4D100E0D4B2604673
:202AB00005F0FFFE404604F0C5FE0146FF2905D0204603220DF11A0303F092FA06F016FB67
:202AD00005F066F9A8460446CDF8008006F026F930F0010063D00098A04260D041F2883017
:202AF00001A905F00DF8009D002852D106F0FAFA0199012746186068019B41464FF00052B4
:202B100006F010FB00282BD00DF122000DF1230102AA03F03BFDB0B99DF8220003A904F0A8
:202B30006FFE38B9029A06F0DBF800281CBF029D474615D10299684605F014F960684FF05B
:202B5000005106F0CBFA0198B0F1FF3FD3D00028D1D006F0C7FA301A02D00199814216D25D
:202B700005F0C2FC009E05F091FD083401463EB1324652F80C0C40B9206842F80C0C2660CC
:202B9000084605F08EFE384603E00246F1E70190B1E720B92DB1284606F0F9F801E005F0CA
:202BB00075FEDDF81A0000680AB0BDE8F04104B07047C046840A00207CB5514A514813789C
:202BD0005149002B6FD05B1F08D01B1F012B4DD99B1E012B68D99B1E6DD088E04B494C4B54
:202BF0004A880280022A4B4803602DD940F20443D21A26D0521E27D040F2FB33D21A17D054
:202C10004FF44063D21A1FD0521E1AD0521E012A1AD9121F15D0521E16D0521E11D04FF4FB
:202C30007E73D21A10D0521E0BD0D21E09D010E041F206424A808A7B252A0CBF2722521EA6
:202C50008A73354901600AE0002005F0D9FC852003E0002005F0D4FC842006F03BFABDE8D3
:202C70007C402E480078012101F07ABB4A88028040F2044082421CBF41F2084082423ED09C
:202C900041F60400824211D1254C264A2568264800680023CDE9002355F8086F234B0222AD
:202CB000B0472349088073BD49880180002005F0A7FC85201FE04A880280022A0DD940F2A3
:202CD0000440121A1BD040F6FC70121A05D0083A15D04FF47F70121AE8D1887B801CC2B295
:202CF000B52AA8BF662088730020488073BD002005F086FC8420BDE8764006F0EBB973BD85
:202D10006F4F0020504F0020CC4C00209C4C0020C98D0000204F00205D5300006E4F002054
:202D3000F04E002002000080EC4E0020A97E0000424F00202DE9FF415648017800293ED0CD
:202D5000052940F09F80544C2168086800F10807387810F00F0F1CBF00F00F01062907D09E
:202D700000F00F02022A1CBF00F00F0001281FD10622B91C684605F041FD3878474D484E6B
:202D9000C0F3801800F00F0001283BD1062207F1080102A805F032FD3F78FF0902A93846C5
:202DB00006F094F9D0B13068807C022818BF03286ED105F10D0102A806F084F9002867D080
:202DD00031680120C8720622607940F00400607102A930680C3005F011FD13E029788F4202
:202DF00010D10622691C02A805F0E2FA50B12878617960F38201617106223068691C0C3016
:202E100005F0FCFC6946404606F060F900283FD060696946001F06F051F9C8BB2946684683
:202E300006F048F93168897CFF281FD01D2250432E18002918BF02290BD0012918BF03294C
:202E500026D12A5C6069711C001F06F02FF910281ED060696B46F21D3146001F06F022F9FC
:202E700006226946F01D05F0C9FC11E0002918BF02290DD16069012342466946001F06F071
:202E90000DF905E0002005F0BBFB862006F022F9BDE8FF816F4F0020D04B0020AC45002066
:202EB000144F00207CB54E4D044668680E4628B94FF00040002103F099FB6860002127A38A
:202ED0000A4605F041F8204628A3801E04D0801E37D0401E22D00EE06868012E05D00021E9
:202EF0000A4605F031F824A331E000210A4605F02BF826A32BE0686800210A4605F024F8CD
:202F100068680221002227A305F01EF801208DF801009DF801000028FBD17CBD686800215C
:202F30000A4605F011F868680221002223A305F00BF801208DF800009DF800000028FBD131
:202F50007CBD686800210A4604F0FEFF1FA368680221002204F0F8FF7CBDC0463E3E3E53E8
:202F70005441434B20415353455254002A2A2A4552524F522A2A2A003E3E20494E54455288
:202F90004E414C204552524F522100C03E3E20494E5445524E414C204657204552524F525B
:202FB0002100C0463E3E2044454641554C54205350494E4C4F434B2100C046C03E3E2049EA
:202FD00043414C4C2041424F525421003E3E204F5554204F46204D454D4F52592100C046A3
:202FF0000802002078B50D46E80787B00BD505F0A7FD28B1002181603C48006800B1804739
:2030100085F0010070E0E80413D53948C11D0D3006F040F837484268374800784FF4805108
:2030300004F014F810B18E2002F0F8FB85F480505AE0A80505D505F0F3FD3049012008603B
:20305000FEE7690504D501F0C6FF85F480604BE0680405D5812002F0E1FB85F4804043E0E9
:20307000A80440D5264C206810B1002005F0C8FA244E4FF0FF30206006F008F83168224C90
:2030900051F8202F684690472048416A826A036B009101921E490291C16A0A68016AADF8CB
:2030B000101003921978002904BF5868002805D19A68002A04BFD868002806D02170596891
:2030D00061609868A060D868E06021463468114A266811486B46B0471049086001F05AFAAC
:2030F00085F4005000E0002008B070BD204F0020AC450020784E00206E4F0020FC00204350
:20311000044F0020F04E002068450020080D0020418B00002C4D0020B0150020EC4E002028
:203130002DE9FC4191EA03084CBF4FF000484FF000084FEA03354FEA153556006D414FEA9C
:2031500043075FEA575711BF45F4001500210020BDE8FC814FF4E06E1EF1FF0E77456FD0F5
:203170004FEA01334FEA133342005B414FEA4104640D11BF43F4001300210020BDE8FC8109
:2031900074455DD0E41B002100205FF0360EAB4200D1B24205D340414941921B63EB0503CE
:2031B00001E040414941BEF1010E05D053EA020702D052005B41EAE7BEF1200F09D2BEF141
:2031D000160F0CD3CEF1200720FA07F100FA0EF00FE0AEF1200E00FA0EF1002009E001FA32
:2031F0000EF1CEF1200720FA07F741EA070100FA0EF011F4001F02D140004941641E401CF8
:2032100051F1000111F4800F1ABF641C21F4800121F400114FF44077FF37E419DEBF0021C7
:203230000020BDE8FC8107F58067BC4208D249084FEA300041EA045141EA0801BDE8FC81F1
:203250000020FF214FEAC101C91D4FEA015141EA0801BDE8FC8170472DE9FF47484C94F829
:20327000E700002876D13E4E01273C48F57C84F8E770736884F8E6500068C4F81031C0F3C7
:20329000801084F8E800684605F05AFD002504F10C0001956B468DF80050324902952A466C
:2032B00003F014FC304904F130006B462A4603F00DFC2E4904F154006B4681462A4603F0A5
:2032D00005FCB16838468847DFF8B0802848327D08F104030078284E1868C0F3815A22B182
:2032F000BAF1030F04D184F8E170BAF1030F17D0BAF1020F14D0BAF1010F0ED0022004F06C
:2033100017FC1C480068016804208847012804D030683221B1FBF0F10DE004F0ABF812E077
:20333000022004F005FCBAF1030F0CBF4FF47A7142F210713068B1FBF0F1484605F04CFD0A
:20335000484605F04BFD40460068C00802D2284604F0EEFB00200090BDE8FF871410094075
:20337000B8A000006F5C00006D4A0000815F000067170020E001001054170020B03F00502A
:20339000500800202DE9F84F5FEA00091C46924600917DD0081C7BD0BAF1000F78D0002C41
:2033B0007BD0206A002873D03F4D616A281D006800296DD0A16A05F0A5FE40B2002808BFCF
:2033D0006FF002055FD084F82C002078618800EB400009180C3188B2216A88473149AB4697
:2033F000086030B9DBF8040005F088FE4FF0FF3549E08846668865882178D8F800008F19C4
:203410002D183F1806EB41063618204603F0E4FC2078C01C8010286020783F1DC01C801055
:20343000386020780836C01C8010306022784946281D01F09FFC28463A463346014605F075
:2034500021FE45B2227800983B1D194601F092FC22785046311D01F08DFC21786288D8F893
:20347000000001EB41015218002102F0D3FA616AD8F800008847DBF8040005F03FFEE8B2B7
:20349000992808BF002584F82C502846BDE8F88F1CB16FF0010084F82C006FF00100BDE803
:2034B000F88FC046884F0020280E00202DE9F041FF2807461ED105F0EFFB10F0070F16D09D
:2034D000042004F0BFF808B104200AE0012004F0B9F808B1012004E0022004F0B3F820B130
:2034F0000220BDE8F04104F0C9B805F089F80020BDE8F08104F0C2F88046012FD8F80450DB
:20351000334E04D0022F29D0042F3DD0EFE7022004F098F880B1022004F0B0F80746012003
:203530007C6804F08FF828B1A0683118A86805F0A5FD88B13846DBE7042004F083F828B166
:20355000042004F09BF80746012026E0012004F079F808B94FF000084046C9E7042004F060
:2035700071F828B1042004F089F80746022014E0012004F067F828B1012004F07FF80746D7
:2035900002200AE00220E2E7012004F05BF888B1012004F073F8074604207C6804F052F870
:2035B0000028C7D0A0683118A86805F067FD0028C0D1D1E7022004F045F830B1022004F0C7
:2035D0005DF8074604207C68E8E70420BFE700BF589EFFFF10B50446002005F064F8012044
:2035F00005F08EFA00F07F0040F08001012005F08FFA012005F057F84020002105F088FA22
:203610004120002105F084FA422005F079FA204604F02CFC374CE178062005F079FA217955
:20363000072005F075FA6179082005F071FA4D20872105F06DFA617B092005F069FA31206E
:2036500005F05EFA20F0070040F00301312005F05FFA1E2005F054FA00F00F0040F0C001B2
:203670001E2005F055FA1D2005F04AFA20F00E0040F004011D2005F04BFA1E2005F040FA0B
:2036900040F0040001461E2005F042FA1D2005F037FA00F00F0040F070011D2005F038FAC9
:2036B0001D2005F02DFA20F0010001461D2005F02FFA2220FF2105F02BFA1E2005F020FA25
:2036D00004461F2005F01CFA44F003041E20E1B205F01EFA1F20FF2105F01AFA262005F08A
:2036F0000FFA40F008000146262005F011FA04F04FFA10BD640900202DE9FE4303F0DAFF32
:20371000DFF80C81814608F1020000880027011F8CB26FF00301401880B204285ADBFF25F4
:203730004FF6FF7620466946042204F0B9F9BDF800309E4237D0002B35D0D80BC2032FD13A
:203750009D422DD0381FDDB280B2042815DBB0F5805F12DA00F18852126801A90A60BDF8CB
:2037700004108D4207D0BDF80610401A001F80B20428ECDA01E0012300E00023BDF8020058
:203790001BBB211A001D8BB282B207F18851184604F086F9BDF80200C119091D8FB214E0EC
:2037B000BDF8020011E0BDF8020003466FF30E0363B9011D8C4208DA002004F021FF484632
:2037D00004F010FF0020BDE8FE83241A241FA4B2042CA7DA03F018FC3FB10C484FF08851A5
:2037F0003A4605F0B2FA05F0C3F9484604F0FAFE4246507800281CBF0020011C03D1C7F54D
:203810008054391DA0B25180BDE8FE8304E00100BC0F0020FEB5384C206805F02BFC002852
:2038300068D00079032865D1344D0DF10901A81D019100900DF10A032A4602A90DF10B00C7
:2038500000F068FC2E490878F0B19DF80800294605F03CFCC0B19DF808102A4E2A4601F03C
:203870000101304605F002FC0746FF2F0CD01D204743F019411C0622284604F0BFFFF05DB4
:2038900040F002008DF808001F490868C27C012A1FD1807C002818BF022810D11B4E9DF824
:2038B00008202946304605F0DDFB1F2811D19DF8082000232946304605F0F0FB09E001283E
:2038D00018BF032805D19DF808201148294605F0C9FB9DF909009DF80A309DF80810019016
:2038F0002A46A81D00909DF80B0005F0B7FB206805F0B0FBF7BD00BFD04B0020C8160020D8
:20391000784E0020AC450020144F0020A8480020CC4700207CB53E4E3168054600240020F5
:20393000D9B12A78012A0BD02A7A05F109036946012005F08BFB00B104782978042912D077
:2039500032685278032A18BF54EA02010BD020B1012A04D114F0030F05D1002076BD022A97
:20397000FBD1E007F9D56878A91C03F0C3F90400287826D0042814BFA068E06880B32A7AA2
:20399000017891420CD105F10901401C04F010FD012805D1232004F001FF002836D0DCE76A
:2039B0002878042806D0A068D0B105F0D9F80020A06015E0E06898B105F0D2F80020E06041
:2039D0000EE00428C9D004F07DFA0400C5D028782070062268786070A91CA01C04F00EFF96
:2039F000287A401C80B205F0B3F860B12978042914BFA060E060297A00F8011B05F109013E
:203A10002A7A04F0FBFE287A0028A6D0012076BD984E00202DE9F041394C143C606F676FAA
:203A300004F17408002869D00546E86840F603022026531C02E04068761EF6B260B15EB133
:203A500001888A4218BF8B42F5D129692CC820312CC149C881E84900B868BA6A0025BD6288
:203A7000D0B197F82F0042F00202002300F00700401E09D0401E04D0801E08D14FF08053B5
:203A900004E04FF0804301E04FF000532A46BE683869B7F92C10B04705F0A4F90646B4F918
:203AB0008600401C6FF31F30A4F88600404687F82F5004F0EAFB3046FDF742F9B4F984000E
:203AD000B4F98610884219D1396991F8940080B90F6877B160680068B0F1FF3F0ED001F169
:203AF000700008490968B7FBF1F104F0FBFEBDE8F08181F89450082003F050FDBDE8F08112
:203B1000FC0F0020541700202DE9F8439946904604460E1C44BF0020011C67D405F074F988
:203B300005468021304604F01BF8071C04D097F82F0030F07F0003D1284605F0E7FA53E06D
:203B500097F82F0010F0070F46D10020022107F1200640EA090941EA080896E8030008EA1F
:203B7000000019EA010608BF002820D0284605F0CDFA07F1200003C804F1680604F168057A
:203B900008EA000809EA010986E8000395E80C0007F1200696E8030007F1200599439043B9
:203BB00085E80300683494E80300BDE8F8831048B968884202D0B9682166B86004F1580028
:203BD00080E80003284605F0A1FA04F138004FF0FF3104F039FFE5E7284605F097FA97F855
:203BF0002F0010F0070FFAD102200021BDE8F88325680000F8B505F013F802F035FB05F0F1
:203C100027F8054605F00C000C2854D0E80826D204F084F92A4E376804460120014604F0BB
:203C300046FC31686143884219D22649F020B0FBF7F0241A887C18B1C868A04238BF041CFB
:203C5000214D2146284605F0FDF9284605F0F6F90120FDF7C1FD284605F0ECF92DE028097B
:203C700029D21A4CA4F1200620688168184888470746042FF8D01748690905D227B1014669
:203C90000A6822F0010203E001460A6842F001020A6098310A6842F003020A6030688169F4
:203CB000202088470C4C37682068B86B804701202060206801E005F08BF804F0B7FFF8BD9B
:203CD000C0A10000B8A000005C080020D8010010004003408C2108402C2009402DE9F84F44
:203CF000374E0446B0688047344D05F10802116809191160F1688847286800285BD0A9467F
:203D10004FF0000807463546C246A868804756461FFAA4F3834683B95FFA94F36BB939799E
:203D3000E0B2884204DD79682046884209D20AE03879E1B2401A387108E079682046884220
:203D500001D3314601E07968091A7960B88878B9FB8853B9FB6843B13B8933B1B87A1946BA
:203D700000F0FEFAF8687860B88808B9FB880BB13B896BB9B8F1000F04BF3868C9F800000F
:203D900003D03868C8F8000038683E46074601E0B8463F68E9685846884756B1B08828B90B
:203DB000F08818B9B07A318900F0DAFA304604F0D7FE002FA9D1BDE8F88FC0462817002089
:203DD0003C0A00202DE9F0470D4606465FFA85FA280824BF2E4845402E494FEA8A03C8583E
:203DF00085EA00023240C2F300672B4A06EA0504B043224006F4E0240243B4F5E02F01D124
:203E1000500E14D306F4E020074310D002F4E027B7F5A02707D0B7F5803704BF22F4003274
:203E300042F4A02203E022F4803242F4C022DFF86C80CA5008F1D00739680122002002FA2A
:203E50000AF40C4218BF101C5FEA000906D1F00D04D34146C5F3805001F80A00300E0BD3D8
:203E700004F0C0FF290E34BF0021211C3A68A24311433960FCF764FFB9F1000F06D0F00DA1
:203E900004D34046C5F3805100F80A10BDE8F087006000A000100840007F077F002002403F
:203EB0002DE9FF4704462F48894617464FF0FF31824604F0C9FD2C48E10000EB01080C184B
:203ED000D8F80050666804F08DFFD8F80010096800290BD42968002905DCB9F1000F09D0DE
:203EF0004FF0FF3108E0B9F1000F03D0FCF728FF002430E02968491C2960FCF721FF28685F
:203F1000022828DA1FB903A804F033FF03AF38686860B768684604F0C3FD0094134A307B85
:203F30006B463946019005F12C0003F093F905F16400002103F084FF05F14800012103F0CB
:203F50007FFF706800F082FB094A05F118002346042104F037F8504604F054FF20460090A9
:203F7000BDE8FF87540E002068A10000ED8000008B8D00002DE9F843DFF8C4800546D8F86F
:203F90000000002600281EBF2E4F7868002855D029464DB93A7805E00B01C45CFF2C18BF02
:203FB000761C491C9142F7DB3006400D083080B204F000F9040005D1082004F0FBF8044648
:203FD000002613257CB3D020207065700120A070E670F0B200B304F10809C4F80490002598
:203FF0003878854219DAF0B2B8B1796828010A5CFF2A0ED0084489F800200622417889F876
:204010000110761E811C09F1020004F0F7FB09F108096D1CEDB2E3E76060D8F80000007867
:20403000214604F0E5F93878002101F073FCD8F8000004F095FD0020C8F80000BDE8F183B7
:20405000984E0020D80E00202DE9FE4F304C94F87901002850D000260121354694F879212E
:2040700001FA05F0104203D16D1C032DF6D343E094F879211020A840104218BF0E1C04F0F0
:20409000B1FE94F879211121A9408A4384F87921FCF756FEE8B204F051FB68B3877A5FB3EE
:2040B00090F9098019490768012E456851F828B0019710D0017A02290DD100F1100191E899
:2040D000000600274FF0805317EA0A0703EA090108BF002901D101F023FB012E05D0CDF8EE
:2040F00000B000224FF0006303E000224FF00073009201984146A84794F8790120B104F118
:20411000E000002104F084FEBDE8FE8F94300440E80F00202DE9F8430F462F4904460868EF
:2041300090461D4604F0A6FF814699F8041003291CBF002004F064FA99F80860B00900F016
:204150000100387009F10A0799F80910881F2870C0B22028A4BF002004F052FA062017F800
:20417000011B08F8011B401EF9D106F00F06062E14D8DFE806F011040B1310130E00012062
:204190002070BF1D2878811F29700CE00321217009E0022000E00420207004E0FF202070F7
:2041B000002004F02DFA0898002104E017F8012B00F8012B491C2B78CAB29A42F6D33978D6
:2041D000802918BF81290FBF7F21044A1078091A09980170BDE8F183D04B0020704F0020F9
:2041F00038B5274C0D46A80839D2E80846D32B4854380068006B8047A060E06E00280EBF5C
:2042100060680069606040681E4900780860022003F08EFC112000F019FA0120207460685E
:204230004168886808B9C86810B1174804F060FC1649174D072000230860296815482B6086
:204250006A686B60144B2A68636140EA02011A20296004F0C9FD192004F0C6FD38BDFFF777
:20427000D9FB204600F17401096811B902F076FA38BDAC3045F0020104F0CAFD38BDC04632
:20429000E80F0020D0210840510007060000046014100440020000402D200000E001001014
:2042B0002DE9FE4F0CAF97E800039A4601920646009104F097FD6FF0010B284D029005F50A
:2042D000C074082094F82F7037F07F0739D106F1700004F085FDB5F98400401C6FF31F3074
:2042F000A5F88400009FE760019B84F82E301A49C4F808A0B5F884002022022343EA08039A
:20431000194004F11803A085002040EA090726613A4083E8060004F12002014682E8030068
:20433000802784F82F7005F16C0086F89410214603F0BCFFE86F08B902F010FAB4F92CB075
:2043500003E0401E04F13004BCD10298FCF7F8FC5846BDE8FE8FC046F3EFFF9FE80F002068
:204370002DE9F843DFF8B0802A4E81460C4639F07F0018D1B9F1050F12DA284DA8688047BD
:204390002349096831F81920144321F81940E9688847306841461431426A0868904734E07A
:2043B0000320BDE8F883042003F004FF071C08BF04202BD04FF6FF7038807C8004F0A8FC87
:2043D00041468C78A7F10C05FF2802D0896A09184C79FF2C08D1384603F0FAFF30688068D9
:2043F00080470120BDE8F883484604F011F833680146FF20A8721D68002220463B46A84782
:2044100018B1384603F0E4FFEBE70020BDE8F88358170020CC0F0020FC0D00203C0A002044
:204430002DE9B043044604F0DDFC81462748221892F8F010491ECFB2002F82F8F0703FD151
:20445000254901EB84014A880C78904634F07F0718D1E1090FD24FF0805000F5DC75D0F8C6
:20447000B8018169104688472868416B404688470228F9D11EE000EB8800D0F80411002071
:20449000884717E04FF08055D5F8B801016A10468847D5F8B801816A40468847D5F8B801D0
:2044B000016B404688470A4901200860094908688008FCD304F03F00132801DAFFF7B0FF48
:2044D0004846FCF73DFC0020BDE8B083500800202820086028200840C09D0000294838B5A7
:2044F000001D0468B4F1FF3F08BF002403F066FC032833D12448254B002501211038184A04
:20451000056003F15C00224B0160181D00681160806C80471348006820B11348006820468A
:2045300000F0CCFE114812490560124C0A686FF35B4244EA020008600F490868C0F3013085
:20455000012806D10A680D48104040F400320A6008600B4908680028FCD138BDFEE7C04663
:204570000822044380012843000120438C210840482003400000390104000940FFFFFCFC4D
:204590000C006842181300509404604200600C40EC01001038B51E4C1E4B2568186855F8DD
:2045B000183F00224FF0FF3198471B481B4A416B88684179117004F039FD194804F032FDD7
:2045D00004F02CFD17490A680020507102F0F8FE04F020FD1449154A0020087010801B20E3
:2045F000134A10804FF4A471124A1180FB20124A1249108040F648000880FB21104A11800A
:20461000104A108004F002FD0F490020087032BDF04E0020EC4E0020C8A10000714F0020CD
:20463000CC470020144F0020794F0020524F0020444F0020464F0020484F00204A4F002033
:204650004C4F00204E4F00206F4F0020F8B5064604F0C8FB264D0746711991F8F000421C23
:20467000002881F8F0203ED1224C04EB8604267806F03F00132801DAFFF7E8FF648836F0AB
:204690007F0018D1F0090FD24FF0805000F5DC75D0F8B8014169204688472868416B204671
:2046B00088470128F9D11EE005EB8405D5F804110120884717E04FF08055D5F8B801C16924
:2046D00020468847D5F8B801416A20468847D5F8B801C16A20468847074901200860074920
:2046F00008688008FCD33846FCF72AFB0020F8BD50080020C09D0000282008602820084063
:204710002DE9F84315468946064604F06BFB284C8046241F207C8327B9F1070F2DD8DFE819
:2047300009F03F3835322012042EC0B9E06EB0B9296804F1AC0004F06DFB296804F1E0000A
:2047500004F068FB2EE050B9E06E40B92968192004F050FB29681A2004F04CFB22E000275C
:2047700020E0286828B1012807D1802002F016FF18E0802003F00CFF14E0032712E02878D2
:2047900084F878010EE02868264607E02888708208E00120F568707405F16000F06001E0D0
:2047B000286830604046FCF7CBFA3846BDE8F883EC0F00202DE9F04114460F4604F022FCCA
:2047D0001FFA80F824480068007808B903F026FF0FB338684FF0FF3518B140280AD3810BA4
:2047F00008D17E681EB1310A04D0310E02D1B9680F2908D93DB10CB1284620700820FFF7F9
:204810000FFE002422E04FF08055D5F8CC11BA680B68796808E04FF08055D5F8CC01036820
:2048300001224FF48070014698470C49012008600B4905F5E67508684008FCD328684168A5
:20485000022088470CB10021217004464046FCF777FA2046BDE8F0811C9F0000A802504241
:204870000880024030B52548234908602448ADF1140DFDF793FD23480468234802680023BA
:20489000D907500822600143D007801A99414FF47A72002300F054FB002908BFB0F1004F4E
:2048B00028BF6FF000406060184C0025032004F1240141F80C5F401E8D60FAD104F15401D8
:2048D0000620401E21F80C5BFBD101F001FA62680F480392416801910368009381680291A1
:2048F000684601F0C3FD02F0D5FC02F00FFD04F085FB284605B030BDC00F0020B52E000032
:204910002C9F0000140F0020C0A100003C0A0020A0A000002DE9F8431E461746894604F09D
:2049300061FA224C03258046B9F1FF3F05D1E06F00280CBFE06EE06F03E04846002103F08E
:204950000FF960B390F82F5035F07F0526D0E16F81420DD00146324602F03AF8F0B1207C76
:20497000012819D004F1AC00022104F051FA13E090F82F200121002F01FA07F141EA0201D6
:2049900080F82F1014BF0A480A4803F007FB1EB1E16E324602F01CF8832500E00425404611
:2049B000FCF7CEF92846BDE8F883C046E80F002001000204010001042DE9F041904606460C
:2049D0000F1C08BF05243FD036F07F0003D02248006880688047052EA8BF032407DA57F8B3
:2049F0000C0C18B917F8020CFF2804D00524384603F0EEFC28E007F8026C154C154DA068E2
:204A1000B8F1010F13D080470246002047F80C0CA868002808BFAF6005D0014651F80C0CD9
:204A300018B941F80C7C104606E00146F6E78047A96847F80C1CAF60E168884730464FF455
:204A50000041FFF78DFC00242046BDE8F081C0463C0A0020FC0D0020CC0F00202DE9F0410F
:204A700004F0C0F9244D214E804605F1E000007848B93446A168022088470746102002F0A1
:204A900075FF77B31BE004F0E3F8C0091BD21B483C380068C4681648342101220023A0479D
:204AB00088B101F009FB34460020A16885F8E000022088470746102002F058FF8FB1A168B8
:204AD000032088470DE00B4800683221B1FBF0F101B901213035284604F07EF9284604F0D0
:204AF0007DF94046FCF72CF9BDE8F081B8A0000000A00C405417002050080020E001001044
:204B1000F0B520480127F84201D002F019F9204D204F214EBD4206D203CD0478A4003459A2
:204B3000401CA047F6E71D48002800D08047164D164FBD4202D210CDA047FAE7F0BD03250C
:204B50001BE0416808300A1C2A400BD11A1C2A40AB4305D0046804300C600431043BF9D150
:204B7000131C05D0047801300C700131013BF9D1021C2A4001D0A84304300368002BE0D101
:204B90007047C046FFFFFFFF000000000000000014A500007CA50000CCA4000015C4011018
:204BB0002DE9F84F81460020C9F80000684601F0A7FD204FDFF880A000264FF0FF354FF05F
:204BD000190B34468046E0B203F0B8FDB8B1837AABB1017A0126022915D079684A8A406955
:204BF000C968891897F87A210BFB021103F0FCF851460968B0FBF1F0854288BF051C641C66
:204C1000032CE0D300E00025B8F1000F04D0012E05D0B8F1010F05D0012E04D005E00098FF
:204C3000854200D9009DC9F8005046EA0806F0B2BDE8F88FE80F0020541700202DE9FE4F05
:204C5000244C80460CAF1E460192A0683D7800918047A146B8F1000F029005D1D9F80C1053
:204C700088470220BDE8FE8F174800274FF00F0B4FF0010A041F54F8080FD8B9012D0CBFC8
:204C9000124B134B1048019A008897FBFBF140180AFA07F1C0B2984760B90098C4F80080BE
:204CB000606006B13770D9F80C10029888470020BDE8FE8F7F1C0F2FDDDBD9F80C10029806
:204CD00088470820BDE8FE8F6C0B0020FD7400005D7000003C0A00202DE9F84F0C468146EA
:204CF000E00BC00318BF84F400443BD1002C08BF002038D0DFF878A05546A86880471B4E72
:204D1000834630884FF000084746012303FA07F1214203D17F1C0F2FF8DB1DE04D46E901B8
:204D3000FA00361DA1EBC501C501A5EBC000451AAD18521A1218B158BB401FFA83F8AD1996
:204D500011B19219506888474846414602F038FF10B9002028606860DAF80C10584688477D
:204D700088EA0404A0B2BDE8F88FC0466C0B00203C0A0020002A4AD05FEA000C8B071CD110
:204D9000830722D1102A08D370B4103A78C978C0103AFBD270BC103238D0042A2CD3082A9E
:204DB00005D30C2A24BF08C908C008C908C008C908C092072AD0920F22E00B780370491C96
:204DD000401C521E22D08B07F7D1C30714D18307D8D0121F12D308C903801B0C4380001D59
:204DF000121FF8D20AE008C903701B0A43701B0A83701B0AC370001D121FF4D2121D05D01A
:204E10000B780370491C401C521EF9D1604670472DE9F843234D884606464FF0FF3105F1F4
:204E30002800814603F010FE00200CE0FF2909D02A688A4204D305EB8101D1F898700FB12D
:204E5000002627E0401CB8F1000F03D018F82010FE29EBD10024346074600127B46011E052
:204E7000FF280ED005EB80000B787268C0F8986007FA03F0104370600A680949304602F05D
:204E9000F3FC641CB8F1000F04D008EB84010878FE28E5D1484603F0B5FF3046BDE8F88368
:204EB000007FC7673C0700202DE9F8432020EFF3118780F31188214CA068012104F09AF89E
:204ED0004FF001094FF0000865692168A4F81C906A1A2168A4F81E80461B401A904227D3C5
:204EF00087F3118840462D18361A4846294604F07DF8B042F7D92021EFF3118781F3118884
:204F1000E18B012903D14046294604F06FF8B0F1FF3F06D0A169801B814238BF081C29184E
:204F300001E0A069411904F05DF8A4F820902560A4F81C8087F31188BDE8F88378010020FF
:204F50008B4208BF824204D90B1C021C002100207047002B08BF002A0BD10B1C021C002171
:204F70000020002B08BF002A1CBFC943C04303F0B4B8F0B51C4615460B4602460020002160
:204F9000B4FA84F6202E04BFB5FA85F62036B3FA83F7202F04BFB2FA82F72037F61BB6F1DB
:204FB000200727BF05FA07F400257F42B4403EBF25FA07F73C43B540A34208BFAA4201D306
:204FD000521BA341404149416D0845EAC4756408761EF1D5F0BD70472DE9F043224C8146E0
:204FF0001D4604F108002F68006816468846ADF1240D1FBB0C2000F039FA071C16D0684669
:2050100000212422082303F0E9FF0023069749466A46ADF810301348059303F0DBFF3860D7
:2050300038B903F033FC384602F0D0FB6FF0030015E0C7F80480BE602F6008E080470546D1
:20505000386803F0F7FFBE60E168284688473868494603F0F7FF386803F0F0FF002009B0A0
:20507000BDE8F083258C00003C0A00202DE9F04180461F4800680D464169272088470124DD
:2050900004FA05F61B4DC5F80064C5F87C470327C5F8807718480460C5F88477D5F80404CF
:2050B000012818BFC5F80444C5F8FC6313480460C5F800801023AB60204603F06BFED5F8F6
:2050D0008C076FF39D000028F6D0D5F88C17204611F0404F09D1C5F884770021C5F8FC1658
:2050F000D5F80024164218BF081CBDE8F081C046B00100100440024000E048420000484205
:205110007CB5214D0446286808B1112076BD1F49087810F00A0F01D1122076BD042003F09A
:2051300017FD286070B3022003F050FF28680422214603F063FB03F045FF28B10C2003F09F
:205150002DFB05460D200DE06078022805D1122003F024FB0546132004E0102003F01EFBF8
:205170000546112003F01AFB06460948007803F025FF0346E07800903246A078294603F04C
:2051900019FF76BD132076BD984E0020584F0020594F00202DE9F843214D0746A8688047D6
:2051B00081462048836800246FF00B0680469C4213D013F8020C874208D134B16BB1384670
:2051D0004FF40041FFF7CCF80CE01C460CB9A3F10C0653F80C3C002BEBD138464FF400414C
:2051F00002F0DEFBACB1A8688047D8F80810A4F10807A14219BF54F80C1C316057F8041CE5
:20521000C8F80810002147F8041CFF26BE71E9688847E968484688472046BDE8F883C04678
:205230003C0A0020FC0D00201F48F8B50068806980471E49204D0F686E68B7F57A7F13D0FA
:20525000801B4FF47A720023A7FB0001FFF778FE04464FF47A72002303F0DCFA3A4600233A
:20527000FFF76EFE301800E0841B6860114D05F10800006880470E4E316872680919B1F50B
:205290007A7F0AD34FF47A73B1FBF3F7D2197260B1FBF3F707FB03F2891A3160E9688847C4
:2052B0002046FEF71BFDF8BDCC0F0020140E0020400F00203C0A002028170020204A2DE9C5
:2052D000F04180460124A2F13000046019480768002FFCD01B49184DC0200B1F28601868D5
:2052F000800806D253F8040C144B000C40F0F000187000204FF080571060D7F8F0010E68F4
:20531000016830468847D7F8F0014268314640469047D7F8F001816830468847D7F8A00133
:20533000C1680220884740202860074E3460BDE8F081C0469402224300600C4056620840AF
:2053500040100940B43F00509404604238B51E4D1E4CA87BAB6827280CBF2520401CA87359
:2053700040F6C4102168CA8800FB0233AB600889824204D103F01AFE00F6C410A8600020D6
:2053900068801348C17E01F0E00141F08101C176002101620F49087888B12268D07A02282C
:2053B00018BF03280BD10C4D05F10D0003F0FAFD28B920680622E91D0C3003F01FFABDE835
:2053D000314000F065BD00BF9C4C0020144F0020D04B0020784E0020AC4500202DE9F8436D
:2053F0008146EFF31188202080F311881E4D1A4C184F012605F11C000660A4F11400066029
:20541000F86A016A14208847D9F81000810C14BF000C042020603868026823210020904776
:205430000E480F4F0660386800280CBF311C03210C4807680FB141F00401183C206820F495
:20545000E02040EA014020602E6088F31188BDE8F883C0468401001018200940800224438A
:2054700094A1000098A1000000002443F8B5041D14F003001CBF241A241D03F007F91D4ABE
:20549000054657691561102C88BF9769386800231E46010821D226B9844209D93B460126A6
:2054B0001EE0196809188C42196019D81F460846DFB1D169001B042807D23868091AD16172
:2054D000386840F00040386005E0385144F000403860091BD1613F1D07E080F0004000262B
:2054F0003F1838680028D4D10027284603F0D9F93846F8BD3C0A0020FEB5214C251D20461D
:20551000294601F033FB00260835606831464FF000424FF0FF3303F005FE0028F5D00096E0
:2055300001A80DF106016A4602F088FA0028ECD1BDF804100120102918D121789DF8062044
:20555000914213D1009A1178D0290FD197783FB957782FB91146C91C0B682B608988A98056
:20557000A7681FB1396809B11046884700990029CBD00028C9D0084603F009FCC5E7C046A6
:2055900048050020F8B500680E4617464FF0FF310446483003F058FA4FF0FF35092E08D0D0
:2055B000217A0120B040084212D108433546207211E0237A0721012000FA01F2134202D0BF
:2055D000491EF9D504E0227A88400D4610432072B5F1FF3F15D0A7B1062002F0A9FA2946BB
:2055F0003846FFF743FD0746062002F057F947B1217A0120A8404FF0FF3580F0FF0008406C
:20561000207204F1480003F0FDFB2846F8BD704770B51D490A685379012B07D01B4C1C4D4A
:205630001C4EE0B1012803D0122070BD0C2070BD307838BB05F10D0003F0B4FC68B972686F
:2056500020784FF4805101F001FD08B1032070BDE91D05F10D0003F01DFD012011E03078C6
:2056700080B105F10D0003F09DFC48B920784FF4805102F073F820784FF4805102F090F929
:2056900000203070002070BD144F00206E4F0020AC450020784E00207CB5040004BF00207E
:2056B00002F0AEFF16494C60606900B180476068017B01F00F0102290CBF806803F076FC67
:2056D000A0601049104B0878002814BF0F4810480021CDE90001022261680E4C0E482568DA
:2056F000006855F8086FB0470C4910F1020F088004D1BDE87640002002F082BF73BD00BF16
:2057100034170020784E0020A97E00000204848002048080F04E0020EC4E0020424F002088
:20573000F8B5074603F05EFB044687B3B87A70B397F9092002F00CFE012303FA02F1CDB2F2
:2057500050B1154E113203FA02F0331D1A6882431A60C64343F8046C00200246BA723A729E
:205770003A6007F110067A60034686E80C000B4AB86102F5BC7003781943017092F87A01F6
:2057900010B1401E82F87A01284601F007FF2046FBF7D6FAF8BDC04608100440E80F00202A
:2057B0002DE9F8431C4C1B48194DE66F01680D40E94301604368476803F020032B4007F4E9
:2057D000602715D0A6B106F1200090E80003C4F8806000211A00203641EA080804F1AC005B
:2057F00042EA09094FF4005186E8000303F010FB17EA05000AD094F8791141EA504084F82B
:205810007901002104F1E00003F002FBBDE8F88320000E0008100440E80F002038B5044620
:205830001948417808062ED5184D287870B1184A117859B9032002F0BDFC010023D0912295
:205850000A70102048708C70287818E00C2002F0B1FCC0B101210170FF21417000F10801A8
:2058700041600421426811701021426851700121426891704168CC70014606480078BDE827
:20589000344002F0B5BD31BD1C4E002062170020624F00206117002070B51C4E1C4D317805
:2058B00004462878891C8842A4BF002002F0A8FE0022A868182151430144487828B90B78FC
:2058D000FF2B0DD0686881420AD13078521CD2B2801C8242EDDB002002F092FE002070BD92
:2058F0000020486048610C70012048706878204368702878401C2870C0B201281CBF802C01
:20591000402C00D16960084670BD00BF7B4F0020341700202DE9FC411C4D804668680C463E
:2059300088B3002617E037010830C05930B103F017F9696801F108020020D051686800F1C3
:205950000C01C85930B103F00BF9696801F10C020020D051761C46456868E4DB24B103F0AB
:20597000FFF8002068600EE068B14FEA0812002103F058FA69680020FF2202E00301401C24
:20599000CA544045FADBBDE8F38100BFD80E00202DE9F041074603F0BBF916461A4AD21EB6
:2059B0009478A6F10C05FF2802D0926A12185479DFF85080FF2C04D14046006880688047F3
:2059D0001DE0084602F024FD01464346FF20A8721D6837B92046EC6B00223346A04740B1AB
:2059F0000AE0012F08D120462C6800223346A04710B90020BDE8F081304602F0E9FC0120BB
:205A1000BDE8F081CC0F0020FF0D0020002213460A46194671B510F0030F0BD0002A82BF91
:205A300000F8011BB2F1010210F0030FF6D1002A08BF71BD11F0FF0141EA0121042A18D33D
:205A500041EA0141082A0FD30E46102A08D30C460D46B2F10F0312F00F0272C0103BFCD88E
:205A700012F0080F18BF42C012F0040F18BF40F8041B12F0020F18BF20F8021B12F0010FB0
:205A900018BF017071BD704738B5194D6868D0B9FBF794FA00248DF800006A468DF802407D
:205AB00003208DF8034013498DF801001020FCF7BBFF05F1140014222146FFF7ABFF6FF086
:205AD0007E0085F8250001246C6028680C21002201F048FD094808490068B1FBF0F0FAF709
:205AF0008DFC28680C21224601F03CFD38BDC046D80A002011510000A0860100C0A10000D7
:205B10002DE9FC4100F07F001A4C8DF8000094F88F001746884620B9206800210A4601F0BF
:205B300021FD6846012100F0A7FFCFB1082600256800C5B220680321012201F013FD02202D
:205B500002F028FF08B145F0010520680321002201F008FD761EEBD17F1E08F8015BE5D165
:205B700094F88F0020B920680021012201F0FAFCBDE8FC81D80A00202DE9FC41044600208D
:205B900002F086FF184E0546B0688047804601F091FD074604222146284603F0D6F8384622
:205BB00002F020FD0025012702E02D1D241DADB23846411ECFB278B128466946042201F0F2
:205BD0006FFF68462146042202F0E2FA0028ECD00449012048700870F16840468847BDE869
:205BF000FC81C046BC0F00203C0A0020FEB50C46154640F67B41A21F8A423CBFAE1F8E424A
:205C100029D2A54227D3B3F5FA7F24DA0899A1F10A0640F67747BE423FBF5B1C6E005E43BE
:205C3000B6EBC10F17D290F8941041B1D0F834010A21B0FBF1F1C9006B4399420BD30C9952
:205C50000B98019100900A9B099A2946204603F0A5F9012801D10120FEBD0020FEBD704758
:205C7000F8B51A4C05461C3CA06A2860E069686002F00CFDA66984460020C4F810C00746EE
:205C900003463C4612E0110809D21FB91346304601270AE001689B188918016005E082F015
:205CB00000420027A34288BF1C1CB6183268002AE9D19C4238BF1C1C604602F0F2FD2046C1
:205CD000082894BF00200838A860F8BD580A0020F8B5184C207801282BD0174E012026F029
:205CF0000306164B2662226A207004F124050020314662629B1B2F68A362F61801E041F893
:205D1000040B8E42FBD8991002EB810123F0030341F8040CE8213960EC3BC2F8E830E83292
:205D30006261FFF7A3FBA06128686061A06A001FE061F8BD3C0A00206C1700200040002022
:205D5000B0B51A4C0546241D20680004070C27D01448006800688047134991F90720824282
:205D700005DD10F1800FB8BF6FF07F00C871BD422CBF01277F1B8D88BD4210D80A68D4F82D
:205D9000D40F801A801C1F2888BF1F207F1B4008C7404FF6FF70EF19B84238BF071C8F8045
:205DB000B0BDC046EC010010481700203010094038B51A4C94F8900040082ED3002512204C
:205DD00084F88F5002F09CFEC10905D228B31220FF2102F09DFE1EE01220FF2102F098FE99
:205DF0001E2002F08DFEC00815D30D20294602F08FFE132002F084FE84F8290064280AD259
:205E1000024604F12B012846FFF77AFE84F82A50012084F8280001F0BBFE38BDD80A0020D1
:205E3000BFB50C46E00BC00308BF00202CD017480078FFF7AFF9071C23D03B6818690090BC
:205E50005869019098690290D86903907D6859689A681868DB68A8473968086017F8080CF3
:205E700001F044FC0546012002F0A4F9021C08D0422035F07F07107003D000202946FFF70B
:205E900087FD84F40044A0B20090BFBD6817002070B5194E75681DB9BDE8704003F07AB8FC
:205EB000287801281CBF0228042820D102F0EEFEE8B12878FDF7FAFA0446606808B902F023
:205ED0009FFBA4B12078A54205D102280AD0002002F096FB06E0022809D1084905200870EF
:205EF0000221B1702046BDE87040FFF7D5BBBDE87040002002F084BB341700206F4F00201E
:205F10003EB50D46280411D516490878FFF742F9040009D02078032812BF0128E06800F037
:205F300035FF204602F054FA85F4004568070AD50D496846D1E90023C0E90023082102F0A3
:205F50005DFF85F0040528070AD508496846D1E90023C0E90023082102F050FF85F00805B5
:205F700028463EBD6117002000A2000008A20000174810B50068016804208847022821D0C1
:205F900003281FD001281AD012480068C0F38150032805D002280CBF41F28832322201E067
:205FB0004FF47A720C490D4C09684C342046B2FBF1F102F011FF204602F010FF10BD01F0E7
:205FD00059FA10BD01F056FA022001F067FC10BDE0010010B43F00505417002058080020CE
:205FF0002DE9F0410D461E4690460746062D26DA062F24DA02F04AFB1349AC0004EBC50413
:2060100002460C3164186068B0B1104602F049FC06F8087C06F8075C06F8068C6068314607
:20603000083001F09FFE606840684FF0004103F055F80020BDE8F081104602F032FC6FF04F
:206050000200BDE8F081C046840A00202DE9F0410D461E4690460746062D26DA062F24DADD
:2060700002F014FB1349AC0004EBC5040246383164186068B0B1104602F013FC06F8087C20
:2060900006F8075C06F8068C60683146083001F069FE606840684FF0005103F01FF8002006
:2060B000BDE8F081104602F0FCFB6FF00200BDE8F081C046580A002038B54FF08055D5F8AE
:2060D000E001016801208847012822D0D5F8A401C4681148342101220023A047002808BFF3
:2060F000002017D0D5F8800001F094FFD5F88C01C06A80470A4A094C93681168D060C01A46
:20611000A1EB910104FB00F3180C884228BF011C1160012038BDC04600A00C4040420F0063
:206130000417002098B5164C94F8E100002710B91448007860B102F055FE94F8E310002936
:2061500006BF012184F8E3100127FAF7F9FD0FB1002098BD022001F0EBFC0E20FEF776FA08
:20617000094A106848B909494020C86008600127D761002084F8E20098BD012098BDC04652
:2061900050080020CDA0000004800C402C500C4070B5194D0646286860B3307A143080B2D8
:2061B00002F008F8040025D0D02121700020607006220D20A070B11C3078E07096F8280092
:2061D000E07270782071601D02F018FB307A207340B104F11400206106F10901227B02F01A
:2061F0000DFB00E02061286800782146BDE8704002F0FEB870BD00BF984E0020012898B552
:2062100027D116480068016801208847012820D001F09AFF134C012104F1D800017002F003
:2062300017FD800917D20E4800683222B2FBF0F707B90F46083C04F1300002F0D1FD04F1EF
:206250003000394602F0C8FD04F1300002F0C6FD01E000F051FE002098BDC046E001001062
:206270005417002058080020164880B507683FB315498B6803EA5300C00E21D2134A1068E8
:2062900080081DD2486880081AD21068096810F0050F4FEA114101F0F00101F5E0710AD1C7
:2062B000B9420DD2190F38BF40F00100D90E38BF40F0040003E0B94202D920F00500106054
:2062D00080BDC04628500940AC3F00500000094010B502F087FD1349097802291AD0FAF708
:2062F0002FFD11480068006B8047104A002302F091FA0F4C4FF090531B1820684FF07A0480
:206310004FEA000244EB010400215B1844EB0204241C04E0074990390C68FAF711FD20461F
:2063300010BDC046F80F00208C01001000093D000017002094300440F8B5844640F6FF7411
:206350001CF8013B002210E0481B401E10F8015B7F1E01F8015BF9D103E01CF8010B01F8EE
:20637000010B521C5B08082AEADA5808F5D21CF8010B1CF8015B05F00F07FF1CC5F303158D
:20639000122F45EA001508D11CF8016B300A24BF1CF8010B60F3DF16BF19AC42D4D1F8BD6A
:2063B0002DE9F843174C0646A0688846804781460F2E1EDA124901EBC6004068C8B10F20D7
:2063D0000127B6FBF0F5B7400E46308839464019C0B201F0F5FB60B1308839464246401998
:2063F000C0B200F033FEE168484688470020BDE8F883E168484688470220BDE8F883C04626
:206410006C0B00203C0A00202DE9F041046890460F4602F022FB4FF0FF36012510B902F02D
:2064300047FB30B185F00105E8B2002808BF002100D0616804F14800044602F005FB90B9A9
:20645000B7F1FF3F0CD0062001F072FB39464046FEF70CFE0746062001F020FA07B900267E
:20647000204602F0CFFC3046BDE8F081B0B50446ADF1400D02F08AFD054600213C22082355
:20649000684602F07FFD60680690A068089020680490E06805900C480022694602F06EFD57
:2064B000071C0DD002F0F2F80446384600F0D6FB30B1204602F0F5F9284602F05BFD01E0A7
:2064D00002F0AAFC10B0B0BDD18A00002DE9F0411D4616468846044602F008FE00F0BEFBCD
:2064F000071C08BF6FF002041BD002F0CFF80E4A002132F80C3F53B914805760C2F8088012
:20651000317079680024296002F0CBF909E0A34208BF6FF00204F7D0491C0629E9D302F083
:206530007BFC2046BDE8F081840A00203EB5401E4FF000040AD0401E04D0401E1DD1FCF7CB
:20655000ABF91AE0FFF7EEFD044616E0684602F0F7FB20460C4D019401226B468DF800002D
:206570000749029005F1780000F0B0FA054A2C21234605F19C0000F06DFE20463EBDC046C8
:20659000B56600007D070000500800202DE9F04114460D46804602F0A9FD01F0F9FB061C7B
:2065B00008BF6FF004001ED002F070F8B768002F08BF002708D057F80C1CB160002347F85B
:2065D0000C3CFF2207F8022C02F06BF957B117F8080C88F8000017F8070C287000202760B3
:2065F000BDE8F0810220BDE8F08170472DE9F04106465FEA010808BFDFF840801048007873
:20661000C8B1104C07460025B54204D02068C0698047064209D0206840684146024620465A
:206630009047002818BF201C06D17F1E04F10C0405F10105E8D10020BDE8F08123A0000011
:2066500086A10000C40F002070B5154D01284FF0010410D002F01AF8297851B1491EC9B2B3
:20667000297031B902F01DF9062001F009FB002413E006460EE002F009F8064629460878E5
:20669000FF2807D0401CC0B20128087002D1062001F00DFB304602F004F9204670BDC0468D
:2066B000300F00201348144A14490078801E0A2807D8DFE800F019140F06140F06140F06E3
:2066D00007C0FEE710688008FCD250688008FCD2FCF7E2B808688008FCD3FCF7DDB80868D6
:2066F0008008FCD2FCF7D8B810688008FCD3FCF7D3B8C0463409002034600C4038600C403D
:20671000154AB0B5054602F15C000768E7B1F868007B012400F00F00022818BF002015D1FE
:206730003969F8684B8AC9688068103AC91892F87A31192202FB031101F056FB05490968AC
:206750002860B0FBF1F001E00020044628602046B0BDC04654170020F80F002038B5154C69
:20677000207C022821D0012822D002F03BFB05466846FEF715FA80B1009949B904F18800C9
:2067900002F02EFB04F1AC00042102F041FB08E004F1880002F0A6F803E004F1880002F093
