:020000040800F2
:1000000020A4002065010008293E0008B939000835
:10001000D13D0008B1070008F54F000800000000BE
:10002000000000000000000000000000F142000895
:10003000630A000800000000593F0008354B000823
:100040007F0100087F0100087F01000809400008C7
:100050007F0100087F0100087F0100087F01000880
:100060007F0100087F0100087F0100087F01000870
:100070007F0100087F0100087F0100087F01000860
:100080007F0100087F0100087F0100087F01000850
:100090007F0100087F0100087F010008390E000879
:1000A0007F0100087F0100087F0100087F01000830
:1000B0007F0100087F0100087F0100087F01000820
:1000C0007F0100087F0100087F0100087F01000810
:1000D0007F010008E54F00087F0100087F0100084C
:1000E0002D0E00087F0100087F01000800000000BD
:1000F0000000000000000000000000000000000000
:1001000000000000000000007F0100087F010008DF
:100110002D4C00083D4C00087F0100087F010008BD
:100120007F0100087F0100087F0100087F010008AF
:100130007F0100087F0100087F0100087F0100089F
:100140007F0100087F0100087F0100087F0100088F
:10015000DFF80CD000F082F900480047E98600087B
:1001600020A400200648804706480047FEE7FEE737
:10017000FEE7FEE7FEE7FEE7FEE7FEE7FEE7FEE757
:10018000B14B000851010008202A04DB203A21FA73
:1001900002F00021704721FA02F3D040C2F12002A0
:1001A00091400843194670470649074A086850437A
:1001B00043F2390210440860400870470149086062
:1001C00070470000600100206D4EC64140EA010307
:1001D0009B0703D009E008C9121F08C0042AFAD2FD
:1001E00003E011F8013B00F8013B521EF9D27047C1
:1001F000D2B201E000F8012B491EFBD27047002269
:10020000F6E710B513460A4604461946FFF7F0FF15
:10021000204610BD421C10F8011B0029FBD1801A9A
:10022000704730B504460020034600E05B1C934253
:1002300003D2E05CCD5C401BF8D030BD30B5054644
:100240000020034600E05B1C934205D2EC5CC85CD6
:10025000201A01D1002CF6D130BD2DE9F04D81EAF4
:10026000030404F0004B21F0004514464FF0000A4F
:1002700023F0004150EA050220D054EA01021DD0CB
:10028000C5F30A570246C5F31303C1F31300C1F3C4
:100290000A5640F4801543F48013A7EB0608101BA0
:1002A000D64608F2FD3873EB050002D308F10108C9
:1002B00001E092185B41B8F1000F03DA002001461B
:1002C000BDE8F08D00204FF48011064684460EE014
:1002D000171B73EB050705D3121B63EB05030643DE
:1002E0004CEA010C49084FEA300092185B4150EA91
:1002F0000107EDD152EA030012D082EA040083EA3A
:100300000501084305D0101BAB4106D20122002392
:1003100006E000224FF0004302E06FF001025310AC
:100320001AEB06004CEB085110EB0A0041EB0B01F5
:10033000BDE8F04D00F035B80EB540F23341029102
:100340000021CDE900110A460B4600F039F803B050
:1003500000BDC1F30A5210B5C1F3130140F2FF33DF
:1003600041F480119A4201DA002010BD40F233437B
:100370009A42A2F2334203DC5242FFF705FF10BD5E
:10038000904010BD202A04DB203A00FA02F1002040
:1003900070479140C2F1200320FA03F319439040C3
:1003A000704710B5141E73F1000408DA401C41F1C7
:1003B000000192185B411A4301D120F0010010BDE9
:1003C0002DE9F04D92469B4611B1B1FA81F202E05F
:1003D000B0FA80F220329046FFF7D4FF04460F4671
:1003E00040EA0A0041EA0B0153465A46084313D03B
:1003F000114653EA010019D0C8F140025046FFF7F8
:10040000C3FE05460E46504659464246FFF7BAFF20
:10041000084305D0012004E020463946BDE8F08DB0
:100420000020054346EAE0762C4337430A986305EB
:10043000E40AA0EB08000022FD0A44EA47540A300F
:1004400002D500200146E9E7010510196941DDE9FF
:10045000084500196941BDE8F04DA2E7064C074D7B
:1004600006E0E06840F0010394E807009847103484
:10047000AC42F6D3FFF770FE80C90008A0C900089F
:1004800070B58C1810F8015B15F0070301D110F856
:10049000013B2A1106D110F8012B03E010F8016B83
:1004A00001F8016B5B1EF9D12B0705D40023521E06
:1004B0000DD401F8013BFAE710F8013BCB1A921C6E
:1004C00003E013F8015B01F8015B521EF9D5A1426C
:1004D000D8D3002070BD000010B50C2101A003F09E
:1004E0003CFD10BD496E746F20417070210D0A00F3
:1004F00010B50C480C4908620846007F401E08777A
:100500000846007F18B9032081F8240008E0064857
:1005100090F82400012803D10021052000F0D4F92F
:1005200010BD000020BF0200B895002070470000F9
:1005300010B586B0044603F0DDFB00F08BFA00F046
:10054000BBF900F0F1F900F039FA00F0C3F92C2101
:100550001848FFF754FE184816494861886100F0B2
:1005600075F832220021154803F0A4FB114825300C
:1005700013490A68026089888180142211A101A8A8
:10058000FFF724FE06220B4925310DF1070000F08C
:1005900015FF122101A803F0E0FC10210EA003F0CA
:1005A000DCFC41F2883200210F4803F083FB00207D
:1005B00006B010BDB8950020002E9302DD0600089D
:1005C000E8F7FF1F49443A303030303030303030B7
:1005D0003030300D0A000000506C656173652049B1
:1005E0006E707574210D0A00D904000810B543F629
:1005F0009824104840692146884204D30D48406938
:10060000401A0C4948610B48806943F6982188429A
:1006100005D308488069401A0649886109E0064800
:1006200004498861084690F82400022801D000F0AF
:100630000DF810BDB8950020002E930204E003F0E1
:1006400003FB002000F070F8F9E7000010B501206E
:100650000549087705480862012081F82400002137
:10066000052000F031F910BDB895002020BF020030
:1006700008B51948007F00281ADD6946012000F0FE
:1006800023F99DF80000022805D1134981F82400C0
:10069000002008770BE09DF80000032802D1FFF747
:1006A00027FF04E00C48006A08B9FFF721FF12E0B9
:1006B0000948006978B96946062000F005F99DF8F7
:1006C000000038B90021012000F0ECF800210320DF
:1006D00000F0FAF800BF08BDB895002010B5044638
:1006E0000F480069322805D30D48006932380C499B
:1006F000086102E000200A4908610948006A3228BE
:1007000005D30748006A32380549086202E0002034
:100710000349086232220021024803F0CBFA10BDDF
:10072000B8950020DD06000830B5C1B005460020B0
:1007300004F062F800F056F958B94FF4807101A83E
:1007400000F05CF90446002C03DD214601A803F00B
:1007500001FA00F01DF930B94FF4807101A800F0E2
:1007600023F9FFF743FFFFF783FF41B030BD0000DF
:1007700010B50446044A32F81410044A52F8240012
:10078000002201F0D1FD10BD6CC60008A0000020C1
:1007900010B50446044A32F81410044A52F82400F2
:1007A000012201F0C1FD10BD6CC60008A0000020B0
:1007B00000BFFEE7F0B503460C46002000250021EF
:1007C00000BF09E0C6B25F5C86EA0705044E36F852
:1007D000156086EA1020491CA142F3DB1080F0BDB1
:1007E00098C6000810B5044601F0A4FD0649096842
:1007F000401AB0F5FA7F06D301F09CFD024908606B
:10080000204600F003F810BDDC0000203EB5044691
:1008100021480078012804D002280DD0052838D1BD
:1008200030E000206060A060E06002201A4908709B
:10083000204605F0FFFE2DE0204605F057FF30B1C1
:100840000320154908700020FFF7A2FF19E0656A30
:10085000A87A042815DD04200F490870204605F009
:100860002FFF0E4802906FF07F4001900C480090DF
:100870006B4601AA02A9204608F0CFF90020FFF735
:1008800087FF07E0204605F01BFF002002490870A3
:1008900000E000BF00BF3EBDE0000020C0A8000A8D
:1008A000C0A80001024612B1012A02D100E000E016
:1008B00000BF00BF002070470248002101800020D7
:1008C0007047000000010020024600BF00BF00206A
:1008D0007047000010B504F0E1FB00F005FB00F0EC
:1008E000FFFC03F0BFF804F0C5FC00F075FB03F05B
:1008F000CFF868210548FFF782FC4FF4FA72002117
:10090000034803F0D7F9002010BD0000009A002032
:100910002D3E000870B504460D46264629467068EF
:1009200003F058FA284670BD10B516480021016042
:10093000416081600F2013494860134813490860E3
:100940004FF0FF304860084602F0C8FC08B100BF15
:10095000FEE701210D4802F047FC43F2F2218842F4
:1009600005D10A4802F058FC08B100BFFEE707486D
:1009700002F096FC43F2F2220121044802F040FC0E
:10098000002010BD9C9D002000280040A89D002054
:1009900000BF0448007810B94FF0FF30704700BF27
:1009A0000020FBE79C9D002010B50246012000239B
:1009B000014C237010BD00009C9D002010B56921E2
:1009C0000648FFF71CFC03F023FE4FF47A72002167
:1009D000034803F06FF9002010BD0000BC9D00200B
:1009E000CD47000800BF0448007810B94FF0FF3031
:1009F000704700BF0020FBE7BC9D00202DE9F041BF
:100A000004460F46084845782646807830702A46C6
:100A10000549C91C701CFFF7D9FB0020024908706A
:100A20002846BDE8F0810000BC9D002070B504465A
:100A30000D4626463078064981F86700E9B27068AD
:100A400003F02AFF307803F0AFFE284670BD0000A7
:100A5000BC9D002010B504F02FF804F0DFF8002052
:100A600010BD7047016801F58051896921F00202CB
:100A7000016801F580518A617047016801F5805174
:100A8000896941F00202016801F580518A6170476D
:100A9000016801F58051896921F40052016801F56E
:100AA00080518A617047016801F58051896941F47C
:100AB0000052016801F580518A61704708B5084904
:100AC0000968C9084FF47A72B1FBF2F14143009111
:100AD00000BF00BF00994A1E00920029F9D108BD4D
:100AE0009C00002038B5044600200090206800F5E6
:100AF0008050806940F48011206800F58050816149
:100B0000206800F58050806900900120FFF7D6FF33
:100B10000099206800F58050816138BD30B50346EA
:100B20001479557944EA0520084C0C442064D478A3
:100B30002406957844EA0544557844EA0524157856
:100B400044EA0500014C0C44606430BD0080024062
:100B500070B5ACB004460E46002526B14FF40061D6
:100B6000E160C900A16000200F90109011901290D8
:100B700013901490E06918B94FF48060159001E06B
:100B8000002015904FF400701690002017901890D8
:100B900019901A901B9040201C9000201D901E90D0
:100BA0001F902090219022902390249080202590C7
:100BB000002026902790289029902A902B9020683A
:100BC00005686F480540DDE90F01084311990843A6
:100BD00012990843A16808431399084314990843DC
:100BE000E168084315990843169908431799084383
:100BF000189908431999084305432068056020683F
:100C00000568012000F0E0FC20680560DDE91A01BC
:100C100008431C9908431D9908431E9908431F99CE
:100C200008432099084321990843216848602068B7
:100C30004568012000F0C8FC2068456022982168C2
:100C4000886023982168C860206885694FF64170E4
:100C50000540DDE9241040EA014026990843279920
:100C6000084328990843299908430543206885616A
:100C700020688569012000F0A7FC20688561DDE916
:100C80002A0108432168C8612068C569012000F075
:100C90009BFC2068C561002000904FF0007001901F
:100CA000002002904FF40010039000200490059063
:100CB0000690079004200890C005099040120A9001
:100CC00080010B9040120C9000200D900E90206837
:100CD00000F5805085692B480540DDE90001084397
:100CE0000299084303990843049908430599084366
:100CF0000699084307990843089908430543206863
:100D000000F580508561206800F5805085690120DC
:100D100000F05AFC206800F580508561DDE909018A
:100D200008430B9908430C9908430D9940EA810048
:100D30000E99084340F40001206800F580500160DE
:100D4000206800F580500568012000F03DFC206817
:100D500000F580500560A069012809D1206800F5E0
:100D60008050C06908490843216801F58051C86175
:100D7000002120466269FFF7D1FE2CB070BD000053
:100D80000F8120FF233FDEF84000010038B5044604
:100D9000002000902068006820F0040021680860AE
:100DA0002068006800900120FFF788FE0098216805
:100DB000086038BD38B504460020009020680068FF
:100DC00040F004002168086020680068009001205D
:100DD000FFF774FE00982168086038BD38B50446F6
:100DE000002000902068006820F00800216808605A
:100DF0002068006800900120FFF760FE00982168DD
:100E0000086038BD38B504460020009020680068AE
:100E100040F0080021680860206800680090012008
:100E2000FFF74CFE00982168086038BD10B54FF4FC
:100E3000804001F0D5F810BD10B54FF4007001F0FE
:100E4000CFF810BD30B58DB0154890F8660000F0B1
:100E5000040018BB342213496846FFF7B7F9684607
:100E6000FFF7D8F9C4B21048FFF7D4F905460DEBE7
:100E700004002A460C49FFF7A9F90B48FFF7CAF905
:100E800005192946684604F093FB054890F866006A
:100E900040F00400024981F8660000BF0DB030BD8B
:100EA000009A0020CCC800080401002010B50948B1
:100EB00090F8660000F0040058B10D2106A004F07F
:100EC00077FB044890F8660020F00400014981F89F
:100ED000660010BD009A002041542B434950434CFA
:100EE0004F53450D0A0000001FB5012001900290EC
:100EF000032003904FF4807000906946204801F071
:100F00007DF80220009069461E4801F077F8012024
:100F1000009069461B4801F071F81B481B490860A6
:100F20004FF4E1304860002118488160C1600161E0
:100F300081610C21416102F0A5FA08B100BFFEE712
:100F4000124802F05DFB08B100BFFEE770211048B7
:100F5000FFF755F901221102094801F0E5F90122D4
:100F60000221084801F0E0F900220121054801F0C2
:100F7000DBF9012206496C31044802F031FC1FBD47
:100F800000100140000C014000500040E49C002093
:100F9000D89A002010B50E480088642802DB632030
:100FA0000B4908800A4890F86C1002880088401CA1
:100FB000074B1880981C81540120194681F866005F
:100FC0000020886601226C31024802F009FC10BD45
:100FD000D89A0020E49C002010B500200E4981F82A
:100FE0006D0081F86E00012211020C4801F09CF99D
:100FF0004FF47A7200210A4802F05CFE0A220021B6
:10100000084802F057FE084890F8660020F00400F7
:10101000054981F8660010BDD89A002000100140F3
:10102000991100082D100008009A00202DE9F047C2
:101030008146294890F86600012845D12648806EEF
:101040000A30254988660846806E1E283CD38D1CD0
:101050008E1C0846078800242DE007221FA1304679
:10106000FFF7ECF888B996F80780B8F1300F02D195
:10107000FFF71CFF08E0B8F1310F05D10120164938
:1010800081F86E00FFF7DEFE00BF0FE0285D0D283F
:1010900007D1601C285C0A2803D1A01C84B22E1939
:1010A00005E0601C84B2BC4200DB00E0EEE700BF5C
:1010B000BC4200DB00E0D0E700BF0020064908800A
:1010C00081F86600886600BF0A220021AFF2A30003
:1010D00002F0F0FDBDE8F087D89A00202B4347418D
:1010E00054543A0070B586B005460C464FF0FF36B2
:1010F000234890F8660000F0040000283DD0142238
:1011000020A101A8FFF762F84FF47A7094FBF0F089
:101110000A2190FBF1F201FB12003030C0B28DF8D1
:101120000F00642094FBF0F090FBF1F201FB120041
:101130003030C0B28DF810000A2094FBF0F090FB24
:10114000F1F201FB12003030C0B28DF811000A201C
:1011500094FBF0F100FB11403030C0B28DF812006A
:10116000112101A800F0B0F8322002F0CDFD214697
:10117000284600F0A9F8002600BF304606B070BD32
:10118000009A002041542B43495053454E443D3072
:101190003030310D0A00000010B50446354890F893
:1011A0006D0030B1012818D0022847D003285ED145
:1011B0004FE000224FF480712F4801F0B5F82D4820
:1011C00090F86D00401C2B4981F86D0042F21072BE
:1011D00000212A4802F06EFD49E0052128A000F018
:1011E00073F8642002F02AFD092127A000F06CF8B2
:1011F000642002F023FD092126A000F065F8642098
:1012000002F01CFD0D2126A000F05EF8642002F023
:1012100015FD0A2126A000F057F8642002F00EFD0B
:10122000144890F86D00401C124981F86D004FF48D
:101230007A720021114802F03DFD18E00B211FA039
:1012400000F042F842F2107200210C4802F032FD28
:101250000DE0084890F86D00401C064981F86D00CB
:101260004FF47A720021054802F024FD00BF00BF50
:1012700010BD0000D89A002000100140991100080C
:101280004154490D0A00000041542B4347534E0D71
:101290000A00000041542B43494D490D0A0000004B
:1012A00041542B47505352443D31300D0A00000049
:1012B00041542B4750533D310D0A000041542B43FC
:1012C000474154543F0D0A0070B504460D46AAB27A
:1012D0002146024802F043FB70BD0000E49C002060
:1012E0001FB5012001900290032003904FF480600D
:1012F00000906946154800F081FE154815490860C0
:101300004FF416504860002112488160C1600161AD
:1013100081610C21416102F0B5F808B100BFFEE720
:101320000C4802F06DF908B100BFFEE770210A48D1
:10133000FEF765FF00224FF48061044800F0F4FFDF
:1013400001220649034802F04BFA1FBD000C014080
:10135000004C0040249D0020D89A0020889C00204A
:1013600010B50E480088642802DB63200B49088012
:101370000A4890F86C1002880088401C074B1880BF
:10138000981C81540120194681F866000020886667
:1013900001226C31024802F023FA10BD1C9C00208F
:1013A000249D002070B504460D46AAB26423214650
:1013B000014802F069FA70BD249D0020F0B5034693
:1013C0000C46154600260021691E25E0625CD717F1
:1013D00002EB177738110A2803DD00F13702D0B28B
:1013E00002E000F13002D0B23246761C9854625CC2
:1013F000D71702EB17773F11A2EB0717F8B20A28AD
:1014000003DD00F13702D0B202E000F13002D0B2C9
:101410003246761C9854491E0029D7DAF0BD0000E8
:1014200070B50446002594F82100022803D004205A
:10143000A0630125C1E02068006820F00E0021684B
:1014400008602068006820F00100216808605C499D
:101450002068884252D95A4978392068884201D197
:10146000012047E0564964392068884201D11020A4
:1014700040E0534950392068884201D1801539E055
:101480004F493C392068884201D1801432E04C49F0
:1014900028392068884202D14FF480302AE0484938
:1014A00014392068884202D14FF4801022E0444968
:1014B0002068884201D140041CE0424920688842EB
:1014C00001D1012016E03F4914312068884201D142
:1014D00010200FE03B4928312068884201D1801557
:1014E00008E038493C312068884201D1801401E08D
:1014F0004FF480303349091F086051E03049783992
:101500002068884201D1012047E02D4964392068D4
:10151000884201D1102040E0294950392068884292
:1015200001D1801539E026493C392068884201D133
:10153000801432E0224928392068884202D14FF4D1
:1015400080302AE01E4914392068884202D14FF4C5
:10155000801022E01A492068884201D140041CE032
:1015600018492068884201D1012016E0154914313C
:101570002068884201D110200FE0124928312068EC
:10158000884201D1801508E00E493C31206888422C
:1015900001D1801401E04FF480300949803948605E
:1015A000012084F8210000BF002084F8200000BF43
:1015B000606B10B12046616B8847284670BD000003
:1015C000800002400804024031B500F0B3FE054639
:1015D000009C601C00B1641C00BF00F0ABFE401B0F
:1015E000A042FAD338BD000070B505460C4600266F
:1015F00000BF95F84500012801D1022070BD0120EF
:1016000085F8450000BF022085F84400002C6DD00D
:101610002868066843480640D4E900010843A168E9
:101620000843E1680843A9680843216908436169E0
:101630000843E9680843A1690843E1690843216A4E
:101640000843616A0843A16A0843064328680660A4
:10165000286806680120FFF7B7FF28680660D4E90C
:101660000B010843616B0843A16B0843E16B08431E
:10167000216C0843616C0843A16C084329684860E9
:10168000286846680120FFF79FFF28684660E06CE5
:1016900029688860206D2968C860286886694FF6C7
:1016A00041700640B4F85410A06D40EA0140E16D6D
:1016B0000843216E0843616E0843A16E0843064348
:1016C00028688661286886690120FFF77DFF286801
:1016D0008661D4E91B0108432968C8612868C66986
:1016E0000120FFF771FF2868C66110E028680668CE
:1016F00026F49046D5E902010843064328680660AF
:10170000286806680120FFF75FFF2868066001204F
:1017100085F8440000BF002085F8450000BF00BFE9
:101720006CE700000F8120FF70B504460D46164699
:10173000002200BF94F84500012801D1022070BDAD
:10174000012084F8450000BF022084F84400A5620F
:1017500000221FE005EB02114FF00040086044F248
:10176000F4504860C2EBC21000EB400006EB800072
:101770008860A069012803D1486820F000404860D3
:10178000581E904204D905EB02101030C86000E0EA
:10179000CD60521C9A42DDD3206800F58050C560B0
:1017A000012084F8440000BF002084F8450000BFF9
:1017B00000BFC4E770B504460D461646002200BFC0
:1017C00094F84500012801D1022070BD012084F861
:1017D000450000BF022084F84400E56200221BE0BF
:1017E00005EB02114FF480100860C2EBC21000EB51
:1017F000400006EB80008860E06918B9086840F492
:1018000040000860581E904204D905EB02101030C9
:10181000C86000E0CD60521C9A42E1D3206800F518
:1018200080500561012084F8440000BF002084F846
:10183000450000BF00BFC8E70146002200BF91F885
:101840004500012801D102207047012081F84500A0
:1018500000BF022081F84400886A006800F0004060
:10186000002838D1886A006800F48070F0B1886B75
:10187000401C8863886B012801D1886A08638B6AE1
:101880004B63886A0068C0F30D40021FCA63086B8F
:1018900083680B64886AC0688862012081F844000C
:1018A00000BF002081F8450000BFCDE7886A0068CE
:1018B00000F4007048B1886A086300234B63012379
:1018C0008B63886AC068886205E0886B401C886307
:1018D000886AC0688862012081F8440000BF002047
:1018E00081F8450000BF0120AEE700002DE9F84374
:1018F00004460025002000908C4E0027804614B935
:101900000120BDE8F88394F8440028B9002084F849
:101910004500204600F012F98548406820F4000098
:101920008349486008464068216A08438049486006
:10193000206800F58050006840F00101206800F543
:101940008050016000F0F6FC07460FE000F0F2FC6A
:10195000C01BB0F5FA7F09D9032084F8440000BF0A
:10196000002084F8450000BF0320CAE7206800F586
:101970008050006800F001000028E7D12068056968
:1019800025F01C0501F062F806466A48864205D338
:101990006948864202D245F0080509E06648864259
:1019A00005D36248864202D245F00C0500E000BF34
:1019B000206805614FF400420021204600F0C6FA7D
:1019C00048B14FF0010841462046FFF7C1F8012019
:1019D00084F8440095E7FF20FFF7F6FD60680028D3
:1019E00071D000F0A7FC074600BF6A4601212046DF
:1019F00000F072F900F09EFCC01B41F28831884271
:101A00000FD94FF0010841462046FFF7A1F8012009
:101A100084F8440000BF002084F8450000BF032084
:101A20006FE7009800F004000428DED18202002154
:101A3000204600F08BFA48B14FF00108414620469D
:101A4000FFF786F8012084F844005AE700F072FCA2
:101A5000074600BF6A460121204600F03DF900F02C
:101A600069FCC01B41F2883188420FD94FF0010850
:101A700041462046FFF76CF8012084F8440000BF7F
:101A8000002084F8450000BF03203AE7009800F0EA
:101A900020002028DED16A461021204600F01CF9E3
:101AA00048B14FF0010841462046FFF751F80120A8
:101AB00084F8440025E7009800F0040020B14FF4BA
:101AC0000061E16002E00DE00021E160009800F0BB
:101AD0000200022802D10021A1601EE04FF48041E3
:101AE000A1601AE0E068C0F3CF00A168C1F34F0124
:101AF00040EA01020021204600F028FA48B14FF0E8
:101B0000010841462046FFF723F8012084F84400ED
:101B1000F7E640F6FF70FFF757FD41462046FFF716
:101B200017F8012084F844000020EAE600879303B8
:101B300000000140002D3101C00E160210B586B024
:101B4000044600BF5F48806940F004005D49886139
:101B50000846806900F00400019000BF00BF00BF8C
:101B60000846806940F0080088610846806900F0F6
:101B70000800019000BF00BF00BF0846806940F028
:101B8000100088610846806900F01000019000BFD5
:101B900000BF00BF0846806940F020008861084609
:101BA000806900F02000019000BF00BF00BF084620
:101BB000806940F0010088610846806900F00100FA
:101BC000019000BF00BF00BF0846406940F480405C
:101BD00048610846406900F48040019000BF00BFA2
:101BE00000BF0846406940F400404861084640692B
:101BF00000F40040019000BF00BF00BF08464069EC
:101C000040F4803048610846406900F4803001901B
:101C100000BF00BF04200290032005900220039023
:101C20000020049002A9284800F0E8F9062002905C
:101C300002A9264800F0E2F94FF46050029002A990
:101C4000234800F0DBF92348406820F400102149C4
:101C50004860822002900020039002A91A4800F0F8
:101C6000CDF93020029002A9184800F0C7F94FF4CE
:101C7000804002900120039002A9154800F0BEF9AF
:101C8000402002900120039002A9104800F0B6F90C
:101C90004FF4004002900020039002A90C4800F08D
:101CA000ADF9012291030A4800F03EFB00224021D9
:101CB000064800F039FB01224021044800F034FBC3
:101CC00006B010BD001002400008014000100140A5
:101CD000000C0140000001402DE9F04104460E4691
:101CE00017460025A84694F84400822802D1022015
:101CF000BDE8F081822084F844002068056905F081
:101D00001C05208A4FF4784101EAC02005434811A0
:101D100000EA8610054325F0020545F0010520681C
:101D2000056100F007FB804612E000F003FBA0EB2A
:101D30000800B0F5803F09D3012084F8440000BFBB
:101D4000002084F8450000BF0320D1E72068056922
:101D500005F001000028E8D12068406980B23860B1
:101D6000012084F844000020C2E710B5044600BFFB
:101D700094F84500012801D1022010BD012084F80B
:101D8000450000BF022084F844002046FFF73AF8DF
:101D90002046FFF70FF82046FEF7A4FE2046FEF788
:101DA00082FE2046FEF769FE012084F8440000BF51
:101DB000002084F8450000BF00BFDEE710B50446F0
:101DC00000BF94F84500012801D1022010BD012078
:101DD00084F8450000BF022084F844002046FEF746
:101DE00057FE2046FEF73EFE2046FEF7CFFF204678
:101DF000FEF778FE2046FEF7F1FF012084F844004C
:101E000000BF002084F8450000BF00BFDEE770B5CA
:101E1000024600230025002400BF92F84500012857
:101E200001D1022070BD012082F8450000BF0220D0
:101E300082F8440049B9012082F8440000BF002024
:101E400082F8450000BF0120ECE7D06A006800F08E
:101E5000004048B1122082F8440000BF002082F800
:101E6000450000BF0120DDE740F2F450814208D96F
:101E7000B1FBF0F3B1FBF0F600FB161010B15B1CE8
:101E800000E00123012B13D1D06A006840F04050DC
:101E9000D66A3060C1F30C00D66A7060D06A006800
:101EA00040F00040D66A3060D06AC068D06232E04C
:101EB00000242EE0D06A006820F04050D66A3060DE
:101EC0002CB9D06A006840F08050D66A306040F289
:101ED000F450D66A7060581EA04210D1D06A0068D3
:101EE00040F00050D66A3060581EC0EBC01000EBC6
:101EF0004000A1EB8005C5F30C00D66A7060D06A83
:101F0000006840F00040D66A3060D06AC068D06295
:101F1000641C9C42CED3106800F58050406900F0EC
:101F2000040048B10426106800F580504661002680
:101F3000106800F580504660012082F8440000BF20
:101F4000002082F8450000BF00BF6BE72DE9F0419B
:101F500004460E4617460025A84694F84400422839
:101F600002D10220BDE8F081422084F844002068BC
:101F7000056905F01C05208A4FF4784101EAC0206C
:101F80000543481100EA8610054345F0020545F077
:101F90000105B8B2216848612068056100F0CAF9FE
:101FA000804612E000F0C6F9A0EB0800B0F5803FD3
:101FB00009D3012084F8440000BF002084F84500C4
:101FC00000BF0320CEE72068056905F00100002866
:101FD000E8D1012084F844000020C3E770470000E6
:101FE00010B5044604480068204020B1024804604F
:101FF0002046FFF7F3FF10BD140401402DE9F84718
:1020000003460024002000258446002700226EE1BC
:102010004FF0010808FA02F4D1F8008008EA040041
:10202000A0427DD1DFF8D0A2D1F80480A8EB0A0944
:10203000D0453AD014DCB8F1030F50D009DCB8F128
:10204000000F31D0B8F1010F1CD0B8F1020F49D107
:1020500020E0B8F1110F18D0B8F1120F42D11EE0F4
:10206000B9F5881F25D006DCB9F5803F20D0B9F539
:10207000801F37D11AE0B9F5001F18D0B9F5041F39
:1020800030D117E0D1F80CC02DE0D1F80C8008F168
:10209000040C28E0D1F80C8008F1080C23E0D1F8FA
:1020A0000C8008F10C0C1EE000BF00BF00BF00BF99
:1020B00000BF00BFD1F80880B8F1000F02D14FF087
:1020C000040C0BE0D1F80880B8F1010F03D14FF0F8
:1020D000080C1C6102E04FF0080C5C6103E04FF05B
:1020E000000C00E000BF00BFFF2801D8984601E0C7
:1020F00003F104084646FF2802D84FEA820803E0AD
:10210000A2F108084FEA88084746D6F800804FF049
:102110000F0909FA07F928EA09080CFA07F900E09B
:1021200088E048EA0908C6F80080D1F8048008F081
:102130008058B8F1805F7DD100BFDFF8C081D8F84A
:10214000188048F00108DFF8B491C9F81880C84633
:10215000D8F8188008F00108CDF8008000BF00BF53
:102160004FEAB9384FEA920958F829504FEA827875
:102170004FEA18794FF00F0808FA09F825EA080520
:10218000DFF87C81434502D14FF0000816E0DFF80C
:102190007481434502D14FF001080FE0DFF86881F8
:1021A000434502D14FF0020808E0DFF86081434563
:1021B00002D14FF0030801E04FF004084FEA8279A2
:1021C0004FEA197908FA09F848EA0505DFF840816D
:1021D0004FEA920948F82950D1F8048008F4803871
:1021E000B8F5803F0AD1DFF82C81D8F8008048EAA2
:1021F0000008DFF82091C9F8008009E0DFF81481B9
:10220000D8F8008028EA0008DFF80891C9F80080B3
:10221000D1F8048008F40038B8F5003F10D1DFF899
:10222000F48008F10408D8F8008048EA0008DFF8D4
:10223000E49000E05AE009F10409C9F800800DE0DB
:10224000DFF8D08008F10408D8F8008028EA0008F8
:10225000DFF8C09009F10409C9F80080D1F80480C2
:1022600008F48018B8F5801F0ED1DFF8A88008F1B7
:102270000808D8F8008048EA0008DFF8989009F1CB
:102280000809C9F800800DE0DFF8888008F1080827
:10229000D8F8008028EA0008DFF8789009F10809EA
:1022A000C9F80080D1F8048008F40018B8F5001FC0
:1022B0000ED1DFF8608008F10C08D8F8008048EAF9
:1022C0000008DFF8509009F10C09C9F800800DE012
:1022D000DFF8408008F10C08D8F8008028EA0008F0
:1022E000DFF8309009F10C09C9F80080521C102A5F
:1022F000FFF48EAEBDE8F887000011100010024018
:1023000000080140000C0140001001400014014091
:102310000800014000040140024693680B400BB1E5
:10232000012000E0002070470AB1016101E00B04C8
:1023300003617047014800687047000000000020FA
:1023400002480068401C01490860704700000020F6
:1023500010B50848006840F01000064908600320E6
:1023600000F06EF80F2000F007F800F019F80020D8
:1023700010BD00000020024070B504460748006808
:102380004FF47A71B0FBF1F5284601F061F80022B4
:102390002146501E00F015F8002070BD9C00002062
:1023A000704701460846002809DB00F01F030122A0
:1023B0009A4043099B0003F1E023C3F8002100BFCA
:1023C00070472DE9F05F80460D461646002703F062
:1023D0001DF9074639462A46334601F00700C0F189
:1023E000070ABAF1040F02D94FF0040A01E0C0F164
:1023F000070AD14600F1040ABAF1070F02D24FF0E2
:10240000000A01E0A0F1030AD4464FF0010A0AFADB
:1024100009FAAAF1010A0AEA020A0AFA0CFA4FF0CA
:10242000010B0BFA0CFBABF1010B0BEA030B4AEAB5
:102430000B042146404603F0F1F8BDE8F09F000090
:1024400000BF00F00702064B19684FF6FF03194062
:10245000044B0B4343EA0221014B196000BF704754
:102460000CED00E00000FA052DE9F04F89B0804640
:102470007DA1D1E90023D1E90201CDE90523CDE910
:1024800007017DA3D3E90020D3E9021302AC0BC4FA
:1024900001924FF0000900250026AB46AA4600270E
:1024A000002400200090B8F1040F59D006DCB8F1E8
:1024B000010F76D0B8F1020F74D1C2E0B8F1080F65
:1024C00072D0B8F1100FF7D16F484468006800F07F
:1024D0008070002843D005A8C4F38341465C04F40F
:1024E000803058B36848C06A00F00F0001A911F8A5
:1024F00000906548C06A00F48030A0B16248C06AAC
:10250000C0F30310471C6048C06AC0F3032000F109
:10251000020B5E48B0FBF7F000FB0BF0B0FBF9F0EC
:1025200000FB06F504E05948B0FBF9F000FB06F5A6
:102530009DF82100B04204D16D0802E0544806FB2A
:1025400000F55148406800F48000B0F5800F01D1DB
:10255000009504E068000321B0FBF1F000907DE0FD
:102560004948C06A00F4003018B900F015FB00902B
:1025700016E04548006800F0805088B14248C06AC3
:10258000C0F30310471C4048C06AC0F3033000F199
:10259000020A3E48B0FBF7F000FB0AF04000009052
:1025A0005CE022E059E0FFE73748C06A00F4802091
:1025B00018B900F0F1FA009016E03348006800F016
:1025C000805088B13048C06AC0F30310471C2E48C1
:1025D000C06AC0F3033000F1020A2C48B0FBF7F0E8
:1025E00000FB0AF04000009038E02748046A04F439
:1025F0004070B0F5807F06D104F0020018B14FF4AE
:10260000004000901CE004F44070B0F5007F08D159
:102610001D48406A00F0020018B149F640400090A1
:102620000EE004F44070B0F5407F07D11648006812
:1026300000F4003010B11748009001E00020009035
:102640000CE000F099FA10494968C1F38131491C46
:102650004900B0FBF1F0009000E000BF00BF00981F
:1026600009B0BDE8F08F0000000004050607080966
:1026700000000000000D0000010203040506070829
:10268000090A0B0C0D0E0F100010024040787D015E
:1026900000093D00F0FA02002DE9F8430446002647
:1026A00000250027207800F0010000286ED0A84601
:1026B0007948C06900F0805078B900BF7648C06999
:1026C00040F080507449C8610846C06900F08050ED
:1026D000009000BF00BF4FF001087048006800F490
:1026E0008070B8B96D48006840F480706B4908602C
:1026F000FFF720FE064607E0FFF71CFE801B64285C
:1027000002D90320BDE8F8836448006800F48070B3
:102710000028F1D06048006A00F440752DB3A0880D
:1027200000F44070A84220D05B48006A20F4407555
:1027300001205B490860002008605748056205F0E9
:10274000010090B1FFF7F6FD064608E0FFF7F2FD45
:10275000801B41F28831884201D90320D2E74E48DC
:10276000006A00F002000028F0D04B48006A20F414
:1027700040706168084348490862B8F1010F04D10C
:102780000846C06920F08050C86100BF207800F082
:102790000200022807D14048406820F44040A16868
:1027A00008433D494860207800F00400042807D120
:1027B0003948C06A20F40030E16808433649C862ED
:1027C000207800F00800082807D13348C06A20F4B8
:1027D0008020216908433049C8622F48C06A00F44C
:1027E000003020B92C48C06A00F4802000B10127D5
:1027F000012F41D12848006800F0805090BB264846
:10280000006800F0806040B12348C06A00F0F00129
:10281000A069814201D0012074E71F48C06A20F0FE
:10282000F000A16908431C49C8620846C06A20F448
:102830007040616908431849C86201201949086756
:10284000FFF778FD064606E0FFF774FD801B64285D
:1028500001D9032056E71048006800F00050002816
:10286000F2D009E0FFE70C48C06A00F470406169EB
:10287000884201D0012045E7207800F010001028A0
:1028800007D10548406820F48000E1690843024907
:102890004860002036E70000001002400070004051
:1028A000400442420000424270B504460D460026F4
:1028B0006248006800F00700A8420ED25F48006836
:1028C00020F0070028435D4908600846006800F0D2
:1028D0000700A84201D0012070BD207800F002005E
:1028E000022807D15648406820F0F000A16808434C
:1028F00053494860207800F0010000285DD06068EE
:10290000012806D14E48006800F4003090B901203B
:10291000E2E76068022806D14948006800F00070CC
:1029200040B90120D8E74648006800F0020008B925
:102930000120D1E74248406820F003006168084365
:102940003F494860FFF7F6FC06466068012810D151
:1029500008E0FFF7EFFC801B41F28831884201D983
:102960000320B9E73648406800F00C000428F0D195
:1029700023E06068022810D108E0FFF7DBFC801B31
:1029800041F28831884201D90320A5E72C484068EC
:1029900000F00C000828F0D10FE008E0FFF7CAFCB7
:1029A000801B41F28831884201D9032094E72448F2
:1029B000406800F00C000028F0D12048006800F0CA
:1029C0000700A8420ED91D48006820F007002843E0
:1029D0001A4908600846006800F00700A84201D0C4
:1029E000012079E7207800F00400042807D114487A
:1029F000406820F4E060E1680843114948602078AD
:102A000000F00800082808D10D48406820F4605004
:102A1000216940EAC1000A49486000F0BDF8084950
:102A20004968C1F30311074A515CC8400649086070
:102A30000F20FFF7A1FC00204EE70000002002401D
:102A40000010024054C600089C00002001480068A5
:102A5000704700009C0000200F2101603D49C96AB9
:102A600001F4803141603B49096801F48021B1F5EE
:102A7000802F03D14FF4A02181600CE03549096813
:102A800001F48031B1F5803F03D14FF48031816092
:102A900001E0002181602F49C96A01F00F01C16086
:102AA0002C49096801F0010111B10121416101E0E6
:102AB0000021416127490968C1F3C40181612549A9
:102AC000096A01F00401042902D10521016109E02C
:102AD0002049096A01F0010111B10121016101E000
:102AE000002101611B49496A01F0010111B1012175
:102AF000C16101E00021C1611649096801F08071DE
:102B0000B1F1807F02D10221016201E00121016265
:102B10001049496801F4803242620E49496801F463
:102B2000701282620B49096801F08061B1F1806F17
:102B300002D10221C16201E00121C1620549C96AD5
:102B400001F0F00242630349C96A01F47062026352
:102B5000704700000010024000B5FFF777FF0449FE
:102B60004968C1F30221034A515CC84000BD00001E
:102B70000010024064C6000800B5FFF767FF044973
:102B80004968C1F3C221034A515CC84000BD00003E
:102B90000010024064C600082DE9F04388B00FF22F
:102BA000D00898E88012D8F80C80CDE9059CCDF8C3
:102BB0001C8004970FF2C809D9E9017CD9F800807C
:102BC000D9F80C90CDE902C9CDE900870022002494
:102BD000002300210020002500262D4F7A6802F0F6
:102BE0000C07002F3DD0042F02D0082F38D101E070
:102BF000284838E004AFC2F3834C17F80C1002F4F5
:102C0000803747B3224FFF6A07F00F071DF80740D0
:102C10001F4FFF6A07F4803797B11D4FFF6AC7F354
:102C200003177D1C1A4FFF6AC7F30327BE1C194FF9
:102C3000B7FBF5F77743B7FBF4F707FB01F304E0C5
:102C4000144FB7FBF4F707FB01F39DF81D708F429B
:102C500004D15B0802E0104F01FB07F3184602E0C5
:102C600000BF0E4800BF00BF08B0BDE8F083000001
:102C7000000004050607080900000000000D000020
:102C80000102030405060708090A0B0C0D0E0F10BC
:102C90000010024040787D0100093D0000127A00DA
:102CA000F8B504460025207800F00100002878D00F
:102CB000FD48406800F00C0004280CD0FA48406839
:102CC00000F00C00082811D1F748406800F480306B
:102CD000B0F5803F0AD1F448006800F400300028C5
:102CE0005FD0A06800285CD10120F8BD00BFA068BB
:102CF000B0F5803F06D1EC48006840F48030EA49E6
:102D0000086028E0A06858B9E748006820F48030DF
:102D1000E54908600846006820F4802008601AE051
:102D2000A068B0F5A02F0BD1DF48006840F48020E8
:102D3000DD4908600846006840F4803008600AE019
:102D4000D948006820F48030D749086008460068F8
:102D500020F48020086000BFA06888B1FFF7EAFA7D
:102D6000054606E0FFF7E6FA401B642801D9032078
:102D7000BBE7CD48006800F400300028F2D010E036
:102D8000FFF7D8FA054606E0FFF7D4FA401B64289F
:102D900001D90320A9E7C448006800F400300028E6
:102DA000F2D1207800F00200022857D1BE484068D6
:102DB00000F00C0050B1BC48406800F00C0008283E
:102DC00018D1B948406800F4803098B9B648006816
:102DD00000F0020020B16069012801D0012084E7E1
:102DE000B148006820F0F800A16940EAC100AE498E
:102DF000086033E06069E8B10120AC490860FFF782
:102E000099FA054606E0FFF795FA401B022801D91A
:102E100003206AE7A448006800F002000028F2D00E
:102E2000A148006820F0F800A16940EAC1009E496D
:102E3000086013E000209D490860FFF77BFA054613
:102E400006E0FFF777FA401B022801D903204CE780
:102E50009548006800F002000028F2D1207800F0C8
:102E6000080008282DD1E069B8B101209049086018
:102E7000FFF760FA054606E0FFF75CFA401B022800
:102E800001D9032031E78848406A00F00200002899
:102E9000F2D0012001F06AF813E0002084490860B4
:102EA000FFF748FA054606E0FFF744FA401B022800
:102EB00001D9032019E77C48406A00F0020000288D
:102EC000F2D1207800F00400042873D1002676485F
:102ED000C06900F0805070B900BF7348C06940F00D
:102EE00080507149C8610846C06900F08050009068
:102EF00000BF00BF01266F48006800F48070B0B9C1
:102F00006C48006840F480706A490860FFF712FA64
:102F1000054606E0FFF70EFA401B642801D903209E
:102F2000E3E66448006800F480700028F2D000BF37
:102F30002069012806D15C48006A40F001005A4926
:102F4000086227E0206958B95748006A20F001005C
:102F5000554908620846006A20F00400086219E03A
:102F6000206905280BD15048006A40F004004E4902
:102F700008620846006A40F0010008620AE04A4818
:102F8000006A20F00100484908620846006A20F003
:102F90000400086200BF2069A0B1FFF7CBF9054625
:102FA00009E0FFF7C7F9401B41F28831884202D996
:102FB00003209AE622E03C48006A00F00200002864
:102FC000EFD012E0FFF7B6F9054608E0FFF7B2F9D7
:102FD000401B41F28831884201D9032085E63248FE
:102FE000006A00F002000028F0D1012E05D12E4821
:102FF000C06920F080502C49C86100BFE06AA0B3CE
:103000002948406800F48030B0F5803F0ED1264852
:10301000406800F00C00082808D12348C06A00F47A
:103020008030B0F5803F01D101205EE6E06A0228E1
:1030300050D11D48006800F0805040B11A48C06A65
:1030400000F0F001606B814201D001204DE60020CC
:1030500016498866FFF76EF9054607E0FFF76AF93B
:10306000401B642802D903203FE64DE00E4800686B
:1030700000F000600028F1D10B48C06A20F0F00099
:10308000616B08430849C8620846C06A20F4706052
:10309000216B08430449C862012004498866FFF790
:1030A00049F905460FE000000010024000004242CE
:1030B0008004424200700040FFF73CF9401B642846
:1030C00001D9032011E64648006800F0006000289E
:1030D000F2D019E04248C06A20F480304049C8620A
:1030E000002040498866FFF725F9054606E0FFF70E
:1030F00021F9401B642801D90320F6E5384800680F
:1031000000F000600028F2D1206AE0B33448406843
:1031100000F00C0008285ED0206A022846D100206A
:1031200030490866FFF706F9054606E0FFF702F9A1
:10313000401B022801D90320D7E52948006800F088
:1031400000700028F2D1606AB0F5803F0DD12448AC
:10315000C06A616808432249C8620846C06A20F014
:103160000F00E16808431E49C862D4E90901084319
:103170001B49496821F4741108431949486001202A
:103180001849086600E028E0FFF7D4F8054606E095
:10319000FFF7D0F8401B022801D90320A5E510480D
:1031A000006800F000700028F2D016E000200D4901
:1031B0000866FFF7BFF8054606E0FFF7BBF8401BBF
:1031C000022801D9032090E50548006800F000704E
:1031D0000028F2D101E0012087E5002085E500000C
:1031E000001002400000424210B5034600220020B9
:1031F000024A02EB81021468A0B210BD006C0040CC
:1032000010B503460020034800EB810094B204602F
:1032100010BD0000006C0040014609B90120704754
:1032200000BF087C012801D10220F8E701200874C2
:1032300000BF022048740868006820F001000A6896
:1032400010600120487400BF0020087400BF00BF58
:10325000E5E77047704710B504462068006800F045
:103260000100E0B12068406800F00100B8B12068BA
:103270004068C0F3800048B12046FFF7EBFF6FF0D5
:103280000400216848600420607404E02046FFF7D1
:10329000E0FF012060746FF001002168486010BDFC
:1032A000014609B90120704700BF087C012801D1FF
:1032B0000220F8E70120087400BF02204874086863
:1032C000006840F001000A6810600120487400BFE7
:1032D0000020087400BF00BFE5E7000070B5044699
:1032E00000250CB9012070BD607C20B9002020743D
:1032F000204600F05BF802206074204600F088F859
:1033000018B1042060740120EDE7204600F042FE71
:1033100018B1042060740120E5E72068406820F0BF
:10332000070021684860A06828B11F48006820F0A5
:1033300001001D4908601C48001F006820F46070EF
:10334000A16808431849091F08606068401C08B15B
:10335000656809E00120FFF787F805461DB90420DC
:1033600060740120BFE76D1E2068806820F00F00A8
:1033700040EA1540216888602068C06865F30F0046
:103380002168C860204600F022FE18B10420607455
:103390000120A8E70021E17301216173A1730120DD
:1033A000607400209FE70000306C004010B596B0BC
:1033B000044608A8FFF750FB0C200890002010904E
:1033C000139001200F9000200C9008A8FFF768FCD4
:1033D00018B100BF00BF00BFFEE70120009040020F
:1033E00001906846FFF758F918B100BF00BF00BF51
:1033F000FEE7012005490860002211460320FEF780
:10340000E0FF0320FEF7CDFF16B010BD3C044242A2
:1034100070B5044600250CB9012070BD20684068D5
:1034200020F0080021684860FEF784FF054607E0A9
:10343000FEF780FF401BB0F57A7F01D90320ECE74F
:103440002068406800F008000028F1D00020E4E780
:1034500070B504462546681EB0F1807F01D3012077
:103460000FE0681E4FF0E02148610F214FF0FF3060
:1034700002F0D4F800204FF0E021886107200861B5
:10348000002070BD10B504460CB9012010BD2420E9
:1034900084F83900204600F0ECF80020E06384F85E
:1034A000390084F83A0000BF84F8380000BF00BF3C
:1034B000ECE770472DE9F04704462068056820686E
:1034C000C668206847694FF00008C14605F00F083C
:1034D000B8F1000F0AD105F0200038B106F0200045
:1034E00020B1204601F0DCFBBDE8F087B8F1000F09
:1034F0006DD007F0010018B906F49070002866D06E
:1035000005F0010030B106F4807018B1E06B40F0B6
:103510000100E06305F0040030B107F0010018B1CC
:10352000E06B40F00200E06305F0020030B107F00C
:10353000010018B1E06B40F00400E06305F0080002
:1035400030B107F0010018B1E06B40F00800E06313
:10355000E06B68B305F0200028B106F0200010B140
:10356000204601F09DFB20684069C0F38019E06BA4
:1035700000F0080010B9B9F1000F22D0204601F088
:103580006FFB2068406900F04000B0B120684069DE
:1035900020F0400021684861606B50B11748616BB2
:1035A0004863606BFDF73CFF10B1606B416B88476F
:1035B0000CE02046FFF77DFF08E02046FFF779FF8B
:1035C00004E02046FFF775FF0020E0638CE705F07C
:1035D000800030B106F0800018B1204601F098FC60
:1035E00082E705F0400030B106F0400018B12046F7
:1035F00001F046FB78E700BF76E700004D4C00087D
:1036000010B504460CB9012010BDA06900B100E05E
:1036100000BF94F8390028B9002084F8380020460B
:1036200000F028F8242084F839002068C06820F4CD
:1036300000502168C860204601F086FB20680069C0
:1036400020F49040216808612068406920F02A0039
:10365000216848612068C06840F400502168C86053
:103660000020E063202084F8390084F83A0000202C
:10367000CAE7704710B586B00446514920688842B1
:103680002AD100BF4F48806940F480404D4988618D
:103690000846806900F48040019000BF00BF4815D3
:1036A000029002200390012004900320059002A9BB
:1036B0004548FEF7A3FC4FF4806002900020039081
:1036C00002A94148FEF79AFC012200212520FEF7BD
:1036D00078FE2520FEF765FE3C492068884229D106
:1036E00000BF3848C06940F480103649C8610846B8
:1036F000C06900F48010019000BF00BF88140290E0
:1037000002200390012004900320059002A9304874
:10371000FEF774FC042002900020039002A92D48BB
:10372000FEF76CFC012200213520FEF74AFE352011
:10373000FEF737FE2849206888422AD100BF214879
:10374000C06940F400201F49C8610846C06900F400
:103750000020019000BF00BF0815029002200390D6
:10376000012004900320059002A91948FEF746FCA9
:103770004FF4006002900020039002A91448FEF765
:103780003DFC012200213420FEF71BFE3420FEF711
:1037900008FE00BF0B48806940F0010009498861BC
:1037A0000846806900F00100019000BF00BF0B488F
:1037B000406840F008000949486006B010BD0000AC
:1037C0000038014000100240000801400050004055
:1037D0000010014000140140004C00400000014076
:1037E00010B5034693F83A0020282FD101B10AB949
:1037F000012010BD00BF93F83800012801D102203C
:10380000F7E7012083F8380000BF99629A85DA85CE
:103810000020D863222083F83A0000BF002083F8FC
:10382000380000BF1868C06840F480701C68E06011
:103830001868406940F001001C6860611868C06841
:1038400040F020001C68E0600020D2E70220D0E7B2
:1038500010B5044609492068884201D101F0E8FC0E
:1038600007492068884201D1FDF794FB054920688B
:10387000884201D1FDF774FD10BD00000038014001
:1038800000500040004C00402DE9F84304460D462E
:1038900016461F464FF0000994F8390020285CD1E5
:1038A00005B116B90120BDE8F88300BF94F83800CF
:1038B000012801D10220F6E7012084F8380000BF7A
:1038C0000020E063212084F83900FEF733FD8146B3
:1038D000A684E6842BE0E08C401EE084A068B0F56E
:1038E000805F16D14B46002280212046009701F0D0
:1038F00043FB08B10320D6E7A846B8F80000C0F3A0
:10390000080021684860206908B9AD1C0FE06D1CF3
:103910000DE04B46002280212046009701F02CFB51
:1039200008B10320BFE715F8010B21684860E08C5F
:103930000028D0D14B46002240212046009701F0BC
:103940001BFB08B10320AEE7202084F8390000BF3C
:10395000002084F8380000BFA5E70220A3E710B5D7
:10396000034693F83900202823D101B10AB9012078
:1039700010BD00BF93F83800012801D10220F7E7FD
:10398000012083F8380000BF19629A84DA8400208D
:10399000D863212083F8390000BF002083F8380065
:1039A00000BF1868C06840F080001C68E06000201C
:1039B000DEE70220DCE7704700BFFEE738B51848B5
:1039C00090F8660000F0010048BB1648006830B36C
:1039D0001548C07801061448807841EA0041124831
:1039E000407841EA002010490978084300900F48C8
:1039F000008882B269460B48006808F015FB04464F
:103A00006CB900220A490748006808F09DFC044888
:103A100090F8660040F00100014981F8660038BD69
:103A2000009A00202801002020010020240100200D
:103A30003D3B000810B5094890F8660000F0010011
:103A400058B10748006808F027FB044890F8660062
:103A500020F00100014981F8660010BD009A0020A5
:103A60002801002010B504F0FEFD00F03DFAFFF73C
:103A7000A5FF08F02FFC0449086014220021034828
:103A800000F018F910BD000028010020F13A0008EC
:103A9000044890F8660020F00100024981F86600B1
:103AA00070470000009A00202DE9F04106460C46C0
:103AB0004FF0FF37A1B20322002005F03AF9054686
:103AC0008DB1A2B23146284605F0ECFB29460748E5
:103AD000006808F05FFC08B9002701E0FFF7AAFFC3
:103AE000284605F0FCFA3846BDE8F08128010020A0
:103AF00038B504460F4803F011FC05F05FFC0D4893
:103B0000FCF770FE002000906A4610210A48FEF77C
:103B1000E3F8009800F0010010B1FFF74FFF01E05B
:103B2000FFF788FF64220021AFF23B0000F0C2F8EB
:103B300038BD0000649D00204C9400202DE9F04128
:103B400006460F4614469846069D204605F0C7FADD
:103B5000BDE8F0812DE9F04F8BB00546A84608F18D
:103B60000104A07AC0EBC0000D30C6B20027A01936
:103B7000A0F10209B11E0AAA2046FCF71BFE99F823
:103B8000001099F8010001EB00201FFA80FB0422CD
:103B900026A12046FCF745FB002843D1BDF82800AC
:103BA00083453FD102200090B01FC2B20123211DE6
:103BB000002000F0C3FA1FA0006804906068059020
:103BC0002089ADF8180000208DF81A009DF81A0021
:103BD000C0EBC0000D30C7B204A83844A0F1020AFF
:103BE000B91E09AA04A8FCF7E5FDBDF82400C11719
:103BF00000EB11610912A0EB01218AF80010BDF859
:103C00002400C11700EB1161090A8AF8011098F825
:103C100000008DF8080004A80390394602A8FCF7BC
:103C200005FF00BF0BB0BDE8F08F0000F1F2F3F428
:103C300000000000F4F3F2F10000000010B50446AB
:103C4000204600F061F810BD10B500F001F810BD7D
:103C50001CB5684600F07AF8144801880088401CBA
:103C6000124A108001EB4100114901EB800410461B
:103C700000881E2802DB002011460880A06800B9D9
:103C80001CBDDDE9001001EB4102C2EBC11100EBEC
:103C9000C1002168884206D3A06820B1D4E901019F
:103CA00088470020A06000BFEAE700005C01002018
:103CB000B89E002070B586B004460D46164600BF7B
:103CC0001CB94FF0FF3006B070BD00BF04A800F073
:103CD0003DF8DDE9041001EB4102C2EBC11100EB3C
:103CE000C100304401900295039401A801F06CFCDE
:103CF000E9E7000010B54FF4B4710248FCF77FFA11
:103D0000002010BDB89E00201CB50F490968009125
:103D10000D494968019115E00B4949680A4A126842
:103D200002EB4203C3EBC21201EBC201DDE9003238
:103D300003EB4304C4EBC31302EBC30202449142FE
:103D400000D31CBDE8E700005401002000BF00B90B
:103D5000704700BF03494968416002490968016032
:103D600000BFF5E7540100201848006800EB40014F
:103D7000C1EBC0104FF0FF31A1EBC000B0F57A7F6E
:103D800003D2002011490860486010484068401C78
:103D90000E49486008464068B0F57A7F14DB084653
:103DA00040684FF47A7190FBF1F0084909680844C3
:103DB00006490860084640684FF47A7190FBF1F2BA
:103DC00001FB1200014948607047000054010020C7
:103DD00000BFFEE770B504460D46124890F8660035
:103DE000012805D129462046FFF75EFE00B916E0FE
:103DF0000C4890F86600022805D12946204601F0BB
:103E0000FBFA00B90BE0074890F86600042805D1DA
:103E100029462046FDF766F900B900E000BF00F032
:103E200037F870BD009A00207047000010B50446B6
:103E3000144890F8660000F0010020B101229102C0
:103E40001148FEF771FA0F4890F8660000F0020082
:103E500020B1002208210D48FEF766FA094890F8C3
:103E6000660000F0040020B1012211460648FEF76A
:103E70005BFA4FF4FA720021AFF24F00FFF71AFF1E
:103E800010BD0000009A0020000C0140001001400D
:103E900010B5124890F8660000F0010030B1002221
:103EA0004FF480610E48FEF73FFA16E00B4890F899
:103EB000660000F0020028B1012208210948FEF73F
:103EC00033FA0AE0054890F8660000F0040020B1DB
:103ED000002201210248FEF727FA10BD009A0020B7
:103EE000000C01400010014000B587B01448069056
:103EF0006FF07F4005901348049013481349002247
:103F000004ABCDE90021029005AA06A9104804F0EF
:103F100035FE0F4804F0A6FE0D4890F83300C0F3BC
:103F2000800018B10A4804F0EEFE02E0084804F0F0
:103F30009FFE0849064804F0DDFE07B000BD000002
:103F4000C0A8000AC0A8000179710008ED7200083D
:103F5000649D00208D730008704770B504460D46BF
:103F600029462046FDF71EFA70BD000008B5084935
:103F70000968C9084FF47A72B1FBF2F1414300912C
:103F800000BF00BF00994A1E00920029F9D108BD68
:103F90009C00002070B504460025FEF7CBF90546CD
:103FA00007E0FEF7C7F9401BB0F57A7F01D903207F
:103FB00070BD2068406800F020000028F1D0206823
:103FC000406840F01000216848600020F0E770B5BC
:103FD000044600252068406820F0100021684860F1
:103FE000FEF7A8F9054607E0FEF7A4F9401BB0F577
:103FF0007A7F01D9032070BD2068406800F020005E
:104000000028F1D00020F6E710B50648FFF723F9A5
:10401000012005490870084680684968084402493B
:10402000886010BDA89D00209C9D002070B50546AD
:104030000C46642C25DA1349496801EBC10202EBF6
:1040400001121049083101EB820022462946FCF793
:10405000BDF80C48416800F57C7040F821400948E3
:104060004068401C07494860084640680A2801DB50
:10407000002048600348D0F8180410B9002000F070
:1040800021F870BDE495002010B50D4B1B885B1C1A
:104090000B4C2380402343EA0113037042702346F4
:1040A0001B881B12837023461B78C370B2230371D5
:1040B0004123437153238371FF23C37110BD00005B
:1040C000FE0000201CB504461B4800681A494968D8
:1040D00088422AD01848006800EBC00101EB0011AB
:1040E0001548083000EB810001901348026800F584
:1040F0007C7050F822106846FCF70CFC0E480068F3
:10410000401C0D490860084600680A2801DB0020B1
:10411000086001200849C1F8180441F288320021E2
:10412000AFF25F00FFF7C6FD05E00020024908601E
:104130004860C1F818041CBDE49500202DE9F04743
:104140009AB082460F4615461E46DDF88880002448
:1041500005F110094246314601A8FFF795FF0834E2
:1041600001222046641C01A90A54BB222046641C7B
:104170000A542046641C01F8009000222046641C6A
:104180000A542046641C0A542046641C0A54012226
:104190002046641C0A5401A8204410490A680260A1
:1041A00089888180A41D01222046641C01A90A542B
:1041B00000222046641C0A5408192A463946FCF796
:1041C00005F82C44DD222046641C01A90A5421462E
:1041D00001A8FFF72BFF1AB0BDE8F087DD9500209E
:1041E00038B5044601226946204600F061F99DF881
:1041F000000038BD38B505460C46009401226946DA
:10420000284600F091F938BD012000BF011EA0F141
:104210000100FBD1704770B505460E46002400BF73
:1042200003E000F005F82855641CB442F9DB70BDCA
:1042300070B50025002400BF19E06006040E0122BD
:1042400020210D48FEF770F8FFF7DEFF40210A48F5
:10425000FEF762F8012801D144F001040022202178
:104260000548FEF761F8FFF7CFFF681CC5B2082DBF
:10427000E3DB204670BD00000008014070B5054634
:104280000E46002400BF03E0285D00F005F8641C22
:10429000B442F9DB70BD000070B50446002500BFD4
:1042A0001FE004F0800028B1012220210E48FEF713
:1042B0003BF804E0002220210B48FEF735F80122EC
:1042C00020210A48FEF730F8FFF79EFF0022202148
:1042D0000648FEF729F8FFF797FF6006040E681CF2
:1042E000C5B2082DDDDB70BD000C014000080140A7
:1042F000704770B5054600240120FFF771FF0446A2
:1043000004F07F042C4321460120FFF773FF70BDAA
:1043100070B504461D20FFF763FF054605F0F10068
:1043200040EA4400C5B229461D20FFF763FF70BD77
:1043300070B504461D20FFF753FF054605F0FE004B
:1043400040EA040529461D20FFF754FF70BD70B5F3
:1043500004462620FFF744FF054605F0F70040EA33
:10436000C40529462620FFF745FF70BD70B50446F9
:104370003120FFF735FF054605F0F80040EA040557
:1043800029463120FFF736FF70BD70B50546002481
:104390000120FFF725FF044604F0F8042C432146D2
:1043A0000120FFF727FF70BD70B504461E20FFF700
:1043B00017FF054605F0FB0040EA8400C5B2294618
:1043C0001E20FFF717FF70BD10B5044621462220BE
:1043D000FFF710FF10BD000010B50446204600F0A6
:1043E000A3FA084801780620FFF704FF0548417842
:1043F0000720FFF7FFFE034881780820FFF7FAFE49
:1044000010BD00003001002010B5044687214D206A
:10441000FFF7F0FE0248015D0920FFF7EBFE10BD3B
:104420003301002070B504461D20FFF7D9FE054674
:10443000284664F31F10C5B229461D20FFF7DAFE97
:1044400070BD70B504460320FFF790FF1E20FFF7F4
:10445000C7FE0546284664F31F10C5B229461E2034
:10446000FFF7C8FE70BD38B504461E20FFF7B8FE42
:104470008DF800001F20FFF7B3FE8DF801009DF8B6
:10448000000000F0FC00032101EA14210843C0B23F
:104490008DF80000E0B28DF801009DF800101E209C
:1044A000FFF7A8FE9DF801101F20FFF7A3FE38BDFF
:1044B000F8B506460C46154606F07F0000901848F1
:1044C00090F8670028B9002210211648FDF72CFF4C
:1044D00009E0134890F86700012804D10022010385
:1044E0001048FDF721FF01216846FFF7C7FE294666
:1044F0002046FFF790FE0A4890F8670028B901228D
:1045000010210848FDF710FF09E0054890F8670002
:10451000012804D1012201030248FDF705FFF8BD7F
:10452000BC9D002000080140F8B506460C46154623
:1045300046F080000090184890F8670028B90022E3
:1045400010211648FDF7F0FE09E0134890F86700C7
:10455000012804D1002201031048FDF7E5FE0121E6
:104560006846FFF78BFE29462046FFF787FE0A487C
:1045700090F8670028B9012210210848FDF7D4FE01
:1045800009E0054890F86700012804D101220103E1
:104590000248FDF7C9FEF8BDBC9D0020000801409F
:1045A00010B5184890F8670030B900224FF4006148
:1045B0001548FDF7B9FE09E0124890F86700012898
:1045C00004D1002201021148FDF7AEFE6420FFF77E
:1045D0009BFB0C4890F8670028B90122D1020A48D9
:1045E000FDF7A2FE09E0074890F86700012804D112
:1045F000012201020548FDF797FE6420FFF784FBC6
:1046000010BD0000BC9D002000080140000C0140CE
:104610001FB5012001900290032003900420009018
:1046200069465C48FDF7EAFC1020009069465A484C
:10463000FDF7E4FC4FF40060009069465648FDF732
:10464000DDFC1020009069465448FDF7D7FC082097
:10465000009069465148FDF7D1FC01200090694661
:104660004C48FDF7CBFC4FF48050009069464A4817
:10467000FDF7C4FC4FF48070009069464748FDF791
:10468000BDFC8020009069464448FDF7B7FC4020FF
:10469000009069464148FDF7B1FC012204213D48E4
:1046A000FDF742FE012210213B48FDF73DFE0022AE
:1046B0004FF400613848FDF737FE012211463548B6
:1046C000FDF732FE012211033348FDF72DFE0022D3
:1046D0004FF480713148FDF727FE20200090694695
:1046E0002D48FDF78BFC2020009069462B48FDF7F4
:1046F00085FC002001904020009069462648FDF787
:104700007DFC002220212448FDF70EFE00202449D4
:1047100081F86700FFF744FF0720FFF761FD80285D
:1047200015D11F4890F8680040F001001C4981F83D
:104730006800002210211948FDF7F6FD012208212A
:104740001648FDF7F1FD1749086800F00BF9012044
:10475000134981F86700FFF723FF0720FFF740FDAB
:10476000802815D10E4890F8680040F002000C49EE
:1047700081F86800002210210848FDF7D5FD0122CC
:1047800008210648FDF7D0FD0649486800F0EAF820
:104790001FBD00000010014000080140000C014056
:1047A000BC9D002000C9000810B5044624B90022B1
:1047B00004210548FDF7B8FD012C04D10022012198
:1047C0000148FDF7B1FD10BD0010014010B50446D1
:1047D000012204210748FDF7A7FD012211460548E3
:1047E000FDF7A2FD4FF4FA720021AFF21F00FFF7B0
:1047F00061FA10BD001001402DE9F0410746002488
:1048000043E0244890F868000121A14008400028B6
:1048100039D0204880F867401220FFF7E1FC0546B8
:1048200005F0400040B3FF211220FFF7E3FC1E20FB
:10483000FFF7D6FC064606F00400D0B100210D209B
:10484000FFF7D8FC1320FFF7CBFC1249487008464D
:10485000407864280DD208464278C11C0020FFF73A
:1048600027FE0C48847001200A4908702046FFF793
:104870009BFF00F0AFF806E02DB1FF211220FFF7FB
:10488000B9FC00F0A7F8601CC4B2012CB9DDBDE88A
:10489000F0810000BC9D002070B504460D46204804
:1048A00090F8670050B9012210211E48FDF73CFD29
:1048B000002208211B48FDF737FD0EE0184890F84C
:1048C0006700012809D1012280211648FDF72CFD3F
:1048D000002240211348FDF727FD2946204600F01D
:1048E00091F80F4890F8670050B9002210210D4848
:1048F000FDF71AFD012208210A48FDF715FD0EE01B
:10490000074890F86700012809D100228021054856
:10491000FDF70AFD012240210248FDF705FD70BDAB
:10492000BC9D0020000C01402DE9F04104462046CA
:10493000FBF702FD0546084A084BFBF78EFC0746CD
:10494000FBF707FD0446200C05490870200A487053
:104950008C70BDE8F0810000D7A3703D0AA74E40DF
:104960003001002010B504460020FFF70EFD802026
:10497000FFF7BFFC0120FFF708FD00214020FFF7F3
:1049800039FC00214120FFF735FC4220FFF728FCCD
:104990002046FFF721FD0720FFF736FD0C20FFF72B
:1049A00050FD0220FFF7B4FC0120FFF7FDFC0720BB
:1049B000FFF738FD0020FFF7BBFCFF20FFF704FDE9
:1049C00040F2FF30FFF74FFD0120FFF7C0FC00F081
:1049D00001F810BD10B50120FFF7D7FC9F21112071
:1049E000FFF708FCFF212420FFF704FC00214020F2
:1049F000FFF700FC00214120FFF7FCFB0520FFF73B
:104A0000C4FC10BD70B504460D460120FFF7BDFC87
:104A100000212420FFF7EEFBF7211120FFF7EAFB2E
:104A200029462220FFF7E6FB00210E20FFF7E2FBDC
:104A300000210D20FFF7DEFB2A4621460020FFF76C
:104A400073FD40210846FFF7D5FB00214120FFF709
:104A5000D1FB0320FFF799FC6FF07F4626E0122080
:104A6000FFF7BEFB134908700846007800F0080005
:104A7000082816D10120FFF788FC9F211120FFF79D
:104A8000B9FBFF212420FFF7B5FB00214020FFF7F1
:104A9000B1FB00214120FFF7ADFB0520FFF775FCBE
:104AA00005E0301EA6F1010600D100E0D7E700BF07
:104AB00070BD00004F01002008B5FDF749FC00F073
:104AC0003FF800BF1A48806940F004001849886127
:104AD0000846806900F00400009000BF00BF00BFDE
:104AE0000846806940F0080088610846806900F047
:104AF0000800009000BF00BF00BF0846806940F07A
:104B0000100088610846806900F01000009000BF26
:104B100000BF00BF0846806940F020008861084659
:104B2000806900F02000009000BF00BF08BD0000B9
:104B30000010024010B5FDF703FC00F06BF810BD4B
:104B400000B593B014210EA8FBF759FB3821684635
:104B5000FBF755FB01200090000402900420039015
:104B60008003019002200890C10309914FF4E011E5
:104B70000A910B904FF4C0610C9140210D91684651
:104B8000FEF78EF808B100BFFEE70F200E9002205E
:104B90000F900020109012904FF48060119002212D
:104BA0000EA8FDF781FE08B100BFFEE713B000BDFF
:104BB0001448006840F00100124908600846406847
:104BC000114908400F494860084600680F490840ED
:104BD0000C4908600846006820F4802008600846F8
:104BE000406820F4FE0048600846006820F0A050AD
:104BF00008604FF47F0088600020C862C803044941
:104C000008607047001002400000FFF0FFFFF6FE52
:104C100008ED00E010B5FFF7A7F810BD10B50022B1
:104C20001146501EFDF7CDFB10BD000010B5024827
:104C3000FEF740FC10BD0000249D002010B5024886
:104C4000FEF738FC10BD0000E49C002070B505465E
:104C50006C6A0020E085E0842046FEF72AFC70BDE7
:104C60000168C96821F490710268D16001684969DE
:104C700021F0010102685161202180F83A1070474B
:104C800010B504462068C06820F040002168C86064
:104C9000202084F839002046FEF78DFE002010BD4C
:104CA00070B5044694F83A0022284AD1A068B0F5BD
:104CB000805F13D1A56A206940B920684068C0F3BD
:104CC00008002880A06A801CA06219E02068406863
:104CD000C0B22880A06A401CA06211E0206938B9E7
:104CE00020684068C1B2A26A501CA062117007E03F
:104CF0002068406800F07F01A26A501CA062117019
:104D0000E08D401E80B2E085C8B92068C06820F000
:104D100020002168C8602068C06820F48070216885
:104D2000C8602068406920F00100216848612020A7
:104D300084F83A002046FEF78BFD002070BD00206D
:104D4000FCE70220FAE700002DE9F04104460025C7
:104D50002068006920F44050E16808432168086138
:104D60002169A06808436169084305432068C06859
:104D700041F20C61884328432168C860206840697B
:104D800020F44070A1690843216848615F492068A8
:104D900088425CD1FDF7F0FE00EBC00101EB001092
:104DA00061688900B0FBF1F6FDF7E6FE00EBC0019B
:104DB00001EB001061688900B0FBF1F06421B0FBE9
:104DC000F1F000EBC00101EB0010A6EB80003221F6
:104DD00001EB00106421B0FBF1F000F0F006FDF7EC
:104DE000CBFE00EBC00101EB001061688900B0FB55
:104DF000F1F06421B0FBF1F006EB0016FDF7BCFE0C
:104E000000EBC00101EB001061688900B0FBF1F715
:104E1000FDF7B2FE00EBC00101EB001061688900F4
:104E2000B0FBF1F06421B0FBF1F000EBC00101EB4D
:104E30000010A7EB8000322101EB00106421B0FBD1
:104E4000F1F000F00F003044216888605BE0FDF76E
:104E500083FE00EBC00101EB001061688900B0FB2C
:104E6000F1F6FDF779FE00EBC00101EB001061687F
:104E70008900B0FBF1F06421B0FBF1F000EBC00160
:104E800001EB0010A6EB8000322101EB0010642141
:104E9000B0FBF1F000F0F006FDF75EFE00EBC001A4
:104EA00001EB001061688900B0FBF1F06421B0FBF8
:104EB000F1F006EB0016FDF74FFE00EBC00101EB31
:104EC000001061688900B0FBF1F7FDF745FE00EBCB
:104ED000C00101EB001061688900B0FBF1F06421B2
:104EE000B0FBF1F000EBC00101EB0010A7EB80007C
:104EF000322101EB00106421B0FBF1F000F00F0053
:104F0000304421688860BDE8F0810000003801402D
:104F1000014691F8390021282CD18868B0F5805FCE
:104F20000FD10A6A1088C0F308000B68586008693E
:104F300018B9086A801C086209E0086A401C086207
:104F400005E00B6A581C086218780B685860C88C1A
:104F5000401E80B2C88458B90868C06820F080003C
:104F60000B68D8600868C06840F040000B68D860E3
:104F7000002070470220FCE72DE9F04104460D4671
:104F800017469846069E21E0701CF8B12EB1FDF739
:104F9000D1F9A0EB0800B04218D92068C06820F40D
:104FA000D0702168C8602068406920F00100216845
:104FB0004861202084F8390084F83A0000BF0020BE
:104FC00084F8380000BF0320BDE8F0812068006845
:104FD0002840A84201D1012000E00020B842D3D0EF
:104FE0000020F1E710B50248FEF764FA10BD00009A
:104FF000A49C002000BFFEE730B58DB0154890F8A6
:10500000660000F0020018BB342213496846FBF723
:10501000DDF86846FBF7FEF8C4B21048FBF7FAF873
:1050200005460DEB04002A460C49FBF7CFF80B4868
:10503000FBF7F0F805192946684600F0B9FA05486B
:1050400090F8660040F00200024981F8660000BF57
:105050000DB030BD009A002098C80008040100205F
:1050600010B5094890F8660000F0020058B10D2113
:1050700006A000F09DFA044890F8660020F00200B7
:10508000014981F8660010BD009A002041542B436D
:105090004950434C4F53450D0A0000001FB50120F5
:1050A00001900290032003904FF4807000906946B5
:1050B0002848FCF7A3FF4FF400700090694626488B
:1050C000FCF79CFF0820009069462348FCF796FFF8
:1050D0000820009069462048FCF790FF00200190CE
:1050E0000820009069461B48FCF788FF1B481C49B4
:1050F00008604FF4E1304860002119488160C160C8
:10510000016181610C214161FEF7BCF908B100BF6A
:10511000FEE71348FEF774FA08B100BFFEE77021FE
:105120001048FBF76CF800224FF480710948FDF736
:10513000FBF8012251020848FDF7F6F80122082188
:105140000548FDF7F1F8012206496C310448FEF7E5
:1051500047FB1FBD0008014000100140003801401E
:10516000A49C0020689A002010B50446082122481B
:10517000FDF7D2F8002835D120480068401C1F49AF
:105180000860084601680068401C1C4A106003293A
:105190002BD910211AA000F00BFA6420FEF7B4FD01
:1051A00013211CA000F004FA002208211E48FDF77C
:1051B000BBF86420FEF7A8FD012208211A48FDF77C
:1051C000B3F86420FEF7A0FD002208211648FDF781
:1051D000ABF86420FEF798FD012208211248FDF784
:1051E000A3F802E00020054908604FF47A7200211C
:1051F0000E48FEF75FFD10BD000801402C010020A5
:1052000041542B435753544F50534D4152540D0A60
:105210000000000041542B43575354415254534D06
:105220004152543D330D0A000010014069510008FD
:1052300010B50E480088642802DB63200B49088003
:105240000A4890F86C1002880088401C074B1880B0
:10525000981C81540120194681F866000020886658
:1052600001226C310248FEF7BBFA10BD689A00209B
:10527000A49C002010B50020124981F86D0081F82F
:105280006E0000224FF480710F48FDF74DF84FF487
:105290007A7200210D48FEF70DFD0A2200210C480C
:1052A000FEF708FD4FF47A7200210A48FEF702FD6E
:1052B000094890F8660020F00200074981F866006E
:1052C00010BD0000689A002000080140AD5400089D
:1052D000DD52000869510008009A00202DE9F047CE
:1052E0008146344890F8660001285AD13148806ED2
:1052F0000A30304988660846806E1E2851D38E1CBD
:105300008F1C0846B0F80080002441E007222AA143
:105310003846FAF793FF88B9FD79322D02D1FFF7AD
:105320006BFE0AE0332D08D0342D02D1FFF798FE32
:1053300003E0352D01D1FFF793FE00BF0B2220A122
:105340003846FAF77BFF18B9102120A000F030F999
:10535000072223A13846FAF771FF0F2222A138460F
:10536000FAF76CFF0FE0305D0D2807D1601C305C50
:105370000A2803D1A01C84B2371905E0601C84B24E
:10538000444500DB00E0EEE700BF444500DB00E001
:10539000BCE700BF00200749088081F866008866E6
:1053A00000BF0A220021AFF2CB00FEF783FCBDE86C
:1053B000F0870000689A00205354415455533A0036
:1053C0005749464920474F542049500041542B43E8
:1053D0005753544F50534D4152540D0A0000000092
:1053E000434F4E4E45435400574946492044495384
:1053F000434F4E4E4543540070B586B005460C46AB
:105400004FF0FF36234890F8660000F002000028B5
:105410003DD0142220A101A8FAF7D8FE4FF47A70EB
:1054200094FBF0F00A2190FBF1F201FB1200303006
:10543000C0B28DF81000642094FBF0F090FBF1F204
:1054400001FB12003030C0B28DF810000A2094FB2E
:10545000F0F090FBF1F201FB12003030C0B28DF899
:1054600011000A2094FBF0F100FB11403030C0B273
:105470008DF81200112101A800F09AF83220FEF7F1
:1054800043FC2146284600F093F8002600BF304632
:1054900006B070BD009A002041542B43495053453B
:1054A0004E443D303030310D0A00000010B5044646
:1054B0002C4890F86D0030B1012817D0022835D063
:1054C00003284CD13DE0012211022748FCF72CFFB4
:1054D000244890F86D00401C224981F86D0040F688
:1054E000B83200212148FEF7E5FB38E0082120A072
:1054F00000F05EF86420FEF7A1FB11211FA000F070
:1055000057F86420FEF79AFB0D2121A000F050F817
:10551000144890F86D00401C124981F86D0042F269
:10552000107200211148FEF7C5FB18E00E211CA0E7
:1055300000F03EF842F2107200210C48FEF7BAFB70
:105540000DE0084890F86D00401C064981F86D0098
:105550004FF47A7200210548FEF7ACFB00BF00BF94
:1055600010BD0000689A002000080140AD540008FA
:1055700041542B474D520D0A0000000041542B436B
:10558000574D4F44455F4445463D310D0A000000EC
:1055900041542B4349504D55583D300D0A000000F1
:1055A00041542B4349505354415455530D0A000064
:1055B00070B504460D46AAB221460248FEF7CFF95F
:1055C00070BD0000A49C002030B50246002110E010
:1055D00001EB41000C4B03EB8000806838B901EB14
:1055E000410003EB800092E8380038C003E0481C1B
:1055F00081B21E29ECDB00BF1E2901DA002030BD7C
:105600004FF0FF30FBE70000B89E00200248006822
:10561000C0F30220704700000CED00E010B5002838
:1056200004DB0A07130E054A135406E00A07140E9A
:10563000034A00F00F031B1FD45410BD00E400E028
:1056400018ED00E002E008C8121F08C1002AFAD1D4
:1056500070477047002001E001C1121F002AFBD1F2
:105660007047000070B504462546686880472246AA
:105670000249286803F0DCFE70BD00006556000892
:1056800070B505460E4600BF05B970BD00BF6C6A17
:105690004CB1607A082806D13068A16A884202D1EC
:1056A000284600F097F900BFEFE77CB5064600BF3B
:1056B00006B97CBD00BF746A00BF04B9F9E700BF3A
:1056C00000202084606B401C70B1606B1E303C2158
:1056D000B0FBF1F5B5F5803F01D34FF6FF7565845A
:1056E000608C08B901206084A06B401C80B1A06B65
:1056F0001E303C21B0FBF1F5B5F5803F01D34FF6EC
:10570000FF752583208B08B901202083208BA0837F
:10571000E06B401C80B1E06B1E303C21B0FBF1F52A
:10572000B5F5803F01D34FF6FF756583608B08B9EF
:1057300001206083608BE083208B618B884204DBD7
:10574000608B002801DD00202083E07A10B1E06A40
:10575000019010E094F828007F2802DCFF210191DD
:1057600008E0C02803DB6FF07F41019102E04FF6B3
:10577000FF71019100BF206B0090009848B900BFF5
:10578000A06A01990840009000BF009840F0807026
:1057900000900A21204600F045FF6B4601AA04F163
:1057A0002801304603F039FA00BF82E72DE9F041C5
:1057B00005466C6A0821204600F034FF002204F1FF
:1057C0002801284601F0C6FA0746A07AFF2802DA27
:1057D000A07A401CA0724FF4FA7606F2F31031461C
:1057E00090FBF1F0E082BDE8F081000070B5184850
:1057F00005682AE06C6A34B3607A20B3608C68B1C3
:10580000208C401C80B22084618C884206D12846BE
:1058100000F0D2FD284600F03DF914E0E08B40B1E5
:10582000E18B481EE083012903D1284600F090FF58
:1058300009E0A08B38B1A18B481EA083012902D1B9
:10584000284600F064FF2D6800BF002DD2D170BD46
:10585000440000202DE9F04107460C46164600BFE3
:105860001FB96FF00F00BDE8F08100BF00BF14B991
:105870006FF00500F7E700BF00BF00BF00BF00BF2B
:1058800000224FF49A71104603F053FAE060E0688A
:1058900010B94FF0FF30E6E700BF00BF032E08D07D
:1058A000A07A18B9FAF780FC3C4908603B480068C8
:1058B0002060E0684068206101202169087021694A
:1058C000487097F82C002169887000202169C87001
:1058D000206802F0B5FE2169486000202169088136
:1058E000216948812169C860082E0BD0042E09D097
:1058F000072E07D0032E08D1607A052802D0607ADF
:10590000042802D178682169C860002021690861F3
:10591000216948612169886100250FE097F82C0012
:10592000A84205DD062D03D207F12D00405D00E001
:10593000002021691C314855681C85B2102DEDD31B
:10594000002505E0002120692C304155681C85B2F6
:10595000402DF7D3002505E0002120696C3041552A
:10596000681C85B2802DF7D30D482169C1F8EC0081
:105970000020A082002504E02069F0304555681C15
:1059800085B2442DF8D301223521204600F0AEF92E
:105990003146204600F0BAF9002064E7F800002004
:1059A0006382536310B500BF00BF08480078401EF3
:1059B000064908700846007830B90548006806F0C6
:1059C000C7FC00200249086010BD0000F400002060
:1059D000F00000202DE9FC4105466C6A00260C21F0
:1059E000204600F01FFE042221462846FFF732FF22
:1059F000064616BB04223221204600F077F9A06A41
:105A000002F01EFE80464146204600F088F92046FE
:105A100000F0B7F9A28AF03291B2E06803F0FBFB24
:105A20000F48CDE9005043230E4A0F48E168006853
:105A300006F012FD204600F019F8A07AFF2802DADD
:105A4000A07A401CA07242F2107707F2F3104FF4D4
:105A5000FA7190FBF1F0E0823046BDE8FC81000075
:105A600084C6000888C60008F000002010B504466F
:105A700000BF04B910BD00BF00BF00BF00BF00BF22
:105A8000E06810B1E06803F02AFB0020E0602061CC
:105A900000BFEFE72DE9FC4105466C6A00270020B6
:105AA000A0620621204600F0BDFD012221462846C5
:105AB000FFF7D0FE0746002F2ED1022239212046C3
:105AC00000F014F9698D204600F04AF904223721CC
:105AD000204600F00BF9002606E01F48815D2046B5
