:020000040800F2
:10000000B00E0020650100087D2C0008B129000811
:100010003D2C0008A7060008BD3E000800000000B7
:10002000000000000000000000000000B9310008DE
:10003000A308000800000000212E0008FD39000878
:100040007F0100087F0100087F010008D12E000811
:100050007F0100087F0100087F0100087F01000880
:100060007F0100087F0100087F0100087F01000870
:100070007F0100087F0100087F0100087F01000860
:100080007F0100087F0100087F0100087F01000850
:100090007F0100087F0100087F010008B108000807
:1000A0007F0100087F0100087F0100087F01000830
:1000B0007F0100087F0100087F0100087F01000820
:1000C0007F0100087F0100087F0100087F01000810
:1000D0007F010008AD3E00087F0100087F01000895
:1000E000A50800087F0100087F010008000000004B
:1000F0000000000000000000000000000000000000
:1001000000000000000000007F0100087F010008DF
:10011000F53A0008053B00087F0100087F01000850
:100120007F0100087F0100087F0100087F010008AF
:100130007F0100087F0100087F0100087F0100089F
:100140007F0100087F0100087F0100087F0100088F
:10015000DFF80CD000F06AF900480047D3440008EB
:10016000B00E00200648804706480047FEE7FEE73D
:10017000FEE7FEE7FEE7FEE7FEE7FEE7FEE7FEE757
:10018000793A000851010008202A04DB203A21FABC
:1001900002F00021704721FA02F3D040C2F12002A0
:1001A000914008431946704740EA01039B0703D07A
:1001B00009E008C9121F08C0042AFAD203E011F8A6
:1001C000013B00F8013B521EF9D27047D2B201E068
:1001D00000F8012B491EFBD270470022F6E710B54C
:1001E00013460A4604461946FFF7F0FF204610BDA5
:1001F00030B504460020034600E05B1C934203D266
:10020000E05CCD5C401BF8D030BD30B50546002029
:10021000034600E05B1C934205D2EC5CC85C201AEC
:1002200001D1002CF6D130BD2DE9F04D81EA030457
:1002300004F0004B21F0004514464FF0000A23F073
:10024000004150EA050220D054EA01021DD0C5F356
:100250000A570246C5F31303C1F31300C1F30A564C
:1002600040F4801543F48013A7EB0608101BD64614
:1002700008F2FD3873EB050002D308F1010801E034
:1002800092185B41B8F1000F03DA00200146BDE887
:10029000F08D00204FF48011064684460EE0171BB7
:1002A00073EB050705D3121B63EB050306434CEA0A
:1002B000010C49084FEA300092185B4150EA0107EF
:1002C000EDD152EA030012D082EA040083EA05016C
:1002D000084305D0101BAB4106D20122002306E0E3
:1002E00000224FF0004302E06FF0010253101AEBBE
:1002F00006004CEB085110EB0A0041EB0B01BDE886
:10030000F04D00F035B80EB540F2334102910021B6
:10031000CDE900110A460B4600F039F803B000BDE4
:10032000C1F30A5210B5C1F3130140F2FF3341F497
:1003300080119A4201DA002010BD40F233439A4204
:10034000A2F2334203DC5242FFF71EFF10BD904081
:1003500010BD202A04DB203A00FA02F10020704789
:100360009140C2F1200320FA03F3194390407047F3
:1003700010B5141E73F1000408DA401C41F10001AD
:1003800092185B411A4301D120F0010010BD2DE904
:10039000F04D92469B4611B1B1FA81F202E0B0FAFB
:1003A00080F220329046FFF7D4FF04460F4640EA21
:1003B0000A0041EA0B0153465A46084313D011463E
:1003C00053EA010019D0C8F140025046FFF7DCFEA5
:1003D00005460E46504659464246FFF7BAFF0843C7
:1003E00005D0012004E020463946BDE8F08D00200C
:1003F000054346EAE0762C4337430A986305E40A4E
:10040000A0EB08000022FD0A44EA47540A3002D556
:1004100000200146E9E7010510196941DDE90845B9
:1004200000196941BDE8F04DA2E70000064C074DF8
:1004300006E0E06840F0010394E8070098471034B4
:10044000AC42F6D3FFF788FE18470008384700088B
:1004500010B50C480C4908620846007F401E08771A
:100460000846007F18B9032081F8240008E00648F8
:1004700090F82400012803D10021052000F040F964
:1004800010BD000020BF02004400002070470000A3
:1004900010B586B0044602F063FB00F0FBF900F0F3
:1004A00027F900F061F900F0A9F900F02FF92C21EB
:1004B0001348FFF792FE134811494861886100F024
:1004C00061F832220021104802F02AFB0C48253046
:1004D0000E490A6802608988818014220CA101A853
:1004E000FFF762FE0622064925310DF1070000F0F4
:1004F0006FFC122101A802F094FC002006B010BD90
:1005000044000020002E930215060008E8F7FF1FA4
:1005100049443A3030303030303030303030300DC7
:100520000A00000010B543F698241048406921469F
:10053000884204D30D484069401A0C4948610B4871
:10054000806943F69821884205D308488069401A9B
:100550000649886109E0064804498861084690F820
:100560002400022801D000F00DF810BD4400002046
:10057000002E930204E002F09DFA002000F070F8D3
:10058000F9E7000010B50120054908770548086221
:10059000012081F824000021052000F0B1F810BDF1
:1005A0004400002020BF020008B51948007F002841
:1005B0001ADD6946012000F0A3F89DF8000002282A
:1005C00005D1134981F82400002008770BE09DF83D
:1005D0000000032802D1FFF73BFF04E00C48006A4B
:1005E00008B9FFF735FF12E00948006978B9694694
:1005F000062000F085F89DF8000038B900210120A0
:1006000000F06CF80021032000F07AF800BF08BD6C
:100610004400002010B504460F480069322805D375
:100620000D48006932380C49086102E000200A498F
:1006300008610948006A322805D30748006A323841
:100640000549086202E000200349086232220021C5
:10065000024802F065FA10BD4400002015060008AB
:1006600030B5C1B00546002003F02AF800F0DAF8F2
:1006700058B94FF4807101A800F0E0F80446002C4E
:1006800003DD214601A802F095F900F0A1F830B988
:100690004FF4807101A800F0A7F8FFF743FFFFF7C0
:1006A00083FF41B030BD00BFFEE70000F0B5034658
:1006B0000C4600200025002100BF09E0C6B25F5CA7
:1006C00086EA0705044E36F8156086EA1020491CB4
:1006D000A142F3DB1080F0BD0E450008024612B1C6
:1006E000012A02D100E000E000BF00BF00207047F7
:1006F0000248002101800020704700000A0000200D
:10070000024600BF00BF00207047000010B503F094
:1007100001FC00F0FDF800F0F3FA03F0E7FC00F054
:100720006FF968210848FFF758FD41F2883200212F
:10073000064802F0F5F94FF4FA720021044802F07D
:10074000EFF9002010BD00008C040020892D000866
:10075000B92C000870B504460D4626462946706837
:1007600002F06EFA284670BD10B5164800210160EF
:10077000416081600F2013494860134813490860A5
:100780004FF0FF304860084601F0A4FD08B100BFFB
:10079000FEE701210D4801F023FD43F2F2218842DA
:1007A00005D10A4801F034FD08B100BFFEE7074853
:1007B00001F072FD43F2F2220121044801F01CFD18
:1007C000002010BD28080020002800403408002028
:1007D00000BF0448007810B94FF0FF30704700BFE9
:1007E0000020FBE72808002010B502460120002366
:1007F000014C237010BD00002808002010B56921AD
:100800000648FFF7EAFC02F067FE4FF47A72002117
:10081000034802F085F9002010BD000048080020C0
:100820009536000800BF0448007810B94FF0FF303B
:10083000704700BF0020FBE7480800202DE9F04189
:1008400004460F46084845782646807830702A4688
:100850000549C91C701CFFF7A7FC0020024908705D
:100860002846BDE8F08100004808002070B5044625
:100870000D4626463078064981F86700E9B270686F
:1008800002F06EFF307802F0F3FE284670BD0000E3
:100890004808002010B503F073F803F023F9002096
:1008A00010BD704710B54FF4804000F099FB10BDAB
:1008B00010B54FF4007000F093FB10BD10B5282167
:1008C00001A003F0C9FD10BD41542B4349505354BE
:1008D0004152543D22554450222C223132302E3781
:1008E000362E3230372E3534222C353638330D0A39
:1008F0000000000010B50D2101A003F0ADFD10BDFA
:1009000041542B434950434C4F53450D0A000000BE
:100910001FB5012001900290032003904FF48070D6
:1009200000906946204800F069FB0220009069466B
:100930001E4800F063FB0120009069461B4800F050
:100940005DFB1B481B4908604FF4E1304860002103
:1009500018488160C160016181610C21416101F031
:100960008DFD08B100BFFEE7124801F045FE08B159
:1009700000BFFEE770211048FFF72FFC0122110293
:10098000094800F0D1FC01220221084800F0CCFC0B
:1009900000220121054800F0C7FC012206496C3104
:1009A000044801F019FF1FBD00100140000C014078
:1009B00000500040700700206405002010B50E486C
:1009C0000088642802DB63200B4908800A4890F8FD
:1009D0006C1002880088401C074B1880981C8154BA
:1009E0000120194681F866000020886601226C31DA
:1009F000024801F0F1FE10BD6405002070070020E0
:100A000010B500200A4981F86D0081F86E000122BE
:100A10001102084800F088FC4FF47A720021064861
:100A200002F07EF80A220021044802F079F810BD95
:100A30006405002000100140B90B0008410A0008BD
:100A40002DE9F04180462E4890F8660001284ED1ED
:100A50002B48806E0A302A4988660846806E1E2818
:100A600045D38D1C8E1C08460788002436E00722DB
:100A700024A13046FFF7C9FBD0B9F079302808D15E
:100A8000224991F8671021F00401204A82F867108A
:100A90000DE031280BD10121194A82F86E101B4953
:100AA00091F8671041F00401184A82F8671000BFFE
:100AB0000FE0285D0D2807D1601C285C0A2803D1AF
:100AC000A01C84B22E1905E0601C84B2BC4200DB7D
:100AD00000E0EEE700BFBC4200DB00E0C7E700BF7C
:100AE00000200749088081F86600886600BF0A2256
:100AF0000021AFF2B30002F013F8BDE8F08100006E
:100B0000640500202B43474154543A008C040020D4
:100B100030B585B005460C46214890F8660003289C
:100B20003CD114221FA16846FFF73EFB4FF47A70B8
:100B300094FBF0F00A2190FBF1F201FB120030303F
:100B4000C0B28DF80B00642094FBF0F090FBF1F242
:100B500001FB12003030C0B28DF80C000A2094FB6B
:100B6000F0F090FBF1F201FB12003030C0B28DF8D2
:100B70000D000A2094FBF0F100FB11403030C0B2B0
:100B80008DF80E001121684600F0AEF8322001F019
:100B9000F1FF2146284600F0A7F800BF05B030BDA0
:100BA0008C04002041542B43495053454E443D3062
:100BB0003030310D0A00000010B50446354890F879
:100BC0006D0030B1012818D0022847D003285ED12B
:100BD0004FE000224FF480712F4800F0A5FB2D4814
:100BE00090F86D00401C2B4981F86D0042F21072A4
:100BF00000212A4801F094FF49E0052128A000F0D7
:100C000073F8642001F050FF092127A000F06CF870
:100C1000642001F049FF092126A000F065F8642056
:100C200001F042FF0D2126A000F05EF8642001F0E3
:100C30003BFF0A2126A000F057F8642001F034FFA2
:100C4000144890F86D00401C124981F86D004FF473
:100C50007A720021114801F063FF18E00B211FA0F8
:100C600000F042F840F6B83200210C4801F058FF7D
:100C70000DE0084890F86D00401C064981F86D00B1
:100C80004FF47A720021054801F04AFF00BF00BF0F
:100C900010BD00006405002000100140B90B0008E1
:100CA0004154490D0A00000041542B4347534E0D57
:100CB0000A00000041542B43494D490D0A00000031
:100CC00041542B47505352443D31300D0A0000002F
:100CD00041542B4750533D310D0A000041542B43E2
:100CE000474154543F0D0A0070B504460D46AAB260
:100CF0002146024801F02FFE70BD00007007002061
:100D00001FB5012001900290032003904FF48060F2
:100D100000906946134800F071F9134813490860C0
:100D20004FF416504860002110488160C160016195
:100D300081610821416101F0A1FB08B100BFFEE71C
:100D40000A4801F059FC08B100BFFEE770210848CD
:100D5000FFF743FA00224FF48061024800F0E4FA02
:100D60001FBD0000000C0140004C0040B0070020F7
:100D70006405002010B50E480088642802DB63205B
:100D80000B4908800A4890F86C1002880088401CC3
:100D9000074B1880981C81540120194681F8660081
:100DA0000020886601226C31024801F015FD10BD5B
:100DB000A8060020B007002070B504460D46AAB270
:100DC00064232146014801F05BFD70BDB00700209F
:100DD000F0B503460C46154600260021691E25E0A5
:100DE000625CD71702EB177738110A2803DD00F190
:100DF0003702D0B202E000F13002D0B23246761CA7
:100E00009854625CD71702EB17773F11A2EB0717D4
:100E1000F8B20A2803DD00F13702D0B202E000F197
:100E20003002D0B23246761C9854491E0029D7DAD7
:100E3000F0BD000070B50446002594F8210002289A
:100E400003D00420A0630125C1E02068006820F0E1
:100E50000E00216808602068006820F00100216809
:100E600008605C492068884252D95A49783920681C
:100E7000884201D1012047E0564964392068884200
:100E800001D1102040E0534950392068884201D1F7
:100E9000801539E04F493C392068884201D18014DF
:100EA00032E04C4928392068884202D14FF4803022
:100EB0002AE0484914392068884202D14FF4801052
:100EC00022E044492068884201D140041CE04249A4
:100ED0002068884201D1012016E03F491431206882
:100EE000884201D110200FE03B4928312068884218
:100EF00001D1801508E038493C312068884201D191
:100F0000801401E04FF480303349091F086051E03C
:100F1000304978392068884201D1012047E02D49C5
:100F200064392068884201D1102040E029495039B5
:100F30002068884201D1801539E026493C39206873
:100F4000884201D1801432E0224928392068884241
:100F500002D14FF480302AE01E49143920688842BB
:100F600002D14FF4801022E01A492068884201D152
:100F700040041CE018492068884201D1012016E095
:100F8000154914312068884201D110200FE0124920
:100F900028312068884201D1801508E00E493C3193
:100FA0002068884201D1801401E04FF48030094963
:100FB00080394860012084F8210000BF002084F8B7
:100FC000200000BF606B10B12046616B8847284647
:100FD00070BD00008000024008040240704700001D
:100FE00010B5044604480068204020B1024804605F
:100FF0002046FFF7F3FF10BD140401402DE9F84728
:1010000003460024002000258446002700226EE1CC
:101010004FF0010808FA02F4D1F8008008EA040051
:10102000A0427DD1DFF8D0A2D1F80480A8EB0A0954
:10103000D0453AD014DCB8F1030F50D009DCB8F138
:10104000000F31D0B8F1010F1CD0B8F1020F49D117
:1010500020E0B8F1110F18D0B8F1120F42D11EE004
:10106000B9F5881F25D006DCB9F5803F20D0B9F549
:10107000801F37D11AE0B9F5001F18D0B9F5041F49
:1010800030D117E0D1F80CC02DE0D1F80C8008F178
:10109000040C28E0D1F80C8008F1080C23E0D1F80A
:1010A0000C8008F10C0C1EE000BF00BF00BF00BFA9
:1010B00000BF00BFD1F80880B8F1000F02D14FF097
:1010C000040C0BE0D1F80880B8F1010F03D14FF008
:1010D000080C1C6102E04FF0080C5C6103E04FF06B
:1010E000000C00E000BF00BFFF2801D8984601E0D7
:1010F00003F104084646FF2802D84FEA820803E0BD
:10110000A2F108084FEA88084746D6F800804FF059
:101110000F0909FA07F928EA09080CFA07F900E0AB
:1011200088E048EA0908C6F80080D1F8048008F091
:101130008058B8F1805F7DD100BFDFF8C081D8F85A
:10114000188048F00108DFF8B491C9F81880C84643
:10115000D8F8188008F00108CDF8008000BF00BF63
:101160004FEAB9384FEA920958F829504FEA827885
:101170004FEA18794FF00F0808FA09F825EA080530
:10118000DFF87C81434502D14FF0000816E0DFF81C
:101190007481434502D14FF001080FE0DFF8688108
:1011A000434502D14FF0020808E0DFF86081434573
:1011B00002D14FF0030801E04FF004084FEA8279B2
:1011C0004FEA197908FA09F848EA0505DFF840817D
:1011D0004FEA920948F82950D1F8048008F4803881
:1011E000B8F5803F0AD1DFF82C81D8F8008048EAB2
:1011F0000008DFF82091C9F8008009E0DFF81481C9
:10120000D8F8008028EA0008DFF80891C9F80080C3
:10121000D1F8048008F40038B8F5003F10D1DFF8A9
:10122000F48008F10408D8F8008048EA0008DFF8E4
:10123000E49000E05AE009F10409C9F800800DE0EB
:10124000DFF8D08008F10408D8F8008028EA000808
:10125000DFF8C09009F10409C9F80080D1F80480D2
:1012600008F48018B8F5801F0ED1DFF8A88008F1C7
:101270000808D8F8008048EA0008DFF8989009F1DB
:101280000809C9F800800DE0DFF8888008F1080837
:10129000D8F8008028EA0008DFF8789009F10809FA
:1012A000C9F80080D1F8048008F40018B8F5001FD0
:1012B0000ED1DFF8608008F10C08D8F8008048EA09
:1012C0000008DFF8509009F10C09C9F800800DE022
:1012D000DFF8408008F10C08D8F8008028EA000800
:1012E000DFF8309009F10C09C9F80080521C102A6F
:1012F000FFF48EAEBDE8F887000011100010024028
:1013000000080140000C01400010014000140140A1
:101310000800014000040140024693680B400BB1F5
:10132000012000E0002070470AB1016101E00B04D8
:10133000036170470148006870470000000000200A
:1013400002480068401C0149086070470000002006
:1013500010B50848006840F01000064908600320F6
:1013600000F06AF80F2000F007F800F019F80020EC
:1013700010BD00000020024070B504460748006818
:101380004FF47A71B0FBF1F5284601F05DF80022C8
:101390002146501E00F012F8002070BD040000200D
:1013A000704700BF00F01F020121914042099200E6
:1013B00002F1E022C2F8001100BF70472DE9F05F92
:1013C00080460D461646002701F05AFC074639466E
:1013D0002A46334601F00700C0F1070ABAF1040FAC
:1013E00002D94FF0040A01E0C0F1070AD14600F12A
:1013F000040ABAF1070F02D24FF0000A01E0A0F18F
:10140000030AD4464FF0010A0AFA09FAAAF1010ABE
:101410000AEA020A0AFA0CFA4FF0010B0BFA0CFB6B
:10142000ABF1010B0BEA030B4AEA0B0421464046E1
:1014300001F02EFCBDE8F09F00BF00F00702064B54
:1014400019684FF6FF031940044B0B4343EA02218E
:10145000014B196000BF70470CED00E00000FA0579
:101460002DE9F04F89B080467DA1D1E90023D1E973
:101470000201CDE90523CDE907017DA3D3E90020D1
:10148000D3E9021302AC0BC401924FF0000900250E
:101490000026AB46AA460027002400200090B8F1A1
:1014A000040F59D006DCB8F1010F76D0B8F1020F65
:1014B00074D1C2E0B8F1080F72D0B8F1100FF7D1B3
:1014C0006F484468006800F08070002843D005A889
:1014D000C4F38341465C04F4803058B36848C06A62
:1014E00000F00F0001A911F800906548C06A00F4EF
:1014F0008030A0B16248C06AC0F30310471C604846
:10150000C06AC0F3032000F1020B5E48B0FBF7F0A5
:1015100000FB0BF0B0FBF9F000FB06F504E05948C6
:10152000B0FBF9F000FB06F59DF82100B04204D1B4
:101530006D0802E0544806FB00F55148406800F48D
:101540008000B0F5800F01D1009504E06800032110
:10155000B0FBF1F000907DE04948C06A00F4003033
:1015600018B900F015FB009016E04548006800F03F
:10157000805088B14248C06AC0F30310471C4048FD
:10158000C06AC0F3033000F1020A3E48B0FBF7F036
:1015900000FB0AF0400000905CE022E059E0FFE729
:1015A0003748C06A00F4802018B900F0F1FA0090C2
:1015B00016E03348006800F0805088B13048C06AB7
:1015C000C0F30310471C2E48C06AC0F3033000F17B
:1015D000020A2C48B0FBF7F000FB0AF04000009034
:1015E00038E02748046A04F44070B0F5807F06D1E3
:1015F00004F0020018B14FF4004000901CE004F425
:101600004070B0F5007F08D11D48406A00F002002C
:1016100018B149F6404000900EE004F44070B0F577
:10162000407F07D11648006800F4003010B1174819
:10163000009001E0002000900CE000F099FA1049C1
:101640004968C1F38131491C4900B0FBF1F00090B9
:1016500000E000BF00BF009809B0BDE8F08F0000B7
:10166000000004050607080900000000000D000046
:101670000102030405060708090A0B0C0D0E0F10E2
:101680000010024040787D0100093D00F0FA0200A0
:101690002DE9F8430446002600250027207800F0B5
:1016A000010000286ED0A8467948C06900F080503B
:1016B00078B900BF7648C06940F080507449C8616D
:1016C0000846C06900F08050009000BF00BF4FF096
:1016D00001087048006800F48070B8B96D4800686F
:1016E00040F480706B490860FFF724FE064607E06F
:1016F000FFF720FE801B642802D90320BDE8F88391
:101700006448006800F480700028F1D06048006AE6
:1017100000F440752DB3A08800F44070A84220D09A
:101720005B48006A20F4407501205B490860002096
:1017300008605748056205F0010090B1FFF7FAFD17
:10174000064608E0FFF7F6FD801B41F2883188422B
:1017500001D90320D2E74E48006A00F002000028B9
:10176000F0D04B48006A20F4407061680843484953
:101770000862B8F1010F04D10846C06920F080501A
:10178000C86100BF207800F00200022807D140485D
:10179000406820F44040A16808433D4948602078F3
:1017A00000F00400042807D13948C06A20F4003052
:1017B000E16808433649C862207800F0080008282C
:1017C00007D13348C06A20F480202169084330499A
:1017D000C8622F48C06A00F4003020B92C48C06AA3
:1017E00000F4802000B10127012F41D12848006872
:1017F00000F0805090BB2648006800F0806040B147
:101800002348C06A00F0F001A069814201D00120A4
:1018100074E71F48C06A20F0F000A16908431C4922
:10182000C8620846C06A20F47040616908431849DC
:10183000C862012019490867FFF77CFD064606E0EB
:10184000FFF778FD801B642801D9032056E7104874
:10185000006800F000500028F2D009E0FFE70C48D3
:10186000C06A00F470406169884201D0012045E7F8
:10187000207800F01000102807D10548406820F4B7
:101880008000E169084302494860002036E7000013
:1018900000100240007000404004424200004242FA
:1018A00070B504460D4600266248006800F0070047
:1018B000A8420ED25F48006820F0070028435D4927
:1018C00008600846006800F00700A84201D0012027
:1018D00070BD207800F00200022807D15648406809
:1018E00020F0F000A168084353494860207800F0D8
:1018F000010000285DD06068012806D14E480068CC
:1019000000F4003090B90120E2E76068022806D1B7
:101910004948006800F0007040B90120D8E7464807
:10192000006800F0020008B90120D1E74248406891
:1019300020F00300616808433F494860FFF7FAFC64
:1019400006466068012810D108E0FFF7F3FC801B11
:1019500041F28831884201D90320B9E7364840680E
:1019600000F00C000428F0D123E06068022810D1B8
:1019700008E0FFF7DFFC801B41F28831884201D983
:101980000320A5E72C48406800F00C000828F0D19F
:101990000FE008E0FFF7CEFC801B41F2883188425F
:1019A00001D9032094E72448406800F00C00002887
:1019B000F0D12048006800F00700A8420ED91D4869
:1019C000006820F0070028431A49086008460068AC
:1019D00000F00700A84201D0012079E7207800F04C
:1019E0000400042807D11448406820F4E060E1684E
:1019F000084311494860207800F00800082808D101
:101A00000D48406820F46050216940EAC1000A494D
:101A1000486000F0BDF808494968C1F30311074A5E
:101A2000515CC840064908600F20FFF7A5FC002064
:101A30004EE700000020024000100240F64400087B
:101A400004000020014800687047000004000020E6
:101A50000F2101603D49C96A01F4803141603B4971
:101A6000096801F48021B1F5802F03D14FF4A02142
:101A700081600CE03549096801F48031B1F5803F9F
:101A800003D14FF48031816001E0002181602F4952
:101A9000C96A01F00F01C1602C49096801F0010118
:101AA00011B10121416101E000214161274909682B
:101AB000C1F3C40181612549096A01F004010429C7
:101AC00002D10521016109E02049096A01F0010103
:101AD00011B10121016101E0002101611B49496A45
:101AE00001F0010111B10121C16101E00021C161D9
:101AF0001649096801F08071B1F1807F02D102219D
:101B0000016201E0012101621049496801F480325B
:101B100042620E49496801F4701282620B490968F9
:101B200001F08061B1F1806F02D10221C16201E058
:101B30000121C1620549C96A01F0F002426303490B
:101B4000C96A01F47062026370470000001002402D
:101B500000B5FFF777FF04494968C1F30221034A42
:101B6000515CC84000BD000000100240064500085E
:101B700000B5FFF767FF04494968C1F3C221034A72
:101B8000515CC84000BD000000100240064500083E
:101B90002DE9F04388B00FF2D00898E88012D8F809
:101BA0000C80CDE9059CCDF81C8004970FF2C80984
:101BB000D9E9017CD9F80080D9F80C90CDE902C9A7
:101BC000CDE9008700220024002300210020002509
:101BD00000262D4F7A6802F00C07002F3DD0042F0D
:101BE00002D0082F38D101E0284838E004AFC2F312
:101BF000834C17F80C1002F4803747B3224FFF6A6A
:101C000007F00F071DF807401F4FFF6A07F48037E2
:101C100097B11D4FFF6AC7F303177D1C1A4FFF6A68
:101C2000C7F30327BE1C194FB7FBF5F77743B7FB84
:101C3000F4F707FB01F304E0144FB7FBF4F707FBDD
:101C400001F39DF81D708F4204D15B0802E0104F34
:101C500001FB07F3184602E000BF0E4800BF00BFBB
:101C600008B0BDE8F083000000000405060708097D
:101C700000000000000D0000010203040506070833
:101C8000090A0B0C0D0E0F100010024040787D0168
:101C900000093D0000127A00F8B5044600252078BE
:101CA00000F00100002878D0FD48406800F00C00EA
:101CB00004280CD0FA48406800F00C00082811D124
:101CC000F748406800F48030B0F5803F0AD1F4480E
:101CD000006800F4003000285FD0A06800285CD1C4
:101CE0000120F8BD00BFA068B0F5803F06D1EC48E8
:101CF000006840F48030EA49086028E0A06858B9DC
:101D0000E748006820F48030E5490860084600682C
:101D100020F4802008601AE0A068B0F5A02F0BD155
:101D2000DF48006840F48020DD490860084600680C
:101D300040F4803008600AE0D948006820F4803020
:101D4000D74908600846006820F48020086000BF7A
:101D5000A06888B1FFF7EEFA054606E0FFF7EAFA59
:101D6000401B642801D90320BBE7CD48006800F47C
:101D700000300028F2D010E0FFF7DCFA054606E05C
:101D8000FFF7D8FA401B642801D90320A9E7C4480B
:101D9000006800F400300028F2D1207800F0020042
:101DA000022857D1BE48406800F00C0050B1BC4832
:101DB000406800F00C00082818D1B948406800F4C9
:101DC000803098B9B648006800F0020020B1606920
:101DD000012801D0012084E7B148006820F0F80014
:101DE000A16940EAC100AE49086033E06069E8B12A
:101DF0000120AC490860FFF79DFA054606E0FFF7B1
:101E000099FA401B022801D903206AE7A448006818
:101E100000F002000028F2D0A148006820F0F8008D
:101E2000A16940EAC1009E49086013E000209D4975
:101E30000860FFF77FFA054606E0FFF77BFA401BD4
:101E4000022801D903204CE79548006800F0020001
:101E50000028F2D1207800F0080008282DD1E06990
:101E6000B8B1012090490860FFF764FA054606E022
:101E7000FFF760FA401B022801D9032031E78848A8
:101E8000406A00F002000028F2D0012000F0D2FFEA
:101E900013E0002084490860FFF74CFA054606E08D
:101EA000FFF748FA401B022801D9032019E77C48B4
:101EB000406A00F002000028F2D1207800F004000F
:101EC000042873D100267648C06900F0805070B9AC
:101ED00000BF7348C06940F080507149C86108462E
:101EE000C06900F08050009000BF00BF01266F481D
:101EF000006800F48070B0B96C48006840F48070ED
:101F00006A490860FFF716FA054606E0FFF712FA7D
:101F1000401B642801D90320E3E66448006800F40C
:101F200080700028F2D000BF2069012806D15C48EB
:101F3000006A40F001005A49086227E0206958B958
:101F40005748006A20F00100554908620846006AB7
:101F500020F00400086219E0206905280BD15048E0
:101F6000006A40F004004E4908620846006A40F0EA
:101F7000010008620AE04A48006A20F0010048496E
:101F800008620846006A20F00400086200BF206969
:101F9000A0B1FFF7CFF9054609E0FFF7CBF9401BE9
:101FA00041F28831884202D903209AE622E03C4877
:101FB000006A00F002000028EFD012E0FFF7BAF943
:101FC000054608E0FFF7B6F9401B41F28831884228
:101FD00001D9032085E63248006A00F0020000289B
:101FE000F0D1012E05D12E48C06920F080502C4937
:101FF000C86100BFE06AA0B32948406800F480309F
:10200000B0F5803F0ED12648406800F00C0008284B
:1020100008D12348C06A00F48030B0F5803F01D178
:1020200001205EE6E06A022850D11D48006800F0F9
:10203000805040B11A48C06A00F0F001606B8142E4
:1020400001D001204DE6002016498866FFF772F99D
:10205000054607E0FFF76EF9401B642802D903200C
:102060003FE64DE00E48006800F000600028F1D126
:102070000B48C06A20F0F000616B08430849C86251
:102080000846C06A20F47060216B08430449C862A6
:10209000012004498866FFF74DF905460FE000006E
:1020A00000100240000042428004424200700040A2
:1020B000FFF740F9401B642801D9032011E6464888
:1020C000006800F000600028F2D019E04248C06AC1
:1020D00020F480304049C862002040498866FFF7FC
:1020E00029F9054606E0FFF725F9401B642801D9C8
:1020F0000320F6E53848006800F000600028F2D1BF
:10210000206AE0B33448406800F00C0008285ED034
:10211000206A022846D1002030490866FFF70AF9F4
:10212000054606E0FFF706F9401B022801D9032007
:10213000D7E52948006800F000700028F2D1606AF5
:10214000B0F5803F0DD12448C06A61680843224938
:10215000C8620846C06A20F00F00E16808431E49C3
:10216000C862D4E9090108431B49496821F4741184
:1021700008431949486001201849086600E028E032
:10218000FFF7D8F8054606E0FFF7D4F8401B022811
:1021900001D90320A5E51048006800F00070002870
:1021A000F2D016E000200D490866FFF7C3F8054697
:1021B00006E0FFF7BFF8401B022801D9032090E595
:1021C0000548006800F000700028F2D101E001200D
:1021D00087E5002085E50000001002400000424233
:1021E00010B5034600220020024A02EB8102146867
:1021F000A0B210BD006C004010B50346002003489B
:1022000000EB810094B2046010BD0000006C00403F
:10221000014609B90120704700BF087C012801D19F
:102220000220F8E70120087400BF02204874086803
:10223000006820F001000A6810600120487400BFA7
:102240000020087400BF00BFE5E77047704710B575
:1022500004462068006800F00100E0B12068406892
:1022600000F00100B8B120684068C0F3800048B1B8
:102270002046FFF7EBFF6FF0040021684860042060
:10228000607404E02046FFF7E0FF012060746FF007
:1022900001002168486010BD014609B9012070475E
:1022A00000BF087C012801D10220F8E70120087452
:1022B00000BF022048740868006840F001000A6806
:1022C00010600120487400BF0020087400BF00BFE8
:1022D000E5E7000070B5044600250CB9012070BD8B
:1022E000607C20B900202074204600F05BF80220BA
:1022F0006074204600F088F818B104206074012052
:10230000EDE7204600F0AAFD18B10420607401201A
:10231000E5E72068406820F0070021684860A06871
:1023200028B11F48006820F001001D4908601C48C2
:10233000001F006820F46070A16808431849091F55
:1023400008606068401C08B1656809E00120FFF77B
:1023500087F805461DB9042060740120BFE76D1E93
:102360002068806820F00F0040EA154021688860EE
:102370002068C06865F30F002168C860204600F03F
:102380008AFD18B1042060740120A8E70021E173E0
:1023900001216173A1730120607400209FE7000098
:1023A000306C004010B596B0044608A8FFF750FB0B
:1023B0000C20089000201090139001200F90002016
:1023C0000C9008A8FFF768FC18B100BF00BF00BF61
:1023D000FEE701200090400201906846FFF758F99F
:1023E00018B100BF00BF00BFFEE70120054908602B
:1023F000002211460320FEF7E1FF0320FEF7D1FF84
:1024000016B010BD3C04424270B5044600250CB91C
:10241000012070BD2068406820F0080021684860F5
:10242000FEF788FF054607E0FEF784FF401BB0F586
:102430007A7F01D90320ECE72068406800F00800AB
:102440000028F1D00020E4E770B504462546681E58
:10245000B0F1807F01D301200FE0681E4FF0E02132
:1024600048610F214FF0FF3000F012FC00204FF0C8
:10247000E021886107200861002070BD10B5044686
:102480000CB9012010BD242084F83900204600F04A
:10249000ECF80020E06384F8390084F83A0000BFCB
:1024A00084F8380000BF00BFECE770472DE9F04723
:1024B0000446206805682068C668206847694FF0B0
:1024C0000008C14605F00F08B8F1000F0AD105F069
:1024D000200038B106F0200020B1204601F044FB76
:1024E000BDE8F087B8F1000F6DD007F0010018B912
:1024F00006F49070002866D005F0010030B106F4B3
:10250000807018B1E06B40F00100E06305F004005A
:1025100030B107F0010018B1E06B40F00200E06359
:1025200005F0020030B107F0010018B1E06B40F097
:102530000400E06305F0080030B107F0010018B1B5
:10254000E06B40F00800E063E06B68B305F020004A
:1025500028B106F0200010B1204601F005FB2068EC
:102560004069C0F38019E06B00F0080010B9B9F1C0
:10257000000F22D0204601F0D7FA2068406900F011
:102580004000B0B12068406920F0400021684861F7
:10259000606B50B11748616B4863606BFEF74AFC93
:1025A00010B1606B416B88470CE02046FFF77DFF60
:1025B00008E02046FFF779FF04E02046FFF775FFAB
:1025C0000020E0638CE705F0800030B106F0800069
:1025D00018B1204601F000FC82E705F0400030B160
:1025E00006F0400018B1204601F0AEFA78E700BFCF
:1025F00076E70000153B000810B504460CB9012031
:1026000010BDA06900B100E000BF94F8390028B9FE
:10261000002084F83800204600F028F8242084F8B0
:1026200039002068C06820F400502168C860204646
:1026300001F0EEFA2068006920F4904021680861FA
:102640002068406920F02A00216848612068C0683D
:1026500040F400502168C8600020E063202084F826
:10266000390084F83A000020CAE7704710B586B0F8
:1026700004465149206888422AD100BF4F488069EA
:1026800040F480404D4988610846806900F48040EC
:10269000019000BF00BF4815029002200390012066
:1026A00004900320059002A94548FEF7A7FC4FF4CB
:1026B000806002900020039002A94148FEF79EFC32
:1026C000012200212520FEF779FE2520FEF769FE74
:1026D0003C492068884229D100BF3848C06940F48D
:1026E00080103649C8610846C06900F48010019026
:1026F00000BF00BF881402900220039001200490C4
:102700000320059002A93048FEF778FC04200290CF
:102710000020039002A92D48FEF770FC0122002141
:102720003520FEF74BFE3520FEF73BFE284920689A
:1027300088422AD100BF2148C06940F400201F49C7
:10274000C8610846C06900F40020019000BF00BFC6
:1027500008150290022003900120049003200590A8
:1027600002A91948FEF74AFC4FF4006002900020CD
:10277000039002A91448FEF741FC012200213420F5
:10278000FEF71CFE3420FEF70CFE00BF0B488069EC
:1027900040F00100094988610846806900F00100A5
:1027A000019000BF00BF0B48406840F00800094995
:1027B000486006B010BD0000003801400010024023
:1027C000000801400050004000100140001401408A
:1027D000004C00400000014010B5034693F83A0059
:1027E00020282FD101B10AB9012010BD00BF93F8F4
:1027F0003800012801D10220F7E7012083F83800D2
:1028000000BF99629A85DA850020D863222083F878
:102810003A0000BF002083F8380000BF1868C06885
:1028200040F480701C68E0601868406940F0010066
:102830001C6860611868C06840F020001C68E06097
:102840000020D2E70220D0E710B5044609492068ED
:10285000884201D101F028FC07492068884201D153
:10286000FEF7ACF805492068884201D1FEF782FAEC
:1028700010BD00000038014000500040004C0040F6
:102880002DE9F84304460D4616461F464FF0000951
:1028900094F8390020285CD105B116B90120BDE8B3
:1028A000F88300BF94F83800012801D10220F6E730
:1028B000012084F8380000BF0020E063212084F864
:1028C0003900FEF737FD8146A684E6842BE0E08CD4
:1028D000401EE084A068B0F5805F16D14B46002210
:1028E00080212046009701F0ABFA08B10320D6E71B
:1028F000A846B8F80000C0F30800216848602069C5
:1029000008B9AD1C0FE06D1C0DE04B460022802184
:102910002046009701F094FA08B10320BFE715F8AC
:10292000010B21684860E08C0028D0D14B46002282
:1029300040212046009701F083FA08B10320AEE75A
:10294000202084F8390000BF002084F8380000BF40
:10295000A5E70220A3E710B5034693F83900202825
:1029600023D101B10AB9012010BD00BF93F838008E
:10297000012801D10220F7E7012083F8380000BFC9
:1029800019629A84DA840020D863212083F8390000
:1029900000BF002083F8380000BF1868C06840F00E
:1029A00080001C68E0600020DEE70220DCE7704762
:1029B00000BFFEE72DE9F04F95B00546A84608F1A7
:1029C0000104A07A00EB40000B2101EB4000801CC9
:1029D000C6B20027A019A0F10209B11E14AA204610
:1029E000FDF764FE99F8001099F8010001EB002052
:1029F0001FFA80FB042228A12046FDF7F9FB0028DE
:102A000046D1BDF85000834542D102200090B01F4E
:102A1000C2B20123211D002000F0F4FA20A00068BA
:102A20000390606804902089ADF8140000208DF8B0
:102A300016009DF8160000EB40000B2101EB400052
:102A4000801CC7B203A83844A0F1020AB91E13AA19
:102A500003A8FDF72BFEBDF84C00C11700EB116178
:102A60000912A0EB01218AF80010BDF84C00C11733
:102A700000EB1161090A8AF8011098F800008DF83E
:102A8000040003A80290394601A8FDF7EFFE00BF3D
:102A900015B0BDE8F08F0000F1F2F3F40000000083
:102AA000F4F3F2F10000000010B50446204600F0F7
:102AB00061F810BD10B500F001F810BD1CB56846F6
:102AC00000F07AF8144801880088401C124A1080EF
:102AD00001EB4100114901EB8004104600881E28DB
:102AE00002DB002011460880A06800B91CBDDDE9AA
:102AF000001001EB4102C2EBC11100EBC1002168E3
:102B0000884206D3A06820B1D4E90101884700209B
:102B1000A06000BFEAE70000400000204409002058
:102B200070B586B004460D46164600BF1CB94FF07E
:102B3000FF3006B070BD00BF04A800F03DF8DDE92D
:102B4000041001EB4102C2EBC11100EBC1003044A3
:102B500001900295039401A801F08AFCE9E70000C6
:102B600010B54FF4B4710248FDF737FB002010BDDB
:102B7000440900201CB50F49096800910D494968B6
:102B8000019115E00B4949680A4A126802EB4203B9
:102B9000C3EBC21201EBC201DDE9003203EB4304D7
:102BA000C4EBC31302EBC3020244914200D31CBD29
:102BB000E8E700003800002000BF00B9704700BF00
:102BC00003494968416002490968016000BFF5E7AF
:102BD000380000201848006800EB4001C1EBC0102D
:102BE0004FF0FF31A1EBC000B0F57A7F03D2002097
:102BF00011490860486010484068401C0E49486010
:102C000008464068B0F57A7F14DB084640684FF408
:102C10007A7190FBF1F00849096808440649086098
:102C2000084640684FF47A7190FBF1F201FB120004
:102C300001494860704700003800002000BFFEE7EF
:102C400070B504460D460C4890F86600012812D075
:102C5000094890F86600022804D12946204601F070
:102C600025FB08E0044890F86600032803D12946B4
:102C70002046FDF74DFF70BD8C040020704700001A
:102C800002480068C0F30220704700000CED00E02D
:102C900010B5002807DA0A07140E054A00F00F03E2
:102CA0001B1FD45403E00A07130E024A135410BD2D
:102CB00018ED00E000E400E010B504462F4890F85D
:102CC000660001280FD1012281022D48FEF72CFB5E
:102CD000012208212B48FEF727FB0022012128486A
:102CE000FEF722FB42E0254890F8660002281CD13E
:102CF000224890F8670000F0020080B1002208210D
:102D00002048FEF711FB00224FF480611C48FEF7BB
:102D10000BFB002201211A48FEF706FB26E00122E8
:102D200008211848FEF700FB20E0144890F86600E0
:102D300003281BD1114890F8670000F0040080B10F
:102D4000012211460E48FEF7EFFA012208210D4834
:102D5000FEF7EAFA00224FF480610948FEF7E4FA30
:102D600004E0002201210648FEF7DEFA4FF4FA7271
:102D70000021AFF2BB00FFF7D3FE10BD8C04002092
:102D8000000C01400010014010B50446234890F8A3
:102D9000670000F0010078B1204890F86600022832
:102DA00002D101F0A9F806E01C4890F8660003285B
:102DB00001D1FDF79FFD29E0184890F8670000F069
:102DC000020090B1154890F86600032801D1FDF784
:102DD00091FD124890F86600022817D001F070F8B3
:102DE00002200E4981F8660010E00C4890F8670058
:102DF00000F0040050B1094890F86600032805D09F
:102E0000FDF75CFD0320054981F86600642200217E
:102E1000AFF28B00FFF784FE10BD00008C04002091
:102E2000704770B504460D4629462046FDF7C4FF9D
:102E300070BD000008B508490968C9084FF47A72E6
:102E4000B1FBF2F14143009100BF00BF00994A1E5F
:102E500000920029F9D108BD0400002070B5044695
:102E60000025FEF767FA054607E0FEF763FA401B08
:102E7000B0F57A7F01D9032070BD2068406800F06A
:102E800020000028F1D02068406840F01000216840
:102E900048600020F0E770B50446002520684068CF
:102EA00020F0100021684860FEF744FA054607E06C
:102EB000FEF740FA401BB0F57A7F01D9032070BDC0
:102EC0002068406800F020000028F1D00020F6E7DC
:102ED00010B50648FFF7BBF9012005490870084600
:102EE0008068496808440249886010BD34080020A1
:102EF0002808002070B505460C46642C25DA1349D5
:102F0000496801EBC10202EB01121049083101EBE3
:102F1000820022462946FDF747F90C48416800F532
:102F20007C7040F8214009484068401C07494860CF
:102F3000084640680A2801DB002048600348D0F8B2
:102F4000180410B9002000F021F870BD70000020B6
:102F500010B50D4B1B885B1C0B4C2380402343EAB0
:102F600001130370427023461B881B128370234693
:102F70001B78C370B22303714123437153238371C0
:102F8000FF23C37110BD0000080000201CB50446DB
:102F90001B4800681A49496888422AD018480068C6
:102FA00000EBC00101EB00111548083000EB810077
:102FB00001901348026800F57C7050F822106846B2
:102FC000FDF7C8FB0E480068401C0D490860084624
:102FD00000680A2801DB0020086001200849C1F8C8
:102FE000180441F288320021AFF25F00FFF798FD2C
:102FF00005E00020024908604860C1F818041CBDC3
:10300000700000202DE9F0479AB082460F46154621
:103010001E46DDF88880002405F11009424631463D
:1030200001A8FFF795FF083401222046641C01A97E
:103030000A54BB222046641C0A542046641C01F832
:10304000009000222046641C0A542046641C0A5446
:103050002046641C0A5401222046641C0A5401A81C
:10306000204410490A68026089888180A41D0122D9
:103070002046641C01A90A5400222046641C0A54FC
:1030800008192A463946FDF78FF82C44DD222046E0
:10309000641C01A90A54214601A8FFF72BFF1AB0AE
:1030A000BDE8F0876900002038B504460122694672
:1030B000204600F061F99DF8000038BD38B505469E
:1030C0000C46009401226946284600F091F938BD6B
:1030D000012000BF0100A0F10100FBD1704770B5D5
:1030E00005460E46002400BF03E000F005F8285511
:1030F000641CB442F9DB70BD70B50025002400BF2C
:1031000019E06006040E012220210D48FEF70CF99B
:10311000FFF7DEFF40210A48FEF7FEF8012801D143
:1031200044F00104002220210548FEF7FDF8FFF7D6
:10313000CFFF681CC5B2082DE3DB204670BD000040
:103140000008014070B505460E46002400BF03E0AC
:10315000285D00F005F8641CB442F9DB70BD000086
:1031600070B50446002500BF1FE004F0800028B1C0
:10317000012220210E48FEF7D7F804E0002220218A
:103180000B48FEF7D1F8012220210A48FEF7CCF8BF
:10319000FFF79EFF002220210648FEF7C5F8FFF743
:1031A00097FF6006040E681CC5B2082DDDDB70BDFC
:1031B000000C014000080140704770B5054600242E
:1031C0000120FFF771FF044604F07F042C432146E1
:1031D0000120FFF773FF70BD70B504461D20FFF797
:1031E00063FF054605F0F10040EA4400C5B22946F8
:1031F0001D20FFF763FF70BD70B504461D20FFF76B
:1032000053FF054605F0FE0040EA040529461D204F
:10321000FFF754FF70BD70B504462620FFF744FF4A
:10322000054605F0F70040EAC40529462620FFF7C9
:1032300045FF70BD70B504463120FFF735FF0546E8
:1032400005F0F80040EA040529463120FFF736FF73
:1032500070BD70B5054600240120FFF725FF044628
:1032600004F0F8042C4321460120FFF727FF70BD2E
:1032700070B504461E20FFF717FF054605F0FB005A
:1032800040EA8400C5B229461E20FFF717FF70BD33
:1032900010B5044621462220FFF710FF10BD0000A4
:1032A00010B50446204600F0A3FA0848017806202D
:1032B000FFF704FF054841780720FFF7FFFE0348AA
:1032C00081780820FFF7FAFE10BD000014000020EE
:1032D00010B5044687214D20FFF7F0FE0248015D3E
:1032E0000920FFF7EBFE10BD1700002070B5044663
:1032F0001D20FFF7D9FE0546284664F31F10C5B20E
:1033000029461D20FFF7DAFE70BD70B50446032084
:10331000FFF790FF1E20FFF7C7FE0546284664F31F
:103320001F10C5B229461E20FFF7C8FE70BD38B574
:1033300004461E20FFF7B8FE8DF800001F20FFF79F
:10334000B3FE8DF801009DF8000000F0FC000321A1
:1033500001EA14210843C0B28DF80000E0B28DF8F4
:1033600001009DF800101E20FFF7A8FE9DF8011037
:103370001F20FFF7A3FE38BDF8B506460C461546DC
:1033800006F07F000090184890F8670028B90022E6
:1033900010211648FDF7C8FF09E0134890F86700B0
:1033A000012804D1002201031048FDF7BDFF0121CF
:1033B0006846FFF7C7FE29462046FFF790FE0A48F9
:1033C00090F8670028B9012210210848FDF7ACFFEA
:1033D00009E0054890F86700012804D101220103A3
:1033E0000248FDF7A1FFF8BD480800200008014091
:1033F000F8B506460C46154646F080000090184881
:1034000090F8670028B9002210211648FDF78CFFBC
:1034100009E0134890F86700012804D10022010355
:103420001048FDF781FF01216846FFF78BFE294612
:103430002046FFF787FE0A4890F8670028B9012266
:1034400010210848FDF770FF09E0054890F8670073
:10345000012804D1012201030248FDF765FFF8BDF0
:10346000480800200008014010B5184890F867008F
:1034700030B900224FF400611548FDF755FF09E00F
:10348000124890F86700012804D100220102114877
:10349000FDF74AFF6420FFF76DFB0C4890F86700CA
:1034A00028B90122D1020A48FDF73EFF09E007488A
:1034B00090F86700012804D1012201020548FDF7B8
:1034C00033FF6420FFF756FB10BD000048080020C2
:1034D00000080140000C01401FB50120019002903E
:1034E000032003900420009069465C48FDF786FDA8
:1034F0001020009069465A48FDF780FD4FF40060A7
:10350000009069465648FDF779FD10200090694605
:103510005448FDF773FD0820009069465148FDF7B7
:103520006DFD0120009069464C48FDF767FD4FF4A2
:103530008050009069464A48FDF760FD4FF4807066
:10354000009069464748FDF759FD80200090694684
:103550004448FDF753FD4020009069464148FDF77F
:103560004DFD012204213D48FDF7DEFE0122102120
:103570003B48FDF7D9FE00224FF400613848FDF7C3
:10358000D3FE012211463548FDF7CEFE012211037C
:103590003348FDF7C9FE00224FF480713148FDF732
:1035A000C3FE2020009069462D48FDF727FD20200E
:1035B000009069462B48FDF721FD00200190402036
:1035C000009069462648FDF719FD00222021244875
:1035D000FDF7AAFE0020244981F86700FFF744FFA9
:1035E0000720FFF761FD802815D11F4890F868007B
:1035F00040F001001C4981F86800002210211948A0
:10360000FDF792FE012208211648FDF78DFE1749AD
:10361000086800F00BF90120134981F86700FFF7F3
:1036200023FF0720FFF740FD802815D10E4890F8B2
:10363000680040F002000C4981F868000022102167
:103640000848FDF771FE012208210648FDF76CFECF
:103650000649486800F0EAF81FBD0000001001406C
:1036600000080140000C01404808002010470008F5
:1036700010B5044624B9002204210548FDF754FE84
:10368000012C04D1002201210148FDF74DFE10BD9F
:103690000010014010B50446012204210748FDF73F
:1036A00043FE012211460548FDF73EFE4FF4FA7233
:1036B0000021AFF21F00FFF733FA10BD00100140E8
:1036C0002DE9F0410746002443E0244890F86800C3
:1036D0000121A1400840002839D0204880F86740E7
:1036E0001220FFF7E1FC054605F0400040B3FF2142
:1036F0001220FFF7E3FC1E20FFF7D6FC064606F07B
:103700000400D0B100210D20FFF7D8FC1320FFF7F3
:10371000CBFC124948700846407864280DD2084610
:103720004278C11C0020FFF727FE0C48847001205E
:103730000A4908702046FFF79BFF00F0AFF806E04B
:103740002DB1FF211220FFF7B9FC00F0A7F8601C93
:10375000C4B2012CB9DDBDE8F081000048080020AA
:1037600070B504460D46204890F8670050B9012214
:1037700010211E48FDF7D8FD002208211B48FDF747
:10378000D3FD0EE0184890F86700012809D1012206
:1037900080211648FDF7C8FD002240211348FDF79F
:1037A000C3FD2946204600F091F80F4890F86700C5
:1037B00050B9002210210D48FDF7B6FD0122082165
:1037C0000A48FDF7B1FD0EE0074890F867000128B0
:1037D00009D1002280210548FDF7A6FD01224021E4
:1037E0000248FDF7A1FD70BD48080020000C014013
:1037F0002DE9F04104462046FCF785FD0546084AC0
:10380000084BFCF711FD0746FCF78AFD0446200C27
:1038100005490870200A48708C70BDE8F0810000EE
:10382000D7A3703D0AA74E401400002010B50446EF
:103830000020FFF70EFD8020FFF7BFFC0120FFF7FF
:1038400008FD00214020FFF739FC00214120FFF74F
:1038500035FC4220FFF728FC2046FFF721FD07201A
:10386000FFF736FD0C20FFF750FD0220FFF7B4FCF8
:103870000120FFF7FDFC0720FFF738FD0020FFF7D0
:10388000BBFCFF20FFF704FD40F2FF30FFF74FFDC8
:103890000120FFF7C0FC00F001F810BD10B50120B9
:1038A000FFF7D7FC9F211120FFF708FCFF21242000
:1038B000FFF704FC00214020FFF700FC002141201D
:1038C000FFF7FCFB0520FFF7C4FC10BD70B50446F4
:1038D0000D460120FFF7BDFC00212420FFF7EEFB81
:1038E000F7211120FFF7EAFB29462220FFF7E6FB2C
:1038F00000210E20FFF7E2FB00210D20FFF7DEFB89
:103900002A4621460020FFF773FD40210846FFF7B5
:10391000D5FB00214120FFF7D1FB0320FFF799FCE5
:103920006FF07F4626E01220FFF7BEFB13490870B8
:103930000846007800F00800082816D10120FFF79B
:1039400088FC9F211120FFF7B9FBFF212420FFF7FE
:10395000B5FB00214020FFF7B1FB00214120FFF71C
:10396000ADFB0520FFF775FC05E03000A6F1010670
:1039700000D100E0D7E700BF70BD00003300002099
:1039800008B5FDF7E5FC00F03FF800BF1A48806974
:1039900040F00400184988610846806900F004007E
:1039A000009000BF00BF00BF0846806940F00800DB
:1039B00088610846806900F00800009000BF00BFE1
:1039C00000BF0846806940F01000886108468069A1
:1039D00000F01000009000BF00BF00BF08468069E3
:1039E00040F0200088610846806900F020000090C7
:1039F00000BF00BF08BD00000010024010B5FDF779
:103A00009FFC00F06BF810BD00B593B014210EA818
:103A1000FCF7E3FB38216846FCF7DFFB0120009050
:103A2000000402900420039080030190022008907B
:103A3000C10309914FF4E0110A910B904FF4C0615A
:103A40000C9140210D916846FEF726F908B100BFA0
:103A5000FEE70F200E9002200F9000201090129091
:103A60004FF48060119002210EA8FDF719FF08B1F4
:103A700000BFFEE713B000BD1448006840F001002D
:103A80001249086008464068114908400F494860DB
:103A9000084600680F4908400C490860084600685D
:103AA00020F4802008600846406820F4FE0048604A
:103AB0000846006820F0A05008604FF47F0088603E
:103AC0000020C862C8030449086070470010024023
:103AD0000000FFF0FFFFF6FE08ED00E010B5FFF775
:103AE00079F810BD10B500221146501EFDF766FC96
:103AF00010BD000010B50248FEF7D8FC10BD000054
:103B0000B007002010B50248FEF7D0FC10BD000041
:103B10007007002070B505466C6A0020E085E084DF
:103B20002046FEF7C2FC70BD0168C96821F490719F
:103B30000268D1600168496921F0010102685161A0
:103B4000202180F83A10704710B504462068C068FC
:103B500020F040002168C860202084F83900204609
:103B6000FEF725FF002010BD70B5044694F83A001A
:103B700022284AD1A068B0F5805F13D1A56A2069D8
:103B800040B920684068C0F308002880A06A801C03
:103B9000A06219E020684068C0B22880A06A401C7A
:103BA000A06211E0206938B920684068C1B2A26AF9
:103BB000501CA062117007E02068406800F07F018F
:103BC000A26A501CA0621170E08D401E80B2E08598
:103BD000C8B92068C06820F020002168C86020684B
:103BE000C06820F480702168C8602068406920F0B7
:103BF000010021684861202084F83A002046FEF741
:103C000023FE002070BD0020FCE70220FAE7000040
:103C10002DE9F041044600252068006920F4405059
:103C2000E1680843216808612169A0680843616967
:103C3000084305432068C06841F20C61884328436B
:103C40002168C8602068406920F44070A169084379
:103C5000216848615F49206888425CD1FDF788FF90
:103C600000EBC00101EB001061688900B0FBF1F6C8
:103C7000FDF77EFF00EBC00101EB001061688900D9
:103C8000B0FBF1F06421B0FBF1F000EBC00101EBFF
:103C90000010A6EB8000322101EB00106421B0FB84
:103CA000F1F000F0F006FDF763FF00EBC00101EB5F
:103CB000001061688900B0FBF1F06421B0FBF1F005
:103CC00006EB0016FDF754FF00EBC00101EB0010FE
:103CD00061688900B0FBF1F7FDF74AFF00EBC00116
:103CE00001EB001061688900B0FBF1F06421B0FBCA
:103CF000F1F000EBC00101EB0010A7EB80003221D6
:103D000001EB00106421B0FBF1F000F00F00304433
:103D1000216888605BE0FDF71BFF00EBC00101EB51
:103D2000001061688900B0FBF1F6FDF711FF00EBB0
:103D3000C00101EB001061688900B0FBF1F0642163
:103D4000B0FBF1F000EBC00101EB0010A6EB80002E
:103D5000322101EB00106421B0FBF1F000F0F0061D
:103D6000FDF7F6FE00EBC00101EB00106168890071
:103D7000B0FBF1F06421B0FBF1F006EB0016FDF7AB
:103D8000E7FE00EBC00101EB001061688900B0FBA9
:103D9000F1F7FDF7DDFE00EBC00101EB00106168FB
:103DA0008900B0FBF1F06421B0FBF1F000EBC00141
:103DB00001EB0010A7EB8000322101EB0010642121
:103DC000B0FBF1F000F00F00304421688860BDE8DE
:103DD000F081000000380140014691F839002128A7
:103DE0002CD18868B0F5805F0FD10A6A1088C0F3C3
:103DF00008000B685860086918B9086A801C0862D6
:103E000009E0086A401C086205E00B6A581C086259
:103E100018780B685860C88C401E80B2C88458B9A6
:103E20000868C06820F080000B68D8600868C06827
:103E300040F040000B68D860002070470220FCE78B
:103E40002DE9F04104460D4617469846069E21E0AE
:103E5000701CF8B12EB1FDF76DFAA0EB0800B0426E
:103E600018D92068C06820F4D0702168C860206824
:103E7000406920F0010021684861202084F8390061
:103E800084F83A0000BF002084F8380000BF032007
:103E9000BDE8F081206800682840A84201D10120D7
:103EA00000E00020B842D3D00020F1E710B502486E
:103EB000FEF7FCFA10BD00003007002000BFFEE74F
:103EC00010B5292101A000F0C7FA10BD41542B43C1
:103ED000495053544152543D22554450222C2231D2
:103EE00039322E3136382E32382E313530222C35BB
:103EF0003638330D0A00000010B50D2101A000F086
:103F0000ABFA10BD41542B434950434C4F53450D20
:103F10000A0000001FB501200190029003200390C9
:103F20004FF48070009069462848FDF767F84FF419
:103F30000070009069462648FDF760F80820009060
:103F400069462348FDF75AF8082000906946204842
:103F5000FDF754F8002001900820009069461B48A6
:103F6000FDF74CF81B481C4908604FF4E1304860ED
:103F7000002119488160C160016181610C214161AA
:103F8000FEF77CFA08B100BFFEE71348FEF734FBEA
:103F900008B100BFFEE770211048FCF71EF90022AF
:103FA0004FF480710948FDF7BFF90122510208481A
:103FB000FDF7BAF9012208210548FDF7B5F90122FC
:103FC00006496C310448FEF707FC1FBD000801409C
:103FD000001001400038014030070020F4040020A8
:103FE00010B5044608212248FDF796F9002835D17E
:103FF00020480068401C1F490860084601680068A6
:10400000401C1C4A106003292BD910211AA000F073
:1040100023FA6420FEF7AEFD13211CA000F01CFA69
:10402000002208211E48FDF77FF96420FEF7A2FD5B
:10403000012208211A48FDF777F96420FEF79AFD5E
:10404000002208211648FDF76FF96420FEF792FD63
:10405000012208211248FDF767F902E00020054916
:1040600008604FF47A7200210E48FEF759FD10BD2A
:10407000000801401000002041542B435753544F77
:1040800050534D4152540D0A0000000041542B433F
:10409000575354415254534D4152543D330D0A002D
:1040A00000100140E13F000810B50E480088642868
:1040B00002DB63200B4908800A4890F86C100288E4
:1040C0000088401C074B1880981C81540120194619
:1040D00081F866000020886601226C310248FEF7F4
:1040E0007BFB10BDF40400203007002010B5002039
:1040F0000E4981F86D0081F86E0000224FF4807146
:104100000B48FDF711F94FF47A7200210948FEF7C8
:1041100007FD0A2200210848FEF702FD4FF47A72DB
:1041200000210648FEF7FCFC10BD0000F40400204E
:10413000000801405543000841410008E13F0008E4
:104140002DE9F0478146454890F8660001287DD169
:104150004248806E0A30414988660846806E1E28B3
:1041600074D38E1C8F1C0846B0F80080002464E0D5
:1041700007223BA13846FCF748F810BBFD79322DE9
:1041800008D1394890F8670040F00200364981F8BC
:10419000670015E0332D04D1032134A000F086F828
:1041A0000EE0342D0CD0352D0AD12F4890F8670041
:1041B00020F002002C4981F8670001202C4908708A
:1041C00000BF0B222BA13846FCF71FF858B910216D
:1041D0002BA000F041F9244890F8670040F002005D
:1041E000214981F8670007222AA13846FCF70DF81B
:1041F0000F222AA13846FCF708F838B91A4890F877
:10420000670020F00200184981F8670010E0305D77
:104210000D2807D1601C305C0A2803D1A01C84B291
:10422000371906E0601C84B2444501DB01E00DE073
:10423000EDE700BF444500DB00E099E700BF002048
:104240000649088081F86600886600BF0A220021BE
:10425000AFF21310FEF764FCBDE8F087F404002011
:104260005354415455533A008C040020FFFFFF0083
:104270000C0000205749464920474F542049500020
:1042800041542B435753544F50534D4152540D0AF0
:1042900000000000434F4E4E4543540057494649E5
:1042A00020444953434F4E4E4543540030B585B0EA
:1042B00005460C46214890F8660002283CD114229D
:1042C0001FA16846FBF770FF4FF47A7094FBF0F083
:1042D0000A2190FBF1F201FB12003030C0B28DF8E0
:1042E0000C00642094FBF0F090FBF1F201FB120053
:1042F0003030C0B28DF80C000A2094FBF0F090FB37
:10430000F1F201FB12003030C0B28DF80D000A202E
:1043100094FBF0F100FB11403030C0B28DF80E007C
:104320001121684600F098F83220FEF723FC214660
:10433000284600F091F800BF05B030BD8C04002085
:1043400041542B43495053454E443D303030310D9C
:104350000A00000010B504462C4890F86D0030B1FA
:10436000012817D0022835D003284CD13DE0012286
:1043700011022748FCF7D8FF244890F86D00401C34
:10438000224981F86D0040F6B83200212148FEF73D
:10439000C7FB38E0082120A000F05EF86420FEF79B
:1043A00083FB11211FA000F057F86420FEF77CFB6F
:1043B0000D2121A000F050F8144890F86D00401C29
:1043C000124981F86D0042F2107200211148FEF787
:1043D000A7FB18E00E211CA000F03EF842F210727C
:1043E00000210C48FEF79CFB0DE0084890F86D009A
:1043F000401C064981F86D004FF47A72002105488F
:10440000FEF78EFB00BF00BF10BD0000F4040020CB
:10441000000801405543000841542B474D520D0AF6
:104420000000000041542B43574D4F44455F444525
:10443000463D310D0A00000041542B4349504D5573
:10444000583D300D0A00000041542B43495053544D
:10445000415455530D0A000070B504460D46AAB2EA
:1044600021460248FEF777FA70BD000030070020B1
:1044700030B50246002110E001EB41000C4B03EB8C
:104480008000806838B901EB410003EB800092E8BE
:10449000380038C003E0481C81B21E29ECDB00BFA5
:1044A0001E2901DA002030BD4FF0FF30FBE700008D
:1044B0004409002002E008C8121F08C1002AFAD1EE
:1044C00070477047002001E001C1121F002AFBD194
:1044D000704708B5002000906846FBF7D9FF10B17F
:1044E0004FF0FF3008BD0098FCF744F80098FBF748
:1044F000CDFF0020F6E700000000000000000102F0
:10450000030406070809000000000102030400007C
:10451000C1C081C1400101C3C003800241C201C6C4
:10452000C006800741C70005C1C581C4400401CC55
:10453000C00C800D41CD000FC1CF81CE400E000ACE
:10454000C1CA81CB400B01C9C009800841C801D84C
:10455000C018801941D9001BC1DB81DA401A001E46
:10456000C1DE81DF401F01DDC01D801C41DC001465
:10457000C1D481D5401501D7C017801641D601D2CC
:10458000C012801341D30011C1D181D0401001F07D
:10459000C030803141F10033C1F381F24032003646
:1045A000C1F681F7403701F5C035803441F4003C55
:1045B000C1FC81FD403D01FFC03F803E41FE01FA4C
:1045C000C03A803B41FB0039C1F981F840380028EE
:1045D000C1E881E9402901EBC02B802A41EA01EEC4
:1045E000C02E802F41EF002DC1ED81EC402C01E465
:1045F000C024802541E50027C1E781E6402600224E
:10460000C1E281E3402301E1C021802041E001A01B
:10461000C060806141A10063C1A381A240620066C5
:10462000C1A681A7406701A5C065806441A4006C54
:10463000C1AC81AD406D01AFC06F806E41AE01AACB
:10464000C06A806B41AB0069C1A981A8406800784D
:10465000C1B881B9407901BBC07B807A41BA01BE43
:10466000C07E807F41BF007DC1BD81BC407C01B464
:10467000C074807541B50077C1B781B640760072CD
:10468000C1B281B3407301B1C071807041B00050BC
:10469000C190819140510193C05380524192019643
:1046A000C056805741970055C19581944054019C54
:1046B000C05C805D419D005FC19F819E405E005A4D
:1046C000C19A819B405B0199C059805841980188EB
:1046D000C04880494189004BC18B818A404A004EC5
:1046E000C18E818F404F018DC04D804C418C004464
:1046F000C184818540450187C0478046418601824B
:10470000C042804341830041C1818180404000001C
:1047100080A1031C00389C1C3847000800000020C2
:1047200044000000B44400087C4700084400002016
:104730006C0E0000C44400080000000000A24A04FF
:104740000000000000000000000000006089D88028
:1047500080808386898C8F0708090A0B0C0102036D
:104760000400010203040506070809000000000018
:0C4770000000000000000000000000003D
:04000005080001519D
:00000001FF
